{
	"raffle.sol": {
		"LimitReceiver": {
			"abi": [
				{
					"inputs": [
						{
							"internalType": "uint256",
							"name": "_exactAmount",
							"type": "uint256"
						},
						{
							"internalType": "uint256",
							"name": "_totalLimit",
							"type": "uint256"
						},
						{
							"internalType": "uint256",
							"name": "_unlockDate",
							"type": "uint256"
						},
						{
							"internalType": "address",
							"name": "_vrfCoordinator",
							"type": "address"
						},
						{
							"internalType": "bytes32",
							"name": "_keyHash",
							"type": "bytes32"
						},
						{
							"internalType": "uint256",
							"name": "_subscriptionId",
							"type": "uint256"
						}
					],
					"stateMutability": "nonpayable",
					"type": "constructor"
				},
				{
					"inputs": [
						{
							"internalType": "address",
							"name": "have",
							"type": "address"
						},
						{
							"internalType": "address",
							"name": "want",
							"type": "address"
						}
					],
					"name": "OnlyCoordinatorCanFulfill",
					"type": "error"
				},
				{
					"inputs": [
						{
							"internalType": "address",
							"name": "have",
							"type": "address"
						},
						{
							"internalType": "address",
							"name": "owner",
							"type": "address"
						},
						{
							"internalType": "address",
							"name": "coordinator",
							"type": "address"
						}
					],
					"name": "OnlyOwnerOrCoordinator",
					"type": "error"
				},
				{
					"inputs": [],
					"name": "ZeroAddress",
					"type": "error"
				},
				{
					"anonymous": false,
					"inputs": [
						{
							"indexed": false,
							"internalType": "address",
							"name": "vrfCoordinator",
							"type": "address"
						}
					],
					"name": "CoordinatorSet",
					"type": "event"
				},
				{
					"anonymous": false,
					"inputs": [
						{
							"indexed": true,
							"internalType": "address",
							"name": "from",
							"type": "address"
						},
						{
							"indexed": false,
							"internalType": "uint256",
							"name": "amount",
							"type": "uint256"
						}
					],
					"name": "Deposit",
					"type": "event"
				},
				{
					"anonymous": false,
					"inputs": [
						{
							"indexed": true,
							"internalType": "address",
							"name": "from",
							"type": "address"
						},
						{
							"indexed": true,
							"internalType": "address",
							"name": "to",
							"type": "address"
						}
					],
					"name": "OwnershipTransferRequested",
					"type": "event"
				},
				{
					"anonymous": false,
					"inputs": [
						{
							"indexed": true,
							"internalType": "address",
							"name": "from",
							"type": "address"
						},
						{
							"indexed": true,
							"internalType": "address",
							"name": "to",
							"type": "address"
						}
					],
					"name": "OwnershipTransferred",
					"type": "event"
				},
				{
					"anonymous": false,
					"inputs": [
						{
							"indexed": false,
							"internalType": "uint256",
							"name": "randomNumber",
							"type": "uint256"
						}
					],
					"name": "RandomNumberGenerated",
					"type": "event"
				},
				{
					"anonymous": false,
					"inputs": [
						{
							"indexed": false,
							"internalType": "uint256",
							"name": "requestId",
							"type": "uint256"
						}
					],
					"name": "RandomNumberRequested",
					"type": "event"
				},
				{
					"anonymous": false,
					"inputs": [
						{
							"indexed": true,
							"internalType": "address",
							"name": "to",
							"type": "address"
						},
						{
							"indexed": false,
							"internalType": "uint256",
							"name": "amount",
							"type": "uint256"
						}
					],
					"name": "Refund",
					"type": "event"
				},
				{
					"anonymous": false,
					"inputs": [
						{
							"indexed": true,
							"internalType": "address",
							"name": "to",
							"type": "address"
						},
						{
							"indexed": false,
							"internalType": "uint256",
							"name": "amount",
							"type": "uint256"
						},
						{
							"indexed": false,
							"internalType": "string",
							"name": "tokenType",
							"type": "string"
						}
					],
					"name": "Withdrawal",
					"type": "event"
				},
				{
					"stateMutability": "payable",
					"type": "fallback"
				},
				{
					"inputs": [],
					"name": "acceptOwnership",
					"outputs": [],
					"stateMutability": "nonpayable",
					"type": "function"
				},
				{
					"inputs": [],
					"name": "callbackGasLimit",
					"outputs": [
						{
							"internalType": "uint32",
							"name": "",
							"type": "uint32"
						}
					],
					"stateMutability": "view",
					"type": "function"
				},
				{
					"inputs": [
						{
							"internalType": "uint256",
							"name": "",
							"type": "uint256"
						}
					],
					"name": "depositors",
					"outputs": [
						{
							"internalType": "address",
							"name": "",
							"type": "address"
						}
					],
					"stateMutability": "view",
					"type": "function"
				},
				{
					"inputs": [
						{
							"internalType": "address",
							"name": "",
							"type": "address"
						}
					],
					"name": "deposits",
					"outputs": [
						{
							"internalType": "uint256",
							"name": "",
							"type": "uint256"
						}
					],
					"stateMutability": "view",
					"type": "function"
				},
				{
					"inputs": [],
					"name": "exactAmount",
					"outputs": [
						{
							"internalType": "uint256",
							"name": "",
							"type": "uint256"
						}
					],
					"stateMutability": "view",
					"type": "function"
				},
				{
					"inputs": [
						{
							"internalType": "address",
							"name": "",
							"type": "address"
						}
					],
					"name": "hasDeposited",
					"outputs": [
						{
							"internalType": "bool",
							"name": "",
							"type": "bool"
						}
					],
					"stateMutability": "view",
					"type": "function"
				},
				{
					"inputs": [],
					"name": "keyHash",
					"outputs": [
						{
							"internalType": "bytes32",
							"name": "",
							"type": "bytes32"
						}
					],
					"stateMutability": "view",
					"type": "function"
				},
				{
					"inputs": [],
					"name": "lastWithdrawalTime",
					"outputs": [
						{
							"internalType": "uint256",
							"name": "",
							"type": "uint256"
						}
					],
					"stateMutability": "view",
					"type": "function"
				},
				{
					"inputs": [],
					"name": "maxRange",
					"outputs": [
						{
							"internalType": "uint256",
							"name": "",
							"type": "uint256"
						}
					],
					"stateMutability": "view",
					"type": "function"
				},
				{
					"inputs": [],
					"name": "numWords",
					"outputs": [
						{
							"internalType": "uint32",
							"name": "",
							"type": "uint32"
						}
					],
					"stateMutability": "view",
					"type": "function"
				},
				{
					"inputs": [],
					"name": "owner",
					"outputs": [
						{
							"internalType": "address",
							"name": "",
							"type": "address"
						}
					],
					"stateMutability": "view",
					"type": "function"
				},
				{
					"inputs": [],
					"name": "randomGenerated",
					"outputs": [
						{
							"internalType": "bool",
							"name": "",
							"type": "bool"
						}
					],
					"stateMutability": "view",
					"type": "function"
				},
				{
					"inputs": [],
					"name": "randomResult",
					"outputs": [
						{
							"internalType": "uint256",
							"name": "",
							"type": "uint256"
						}
					],
					"stateMutability": "view",
					"type": "function"
				},
				{
					"inputs": [
						{
							"internalType": "uint256",
							"name": "requestId",
							"type": "uint256"
						},
						{
							"internalType": "uint256[]",
							"name": "randomWords",
							"type": "uint256[]"
						}
					],
					"name": "rawFulfillRandomWords",
					"outputs": [],
					"stateMutability": "nonpayable",
					"type": "function"
				},
				{
					"inputs": [],
					"name": "requestConfirmations",
					"outputs": [
						{
							"internalType": "uint16",
							"name": "",
							"type": "uint16"
						}
					],
					"stateMutability": "view",
					"type": "function"
				},
				{
					"inputs": [
						{
							"internalType": "uint256",
							"name": "_maxRange",
							"type": "uint256"
						}
					],
					"name": "requestRandomNumber",
					"outputs": [],
					"stateMutability": "nonpayable",
					"type": "function"
				},
				{
					"inputs": [],
					"name": "s_vrfCoordinator",
					"outputs": [
						{
							"internalType": "contract IVRFCoordinatorV2Plus",
							"name": "",
							"type": "address"
						}
					],
					"stateMutability": "view",
					"type": "function"
				},
				{
					"inputs": [
						{
							"internalType": "address",
							"name": "_vrfCoordinator",
							"type": "address"
						}
					],
					"name": "setCoordinator",
					"outputs": [],
					"stateMutability": "nonpayable",
					"type": "function"
				},
				{
					"inputs": [],
					"name": "subscriptionId",
					"outputs": [
						{
							"internalType": "uint256",
							"name": "",
							"type": "uint256"
						}
					],
					"stateMutability": "view",
					"type": "function"
				},
				{
					"inputs": [],
					"name": "totalDeposited",
					"outputs": [
						{
							"internalType": "uint256",
							"name": "",
							"type": "uint256"
						}
					],
					"stateMutability": "view",
					"type": "function"
				},
				{
					"inputs": [],
					"name": "totalLimit",
					"outputs": [
						{
							"internalType": "uint256",
							"name": "",
							"type": "uint256"
						}
					],
					"stateMutability": "view",
					"type": "function"
				},
				{
					"inputs": [
						{
							"internalType": "address",
							"name": "to",
							"type": "address"
						}
					],
					"name": "transferOwnership",
					"outputs": [],
					"stateMutability": "nonpayable",
					"type": "function"
				},
				{
					"inputs": [],
					"name": "unlockDate",
					"outputs": [
						{
							"internalType": "uint256",
							"name": "",
							"type": "uint256"
						}
					],
					"stateMutability": "view",
					"type": "function"
				},
				{
					"inputs": [],
					"name": "vrfRequest",
					"outputs": [
						{
							"internalType": "bytes32",
							"name": "keyHash",
							"type": "bytes32"
						},
						{
							"internalType": "uint256",
							"name": "subId",
							"type": "uint256"
						},
						{
							"internalType": "uint16",
							"name": "requestConfirmations",
							"type": "uint16"
						},
						{
							"internalType": "uint32",
							"name": "callbackGasLimit",
							"type": "uint32"
						},
						{
							"internalType": "uint32",
							"name": "numWords",
							"type": "uint32"
						},
						{
							"internalType": "bytes",
							"name": "extraArgs",
							"type": "bytes"
						}
					],
					"stateMutability": "view",
					"type": "function"
				},
				{
					"inputs": [
						{
							"internalType": "address payable",
							"name": "_to",
							"type": "address"
						},
						{
							"internalType": "uint256",
							"name": "_amount",
							"type": "uint256"
						}
					],
					"name": "withdraw",
					"outputs": [],
					"stateMutability": "nonpayable",
					"type": "function"
				},
				{
					"inputs": [],
					"name": "withdrawalCooldown",
					"outputs": [
						{
							"internalType": "uint256",
							"name": "",
							"type": "uint256"
						}
					],
					"stateMutability": "view",
					"type": "function"
				},
				{
					"stateMutability": "payable",
					"type": "receive"
				}
			],
			"devdoc": {
				"kind": "dev",
				"methods": {},
				"version": 1
			},
			"evm": {
				"assembly": "    /* \"raffle.sol\":626:5261  contract LimitReceiver is VRFConsumerBaseV2Plus, ReentrancyGuard {... */\n  mstore(0x40, 0x80)\n    /* \"raffle.sol\":852:858  1 days */\n  0x015180\n    /* \"raffle.sol\":819:858  uint public withdrawalCooldown = 1 days */\n  0x07\n  sstore\n    /* \"raffle.sol\":1231:1237  500000 */\n  0x07a120\n    /* \"raffle.sol\":1198:1237  uint32 public callbackGasLimit = 500000 */\n  0x13\n  exp(0x0100, 0x00)\n  dup2\n  sload\n  dup2\n  0xffffffff\n  mul\n  not\n  and\n  swap1\n  dup4\n  0xffffffff\n  and\n  mul\n  or\n  swap1\n  sstore\n  pop\n    /* \"raffle.sol\":1280:1281  3 */\n  0x03\n    /* \"raffle.sol\":1243:1281  uint16 public requestConfirmations = 3 */\n  0x13\n  exp(0x0100, 0x04)\n  dup2\n  sload\n  dup2\n  0xffff\n  mul\n  not\n  and\n  swap1\n  dup4\n  0xffff\n  and\n  mul\n  or\n  swap1\n  sstore\n  pop\n    /* \"raffle.sol\":1312:1313  1 */\n  0x01\n    /* \"raffle.sol\":1287:1313  uint32 public numWords = 1 */\n  0x13\n  exp(0x0100, 0x06)\n  dup2\n  sload\n  dup2\n  0xffffffff\n  mul\n  not\n  and\n  swap1\n  dup4\n  0xffffffff\n  and\n  mul\n  or\n  swap1\n  sstore\n  pop\n    /* \"raffle.sol\":1956:2544  constructor(... */\n  callvalue\n  dup1\n  iszero\n  tag_1\n  jumpi\n  0x00\n  dup1\n  revert\ntag_1:\n  pop\n  mload(0x40)\n  sub(codesize, bytecodeSize)\n  dup1\n  bytecodeSize\n  dup4\n  codecopy\n  dup2\n  dup2\n  add\n  0x40\n  mstore\n  dup2\n  add\n  swap1\n  tag_2\n  swap2\n  swap1\n  tag_3\n  jump\t// in\ntag_2:\n    /* \"raffle.sol\":2167:2182  _vrfCoordinator */\n  dup3\n    /* \"https://github.com/smartcontractkit/chainlink/blob/develop/contracts/src/v0.8/vrf/dev/VRFConsumerBaseV2Plus.sol\":6254:6264  msg.sender */\n  caller\n    /* \"https://github.com/smartcontractkit/chainlink/blob/develop/contracts/src/v0.8/shared/access/ConfirmedOwner.sol\":355:363  newOwner */\n  dup1\n    /* \"https://github.com/smartcontractkit/chainlink/blob/develop/contracts/src/v0.8/shared/access/ConfirmedOwner.sol\":373:374  0 */\n  0x00\n    /* \"https://github.com/smartcontractkit/chainlink/blob/develop/contracts/src/v0.8/shared/access/ConfirmedOwnerWithProposal.sol\":618:619  0 */\n  dup1\n    /* \"https://github.com/smartcontractkit/chainlink/blob/develop/contracts/src/v0.8/shared/access/ConfirmedOwnerWithProposal.sol\":598:620  newOwner != address(0) */\n  0xffffffffffffffffffffffffffffffffffffffff\n  and\n    /* \"https://github.com/smartcontractkit/chainlink/blob/develop/contracts/src/v0.8/shared/access/ConfirmedOwnerWithProposal.sol\":598:606  newOwner */\n  dup3\n    /* \"https://github.com/smartcontractkit/chainlink/blob/develop/contracts/src/v0.8/shared/access/ConfirmedOwnerWithProposal.sol\":598:620  newOwner != address(0) */\n  0xffffffffffffffffffffffffffffffffffffffff\n  and\n  sub\n    /* \"https://github.com/smartcontractkit/chainlink/blob/develop/contracts/src/v0.8/shared/access/ConfirmedOwnerWithProposal.sol\":590:649  require(newOwner != address(0), \"Cannot set owner to zero\") */\n  tag_10\n  jumpi\n  mload(0x40)\n  0x08c379a000000000000000000000000000000000000000000000000000000000\n  dup2\n  mstore\n  0x04\n  add\n  tag_11\n  swap1\n  tag_12\n  jump\t// in\ntag_11:\n  mload(0x40)\n  dup1\n  swap2\n  sub\n  swap1\n  revert\ntag_10:\n    /* \"https://github.com/smartcontractkit/chainlink/blob/develop/contracts/src/v0.8/shared/access/ConfirmedOwnerWithProposal.sol\":666:674  newOwner */\n  dup2\n    /* \"https://github.com/smartcontractkit/chainlink/blob/develop/contracts/src/v0.8/shared/access/ConfirmedOwnerWithProposal.sol\":656:663  s_owner */\n  0x00\n  dup1\n    /* \"https://github.com/smartcontractkit/chainlink/blob/develop/contracts/src/v0.8/shared/access/ConfirmedOwnerWithProposal.sol\":656:674  s_owner = newOwner */\n  0x0100\n  exp\n  dup2\n  sload\n  dup2\n  0xffffffffffffffffffffffffffffffffffffffff\n  mul\n  not\n  and\n  swap1\n  dup4\n  0xffffffffffffffffffffffffffffffffffffffff\n  and\n  mul\n  or\n  swap1\n  sstore\n  pop\n    /* \"https://github.com/smartcontractkit/chainlink/blob/develop/contracts/src/v0.8/shared/access/ConfirmedOwnerWithProposal.sol\":708:709  0 */\n  0x00\n    /* \"https://github.com/smartcontractkit/chainlink/blob/develop/contracts/src/v0.8/shared/access/ConfirmedOwnerWithProposal.sol\":684:710  pendingOwner != address(0) */\n  0xffffffffffffffffffffffffffffffffffffffff\n  and\n    /* \"https://github.com/smartcontractkit/chainlink/blob/develop/contracts/src/v0.8/shared/access/ConfirmedOwnerWithProposal.sol\":684:696  pendingOwner */\n  dup2\n    /* \"https://github.com/smartcontractkit/chainlink/blob/develop/contracts/src/v0.8/shared/access/ConfirmedOwnerWithProposal.sol\":684:710  pendingOwner != address(0) */\n  0xffffffffffffffffffffffffffffffffffffffff\n  and\n  eq\n    /* \"https://github.com/smartcontractkit/chainlink/blob/develop/contracts/src/v0.8/shared/access/ConfirmedOwnerWithProposal.sol\":680:759  if (pendingOwner != address(0)) {... */\n  tag_13\n  jumpi\n    /* \"https://github.com/smartcontractkit/chainlink/blob/develop/contracts/src/v0.8/shared/access/ConfirmedOwnerWithProposal.sol\":720:752  _transferOwnership(pendingOwner) */\n  tag_14\n    /* \"https://github.com/smartcontractkit/chainlink/blob/develop/contracts/src/v0.8/shared/access/ConfirmedOwnerWithProposal.sol\":739:751  pendingOwner */\n  dup2\n    /* \"https://github.com/smartcontractkit/chainlink/blob/develop/contracts/src/v0.8/shared/access/ConfirmedOwnerWithProposal.sol\":720:738  _transferOwnership */\n  shl(0x20, tag_15)\n    /* \"https://github.com/smartcontractkit/chainlink/blob/develop/contracts/src/v0.8/shared/access/ConfirmedOwnerWithProposal.sol\":720:752  _transferOwnership(pendingOwner) */\n  0x20\n  shr\n  jump\t// in\ntag_14:\n    /* \"https://github.com/smartcontractkit/chainlink/blob/develop/contracts/src/v0.8/shared/access/ConfirmedOwnerWithProposal.sol\":680:759  if (pendingOwner != address(0)) {... */\ntag_13:\n    /* \"https://github.com/smartcontractkit/chainlink/blob/develop/contracts/src/v0.8/shared/access/ConfirmedOwnerWithProposal.sol\":481:763  constructor(address newOwner, address pendingOwner) {... */\n  pop\n  pop\n    /* \"https://github.com/smartcontractkit/chainlink/blob/develop/contracts/src/v0.8/shared/access/ConfirmedOwner.sol\":298:379  constructor(address newOwner) ConfirmedOwnerWithProposal(newOwner, address(0)) {} */\n  pop\n    /* \"https://github.com/smartcontractkit/chainlink/blob/develop/contracts/src/v0.8/vrf/dev/VRFConsumerBaseV2Plus.sol\":6303:6304  0 */\n  0x00\n    /* \"https://github.com/smartcontractkit/chainlink/blob/develop/contracts/src/v0.8/vrf/dev/VRFConsumerBaseV2Plus.sol\":6276:6305  _vrfCoordinator == address(0) */\n  0xffffffffffffffffffffffffffffffffffffffff\n  and\n    /* \"https://github.com/smartcontractkit/chainlink/blob/develop/contracts/src/v0.8/vrf/dev/VRFConsumerBaseV2Plus.sol\":6276:6291  _vrfCoordinator */\n  dup2\n    /* \"https://github.com/smartcontractkit/chainlink/blob/develop/contracts/src/v0.8/vrf/dev/VRFConsumerBaseV2Plus.sol\":6276:6305  _vrfCoordinator == address(0) */\n  0xffffffffffffffffffffffffffffffffffffffff\n  and\n  sub\n    /* \"https://github.com/smartcontractkit/chainlink/blob/develop/contracts/src/v0.8/vrf/dev/VRFConsumerBaseV2Plus.sol\":6272:6342  if (_vrfCoordinator == address(0)) {... */\n  tag_18\n  jumpi\n    /* \"https://github.com/smartcontractkit/chainlink/blob/develop/contracts/src/v0.8/vrf/dev/VRFConsumerBaseV2Plus.sol\":6322:6335  ZeroAddress() */\n  mload(0x40)\n  0xd92e233d00000000000000000000000000000000000000000000000000000000\n  dup2\n  mstore\n  0x04\n  add\n  mload(0x40)\n  dup1\n  swap2\n  sub\n  swap1\n  revert\n    /* \"https://github.com/smartcontractkit/chainlink/blob/develop/contracts/src/v0.8/vrf/dev/VRFConsumerBaseV2Plus.sol\":6272:6342  if (_vrfCoordinator == address(0)) {... */\ntag_18:\n    /* \"https://github.com/smartcontractkit/chainlink/blob/develop/contracts/src/v0.8/vrf/dev/VRFConsumerBaseV2Plus.sol\":6388:6403  _vrfCoordinator */\n  dup1\n    /* \"https://github.com/smartcontractkit/chainlink/blob/develop/contracts/src/v0.8/vrf/dev/VRFConsumerBaseV2Plus.sol\":6347:6363  s_vrfCoordinator */\n  0x02\n  0x00\n    /* \"https://github.com/smartcontractkit/chainlink/blob/develop/contracts/src/v0.8/vrf/dev/VRFConsumerBaseV2Plus.sol\":6347:6404  s_vrfCoordinator = IVRFCoordinatorV2Plus(_vrfCoordinator) */\n  0x0100\n  exp\n  dup2\n  sload\n  dup2\n  0xffffffffffffffffffffffffffffffffffffffff\n  mul\n  not\n  and\n  swap1\n  dup4\n  0xffffffffffffffffffffffffffffffffffffffff\n  and\n  mul\n  or\n  swap1\n  sstore\n  pop\n    /* \"https://github.com/smartcontractkit/chainlink/blob/develop/contracts/src/v0.8/vrf/dev/VRFConsumerBaseV2Plus.sol\":6202:6409  constructor(address _vrfCoordinator) ConfirmedOwner(msg.sender) {... */\n  pop\n    /* \"@openzeppelin/contracts/security/ReentrancyGuard.sol\":1716:1717  1 */\n  0x01\n    /* \"@openzeppelin/contracts/security/ReentrancyGuard.sol\":1821:1828  _status */\n  0x03\n    /* \"@openzeppelin/contracts/security/ReentrancyGuard.sol\":1821:1843  _status = _NOT_ENTERED */\n  dup2\n  swap1\n  sstore\n  pop\n    /* \"raffle.sol\":2230:2245  _vrfCoordinator */\n  dup3\n    /* \"raffle.sol\":2194:2205  COORDINATOR */\n  0x13\n  0x0a\n    /* \"raffle.sol\":2194:2246  COORDINATOR = IVRFCoordinatorV2Plus(_vrfCoordinator) */\n  0x0100\n  exp\n  dup2\n  sload\n  dup2\n  0xffffffffffffffffffffffffffffffffffffffff\n  mul\n  not\n  and\n  swap1\n  dup4\n  0xffffffffffffffffffffffffffffffffffffffff\n  and\n  mul\n  or\n  swap1\n  sstore\n  pop\n    /* \"raffle.sol\":2302:2314  _exactAmount */\n  dup6\n    /* \"raffle.sol\":2288:2299  exactAmount */\n  0x04\n    /* \"raffle.sol\":2288:2314  exactAmount = _exactAmount */\n  dup2\n  swap1\n  sstore\n  pop\n    /* \"raffle.sol\":2337:2348  _totalLimit */\n  dup5\n    /* \"raffle.sol\":2324:2334  totalLimit */\n  0x05\n    /* \"raffle.sol\":2324:2348  totalLimit = _totalLimit */\n  dup2\n  swap1\n  sstore\n  pop\n    /* \"raffle.sol\":2371:2382  _unlockDate */\n  dup4\n    /* \"raffle.sol\":2358:2368  unlockDate */\n  0x09\n    /* \"raffle.sol\":2358:2382  unlockDate = _unlockDate */\n  dup2\n  swap1\n  sstore\n  pop\n    /* \"raffle.sol\":2409:2424  _subscriptionId */\n  dup1\n    /* \"raffle.sol\":2392:2406  subscriptionId */\n  0x0f\n    /* \"raffle.sol\":2392:2424  subscriptionId = _subscriptionId */\n  dup2\n  swap1\n  sstore\n  pop\n    /* \"raffle.sol\":2444:2452  _keyHash */\n  dup2\n    /* \"raffle.sol\":2434:2441  keyHash */\n  0x12\n    /* \"raffle.sol\":2434:2452  keyHash = _keyHash */\n  dup2\n  swap1\n  sstore\n  pop\n    /* \"raffle.sol\":2480:2485  false */\n  0x00\n    /* \"raffle.sol\":2462:2477  randomGenerated */\n  0x0a\n  0x00\n    /* \"raffle.sol\":2462:2485  randomGenerated = false */\n  0x0100\n  exp\n  dup2\n  sload\n  dup2\n  0xff\n  mul\n  not\n  and\n  swap1\n  dup4\n  iszero\n  iszero\n  mul\n  or\n  swap1\n  sstore\n  pop\n    /* \"raffle.sol\":1956:2544  constructor(... */\n  pop\n  pop\n  pop\n  pop\n  pop\n  pop\n    /* \"raffle.sol\":626:5261  contract LimitReceiver is VRFConsumerBaseV2Plus, ReentrancyGuard {... */\n  jump(tag_21)\n    /* \"https://github.com/smartcontractkit/chainlink/blob/develop/contracts/src/v0.8/shared/access/ConfirmedOwnerWithProposal.sol\":1536:1775  function _transferOwnership(address to) private {... */\ntag_15:\n    /* \"https://github.com/smartcontractkit/chainlink/blob/develop/contracts/src/v0.8/shared/access/ConfirmedOwnerWithProposal.sol\":1655:1665  msg.sender */\n  caller\n    /* \"https://github.com/smartcontractkit/chainlink/blob/develop/contracts/src/v0.8/shared/access/ConfirmedOwnerWithProposal.sol\":1649:1665  to != msg.sender */\n  0xffffffffffffffffffffffffffffffffffffffff\n  and\n    /* \"https://github.com/smartcontractkit/chainlink/blob/develop/contracts/src/v0.8/shared/access/ConfirmedOwnerWithProposal.sol\":1649:1651  to */\n  dup2\n    /* \"https://github.com/smartcontractkit/chainlink/blob/develop/contracts/src/v0.8/shared/access/ConfirmedOwnerWithProposal.sol\":1649:1665  to != msg.sender */\n  0xffffffffffffffffffffffffffffffffffffffff\n  and\n  sub\n    /* \"https://github.com/smartcontractkit/chainlink/blob/develop/contracts/src/v0.8/shared/access/ConfirmedOwnerWithProposal.sol\":1641:1693  require(to != msg.sender, \"Cannot transfer to self\") */\n  tag_23\n  jumpi\n  mload(0x40)\n  0x08c379a000000000000000000000000000000000000000000000000000000000\n  dup2\n  mstore\n  0x04\n  add\n  tag_24\n  swap1\n  tag_25\n  jump\t// in\ntag_24:\n  mload(0x40)\n  dup1\n  swap2\n  sub\n  swap1\n  revert\ntag_23:\n    /* \"https://github.com/smartcontractkit/chainlink/blob/develop/contracts/src/v0.8/shared/access/ConfirmedOwnerWithProposal.sol\":1717:1719  to */\n  dup1\n    /* \"https://github.com/smartcontractkit/chainlink/blob/develop/contracts/src/v0.8/shared/access/ConfirmedOwnerWithProposal.sol\":1700:1714  s_pendingOwner */\n  0x01\n  0x00\n    /* \"https://github.com/smartcontractkit/chainlink/blob/develop/contracts/src/v0.8/shared/access/ConfirmedOwnerWithProposal.sol\":1700:1719  s_pendingOwner = to */\n  0x0100\n  exp\n  dup2\n  sload\n  dup2\n  0xffffffffffffffffffffffffffffffffffffffff\n  mul\n  not\n  and\n  swap1\n  dup4\n  0xffffffffffffffffffffffffffffffffffffffff\n  and\n  mul\n  or\n  swap1\n  sstore\n  pop\n    /* \"https://github.com/smartcontractkit/chainlink/blob/develop/contracts/src/v0.8/shared/access/ConfirmedOwnerWithProposal.sol\":1767:1769  to */\n  dup1\n    /* \"https://github.com/smartcontractkit/chainlink/blob/develop/contracts/src/v0.8/shared/access/ConfirmedOwnerWithProposal.sol\":1731:1770  OwnershipTransferRequested(s_owner, to) */\n  0xffffffffffffffffffffffffffffffffffffffff\n  and\n    /* \"https://github.com/smartcontractkit/chainlink/blob/develop/contracts/src/v0.8/shared/access/ConfirmedOwnerWithProposal.sol\":1758:1765  s_owner */\n  0x00\n  dup1\n  sload\n  swap1\n  0x0100\n  exp\n  swap1\n  div\n  0xffffffffffffffffffffffffffffffffffffffff\n  and\n    /* \"https://github.com/smartcontractkit/chainlink/blob/develop/contracts/src/v0.8/shared/access/ConfirmedOwnerWithProposal.sol\":1731:1770  OwnershipTransferRequested(s_owner, to) */\n  0xffffffffffffffffffffffffffffffffffffffff\n  and\n  0xed8889f560326eb138920d842192f0eb3dd22b4f139c87a2c57538e05bae1278\n  mload(0x40)\n  mload(0x40)\n  dup1\n  swap2\n  sub\n  swap1\n  log3\n    /* \"https://github.com/smartcontractkit/chainlink/blob/develop/contracts/src/v0.8/shared/access/ConfirmedOwnerWithProposal.sol\":1536:1775  function _transferOwnership(address to) private {... */\n  pop\n  jump\t// out\n    /* \"#utility.yul\":88:205   */\ntag_27:\n    /* \"#utility.yul\":197:198   */\n  0x00\n    /* \"#utility.yul\":194:195   */\n  dup1\n    /* \"#utility.yul\":187:199   */\n  revert\n    /* \"#utility.yul\":334:411   */\ntag_29:\n    /* \"#utility.yul\":371:378   */\n  0x00\n    /* \"#utility.yul\":400:405   */\n  dup2\n    /* \"#utility.yul\":389:405   */\n  swap1\n  pop\n    /* \"#utility.yul\":334:411   */\n  swap2\n  swap1\n  pop\n  jump\t// out\n    /* \"#utility.yul\":417:539   */\ntag_30:\n    /* \"#utility.yul\":490:514   */\n  tag_50\n    /* \"#utility.yul\":508:513   */\n  dup2\n    /* \"#utility.yul\":490:514   */\n  tag_29\n  jump\t// in\ntag_50:\n    /* \"#utility.yul\":483:488   */\n  dup2\n    /* \"#utility.yul\":480:515   */\n  eq\n    /* \"#utility.yul\":470:533   */\n  tag_51\n  jumpi\n    /* \"#utility.yul\":529:530   */\n  0x00\n    /* \"#utility.yul\":526:527   */\n  dup1\n    /* \"#utility.yul\":519:531   */\n  revert\n    /* \"#utility.yul\":470:533   */\ntag_51:\n    /* \"#utility.yul\":417:539   */\n  pop\n  jump\t// out\n    /* \"#utility.yul\":545:688   */\ntag_31:\n    /* \"#utility.yul\":602:607   */\n  0x00\n    /* \"#utility.yul\":633:639   */\n  dup2\n    /* \"#utility.yul\":627:640   */\n  mload\n    /* \"#utility.yul\":618:640   */\n  swap1\n  pop\n    /* \"#utility.yul\":649:682   */\n  tag_53\n    /* \"#utility.yul\":676:681   */\n  dup2\n    /* \"#utility.yul\":649:682   */\n  tag_30\n  jump\t// in\ntag_53:\n    /* \"#utility.yul\":545:688   */\n  swap3\n  swap2\n  pop\n  pop\n  jump\t// out\n    /* \"#utility.yul\":694:820   */\ntag_32:\n    /* \"#utility.yul\":731:738   */\n  0x00\n    /* \"#utility.yul\":771:813   */\n  0xffffffffffffffffffffffffffffffffffffffff\n    /* \"#utility.yul\":764:769   */\n  dup3\n    /* \"#utility.yul\":760:814   */\n  and\n    /* \"#utility.yul\":749:814   */\n  swap1\n  pop\n    /* \"#utility.yul\":694:820   */\n  swap2\n  swap1\n  pop\n  jump\t// out\n    /* \"#utility.yul\":826:922   */\ntag_33:\n    /* \"#utility.yul\":863:870   */\n  0x00\n    /* \"#utility.yul\":892:916   */\n  tag_56\n    /* \"#utility.yul\":910:915   */\n  dup3\n    /* \"#utility.yul\":892:916   */\n  tag_32\n  jump\t// in\ntag_56:\n    /* \"#utility.yul\":881:916   */\n  swap1\n  pop\n    /* \"#utility.yul\":826:922   */\n  swap2\n  swap1\n  pop\n  jump\t// out\n    /* \"#utility.yul\":928:1050   */\ntag_34:\n    /* \"#utility.yul\":1001:1025   */\n  tag_58\n    /* \"#utility.yul\":1019:1024   */\n  dup2\n    /* \"#utility.yul\":1001:1025   */\n  tag_33\n  jump\t// in\ntag_58:\n    /* \"#utility.yul\":994:999   */\n  dup2\n    /* \"#utility.yul\":991:1026   */\n  eq\n    /* \"#utility.yul\":981:1044   */\n  tag_59\n  jumpi\n    /* \"#utility.yul\":1040:1041   */\n  0x00\n    /* \"#utility.yul\":1037:1038   */\n  dup1\n    /* \"#utility.yul\":1030:1042   */\n  revert\n    /* \"#utility.yul\":981:1044   */\ntag_59:\n    /* \"#utility.yul\":928:1050   */\n  pop\n  jump\t// out\n    /* \"#utility.yul\":1056:1199   */\ntag_35:\n    /* \"#utility.yul\":1113:1118   */\n  0x00\n    /* \"#utility.yul\":1144:1150   */\n  dup2\n    /* \"#utility.yul\":1138:1151   */\n  mload\n    /* \"#utility.yul\":1129:1151   */\n  swap1\n  pop\n    /* \"#utility.yul\":1160:1193   */\n  tag_61\n    /* \"#utility.yul\":1187:1192   */\n  dup2\n    /* \"#utility.yul\":1160:1193   */\n  tag_34\n  jump\t// in\ntag_61:\n    /* \"#utility.yul\":1056:1199   */\n  swap3\n  swap2\n  pop\n  pop\n  jump\t// out\n    /* \"#utility.yul\":1205:1282   */\ntag_36:\n    /* \"#utility.yul\":1242:1249   */\n  0x00\n    /* \"#utility.yul\":1271:1276   */\n  dup2\n    /* \"#utility.yul\":1260:1276   */\n  swap1\n  pop\n    /* \"#utility.yul\":1205:1282   */\n  swap2\n  swap1\n  pop\n  jump\t// out\n    /* \"#utility.yul\":1288:1410   */\ntag_37:\n    /* \"#utility.yul\":1361:1385   */\n  tag_64\n    /* \"#utility.yul\":1379:1384   */\n  dup2\n    /* \"#utility.yul\":1361:1385   */\n  tag_36\n  jump\t// in\ntag_64:\n    /* \"#utility.yul\":1354:1359   */\n  dup2\n    /* \"#utility.yul\":1351:1386   */\n  eq\n    /* \"#utility.yul\":1341:1404   */\n  tag_65\n  jumpi\n    /* \"#utility.yul\":1400:1401   */\n  0x00\n    /* \"#utility.yul\":1397:1398   */\n  dup1\n    /* \"#utility.yul\":1390:1402   */\n  revert\n    /* \"#utility.yul\":1341:1404   */\ntag_65:\n    /* \"#utility.yul\":1288:1410   */\n  pop\n  jump\t// out\n    /* \"#utility.yul\":1416:1559   */\ntag_38:\n    /* \"#utility.yul\":1473:1478   */\n  0x00\n    /* \"#utility.yul\":1504:1510   */\n  dup2\n    /* \"#utility.yul\":1498:1511   */\n  mload\n    /* \"#utility.yul\":1489:1511   */\n  swap1\n  pop\n    /* \"#utility.yul\":1520:1553   */\n  tag_67\n    /* \"#utility.yul\":1547:1552   */\n  dup2\n    /* \"#utility.yul\":1520:1553   */\n  tag_37\n  jump\t// in\ntag_67:\n    /* \"#utility.yul\":1416:1559   */\n  swap3\n  swap2\n  pop\n  pop\n  jump\t// out\n    /* \"#utility.yul\":1565:2699   */\ntag_3:\n    /* \"#utility.yul\":1680:1686   */\n  0x00\n    /* \"#utility.yul\":1688:1694   */\n  dup1\n    /* \"#utility.yul\":1696:1702   */\n  0x00\n    /* \"#utility.yul\":1704:1710   */\n  dup1\n    /* \"#utility.yul\":1712:1718   */\n  0x00\n    /* \"#utility.yul\":1720:1726   */\n  dup1\n    /* \"#utility.yul\":1769:1772   */\n  0xc0\n    /* \"#utility.yul\":1757:1766   */\n  dup8\n    /* \"#utility.yul\":1748:1755   */\n  dup10\n    /* \"#utility.yul\":1744:1767   */\n  sub\n    /* \"#utility.yul\":1740:1773   */\n  slt\n    /* \"#utility.yul\":1737:1857   */\n  iszero\n  tag_69\n  jumpi\n    /* \"#utility.yul\":1776:1855   */\n  tag_70\n  tag_27\n  jump\t// in\ntag_70:\n    /* \"#utility.yul\":1737:1857   */\ntag_69:\n    /* \"#utility.yul\":1896:1897   */\n  0x00\n    /* \"#utility.yul\":1921:1985   */\n  tag_71\n    /* \"#utility.yul\":1977:1984   */\n  dup10\n    /* \"#utility.yul\":1968:1974   */\n  dup3\n    /* \"#utility.yul\":1957:1966   */\n  dup11\n    /* \"#utility.yul\":1953:1975   */\n  add\n    /* \"#utility.yul\":1921:1985   */\n  tag_31\n  jump\t// in\ntag_71:\n    /* \"#utility.yul\":1911:1985   */\n  swap7\n  pop\n    /* \"#utility.yul\":1867:1995   */\n  pop\n    /* \"#utility.yul\":2034:2036   */\n  0x20\n    /* \"#utility.yul\":2060:2124   */\n  tag_72\n    /* \"#utility.yul\":2116:2123   */\n  dup10\n    /* \"#utility.yul\":2107:2113   */\n  dup3\n    /* \"#utility.yul\":2096:2105   */\n  dup11\n    /* \"#utility.yul\":2092:2114   */\n  add\n    /* \"#utility.yul\":2060:2124   */\n  tag_31\n  jump\t// in\ntag_72:\n    /* \"#utility.yul\":2050:2124   */\n  swap6\n  pop\n    /* \"#utility.yul\":2005:2134   */\n  pop\n    /* \"#utility.yul\":2173:2175   */\n  0x40\n    /* \"#utility.yul\":2199:2263   */\n  tag_73\n    /* \"#utility.yul\":2255:2262   */\n  dup10\n    /* \"#utility.yul\":2246:2252   */\n  dup3\n    /* \"#utility.yul\":2235:2244   */\n  dup11\n    /* \"#utility.yul\":2231:2253   */\n  add\n    /* \"#utility.yul\":2199:2263   */\n  tag_31\n  jump\t// in\ntag_73:\n    /* \"#utility.yul\":2189:2263   */\n  swap5\n  pop\n    /* \"#utility.yul\":2144:2273   */\n  pop\n    /* \"#utility.yul\":2312:2314   */\n  0x60\n    /* \"#utility.yul\":2338:2402   */\n  tag_74\n    /* \"#utility.yul\":2394:2401   */\n  dup10\n    /* \"#utility.yul\":2385:2391   */\n  dup3\n    /* \"#utility.yul\":2374:2383   */\n  dup11\n    /* \"#utility.yul\":2370:2392   */\n  add\n    /* \"#utility.yul\":2338:2402   */\n  tag_35\n  jump\t// in\ntag_74:\n    /* \"#utility.yul\":2328:2402   */\n  swap4\n  pop\n    /* \"#utility.yul\":2283:2412   */\n  pop\n    /* \"#utility.yul\":2451:2454   */\n  0x80\n    /* \"#utility.yul\":2478:2542   */\n  tag_75\n    /* \"#utility.yul\":2534:2541   */\n  dup10\n    /* \"#utility.yul\":2525:2531   */\n  dup3\n    /* \"#utility.yul\":2514:2523   */\n  dup11\n    /* \"#utility.yul\":2510:2532   */\n  add\n    /* \"#utility.yul\":2478:2542   */\n  tag_38\n  jump\t// in\ntag_75:\n    /* \"#utility.yul\":2468:2542   */\n  swap3\n  pop\n    /* \"#utility.yul\":2422:2552   */\n  pop\n    /* \"#utility.yul\":2591:2594   */\n  0xa0\n    /* \"#utility.yul\":2618:2682   */\n  tag_76\n    /* \"#utility.yul\":2674:2681   */\n  dup10\n    /* \"#utility.yul\":2665:2671   */\n  dup3\n    /* \"#utility.yul\":2654:2663   */\n  dup11\n    /* \"#utility.yul\":2650:2672   */\n  add\n    /* \"#utility.yul\":2618:2682   */\n  tag_31\n  jump\t// in\ntag_76:\n    /* \"#utility.yul\":2608:2682   */\n  swap2\n  pop\n    /* \"#utility.yul\":2562:2692   */\n  pop\n    /* \"#utility.yul\":1565:2699   */\n  swap3\n  swap6\n  pop\n  swap3\n  swap6\n  pop\n  swap3\n  swap6\n  jump\t// out\n    /* \"#utility.yul\":2705:2874   */\ntag_39:\n    /* \"#utility.yul\":2789:2800   */\n  0x00\n    /* \"#utility.yul\":2823:2829   */\n  dup3\n    /* \"#utility.yul\":2818:2821   */\n  dup3\n    /* \"#utility.yul\":2811:2830   */\n  mstore\n    /* \"#utility.yul\":2863:2867   */\n  0x20\n    /* \"#utility.yul\":2858:2861   */\n  dup3\n    /* \"#utility.yul\":2854:2868   */\n  add\n    /* \"#utility.yul\":2839:2868   */\n  swap1\n  pop\n    /* \"#utility.yul\":2705:2874   */\n  swap3\n  swap2\n  pop\n  pop\n  jump\t// out\n    /* \"#utility.yul\":2880:3054   */\ntag_40:\n    /* \"#utility.yul\":3020:3046   */\n  0x43616e6e6f7420736574206f776e657220746f207a65726f0000000000000000\n    /* \"#utility.yul\":3016:3017   */\n  0x00\n    /* \"#utility.yul\":3008:3014   */\n  dup3\n    /* \"#utility.yul\":3004:3018   */\n  add\n    /* \"#utility.yul\":2997:3047   */\n  mstore\n    /* \"#utility.yul\":2880:3054   */\n  pop\n  jump\t// out\n    /* \"#utility.yul\":3060:3426   */\ntag_41:\n    /* \"#utility.yul\":3202:3205   */\n  0x00\n    /* \"#utility.yul\":3223:3290   */\n  tag_80\n    /* \"#utility.yul\":3287:3289   */\n  0x18\n    /* \"#utility.yul\":3282:3285   */\n  dup4\n    /* \"#utility.yul\":3223:3290   */\n  tag_39\n  jump\t// in\ntag_80:\n    /* \"#utility.yul\":3216:3290   */\n  swap2\n  pop\n    /* \"#utility.yul\":3299:3392   */\n  tag_81\n    /* \"#utility.yul\":3388:3391   */\n  dup3\n    /* \"#utility.yul\":3299:3392   */\n  tag_40\n  jump\t// in\ntag_81:\n    /* \"#utility.yul\":3417:3419   */\n  0x20\n    /* \"#utility.yul\":3412:3415   */\n  dup3\n    /* \"#utility.yul\":3408:3420   */\n  add\n    /* \"#utility.yul\":3401:3420   */\n  swap1\n  pop\n    /* \"#utility.yul\":3060:3426   */\n  swap2\n  swap1\n  pop\n  jump\t// out\n    /* \"#utility.yul\":3432:3851   */\ntag_12:\n    /* \"#utility.yul\":3598:3602   */\n  0x00\n    /* \"#utility.yul\":3636:3638   */\n  0x20\n    /* \"#utility.yul\":3625:3634   */\n  dup3\n    /* \"#utility.yul\":3621:3639   */\n  add\n    /* \"#utility.yul\":3613:3639   */\n  swap1\n  pop\n    /* \"#utility.yul\":3685:3694   */\n  dup2\n    /* \"#utility.yul\":3679:3683   */\n  dup2\n    /* \"#utility.yul\":3675:3695   */\n  sub\n    /* \"#utility.yul\":3671:3672   */\n  0x00\n    /* \"#utility.yul\":3660:3669   */\n  dup4\n    /* \"#utility.yul\":3656:3673   */\n  add\n    /* \"#utility.yul\":3649:3696   */\n  mstore\n    /* \"#utility.yul\":3713:3844   */\n  tag_83\n    /* \"#utility.yul\":3839:3843   */\n  dup2\n    /* \"#utility.yul\":3713:3844   */\n  tag_41\n  jump\t// in\ntag_83:\n    /* \"#utility.yul\":3705:3844   */\n  swap1\n  pop\n    /* \"#utility.yul\":3432:3851   */\n  swap2\n  swap1\n  pop\n  jump\t// out\n    /* \"#utility.yul\":3857:4030   */\ntag_42:\n    /* \"#utility.yul\":3997:4022   */\n  0x43616e6e6f74207472616e7366657220746f2073656c66000000000000000000\n    /* \"#utility.yul\":3993:3994   */\n  0x00\n    /* \"#utility.yul\":3985:3991   */\n  dup3\n    /* \"#utility.yul\":3981:3995   */\n  add\n    /* \"#utility.yul\":3974:4023   */\n  mstore\n    /* \"#utility.yul\":3857:4030   */\n  pop\n  jump\t// out\n    /* \"#utility.yul\":4036:4402   */\ntag_43:\n    /* \"#utility.yul\":4178:4181   */\n  0x00\n    /* \"#utility.yul\":4199:4266   */\n  tag_86\n    /* \"#utility.yul\":4263:4265   */\n  0x17\n    /* \"#utility.yul\":4258:4261   */\n  dup4\n    /* \"#utility.yul\":4199:4266   */\n  tag_39\n  jump\t// in\ntag_86:\n    /* \"#utility.yul\":4192:4266   */\n  swap2\n  pop\n    /* \"#utility.yul\":4275:4368   */\n  tag_87\n    /* \"#utility.yul\":4364:4367   */\n  dup3\n    /* \"#utility.yul\":4275:4368   */\n  tag_42\n  jump\t// in\ntag_87:\n    /* \"#utility.yul\":4393:4395   */\n  0x20\n    /* \"#utility.yul\":4388:4391   */\n  dup3\n    /* \"#utility.yul\":4384:4396   */\n  add\n    /* \"#utility.yul\":4377:4396   */\n  swap1\n  pop\n    /* \"#utility.yul\":4036:4402   */\n  swap2\n  swap1\n  pop\n  jump\t// out\n    /* \"#utility.yul\":4408:4827   */\ntag_25:\n    /* \"#utility.yul\":4574:4578   */\n  0x00\n    /* \"#utility.yul\":4612:4614   */\n  0x20\n    /* \"#utility.yul\":4601:4610   */\n  dup3\n    /* \"#utility.yul\":4597:4615   */\n  add\n    /* \"#utility.yul\":4589:4615   */\n  swap1\n  pop\n    /* \"#utility.yul\":4661:4670   */\n  dup2\n    /* \"#utility.yul\":4655:4659   */\n  dup2\n    /* \"#utility.yul\":4651:4671   */\n  sub\n    /* \"#utility.yul\":4647:4648   */\n  0x00\n    /* \"#utility.yul\":4636:4645   */\n  dup4\n    /* \"#utility.yul\":4632:4649   */\n  add\n    /* \"#utility.yul\":4625:4672   */\n  mstore\n    /* \"#utility.yul\":4689:4820   */\n  tag_89\n    /* \"#utility.yul\":4815:4819   */\n  dup2\n    /* \"#utility.yul\":4689:4820   */\n  tag_43\n  jump\t// in\ntag_89:\n    /* \"#utility.yul\":4681:4820   */\n  swap1\n  pop\n    /* \"#utility.yul\":4408:4827   */\n  swap2\n  swap1\n  pop\n  jump\t// out\n    /* \"raffle.sol\":626:5261  contract LimitReceiver is VRFConsumerBaseV2Plus, ReentrancyGuard {... */\ntag_21:\n  dataSize(sub_0)\n  dup1\n  dataOffset(sub_0)\n  0x00\n  codecopy\n  0x00\n  return\nstop\n\nsub_0: assembly {\n        /* \"raffle.sol\":626:5261  contract LimitReceiver is VRFConsumerBaseV2Plus, ReentrancyGuard {... */\n      mstore(0x40, 0x80)\n      jumpi(tag_1, lt(calldatasize, 0x04))\n      shr(0xe0, calldataload(0x00))\n      dup1\n      0x8da5cb5b\n      gt\n      tag_29\n      jumpi\n      dup1\n      0xd6c89c60\n      gt\n      tag_30\n      jumpi\n      dup1\n      0xf2fde38b\n      gt\n      tag_31\n      jumpi\n      dup1\n      0xf2fde38b\n      eq\n      tag_25\n      jumpi\n      dup1\n      0xf3fef3a3\n      eq\n      tag_26\n      jumpi\n      dup1\n      0xfc7e286d\n      eq\n      tag_27\n      jumpi\n      dup1\n      0xff50abdc\n      eq\n      tag_28\n      jumpi\n      jump(tag_2)\n    tag_31:\n      dup1\n      0xd6c89c60\n      eq\n      tag_22\n      jumpi\n      dup1\n      0xe4b2fb79\n      eq\n      tag_23\n      jumpi\n      dup1\n      0xf2c16e6f\n      eq\n      tag_24\n      jumpi\n      jump(tag_2)\n    tag_30:\n      dup1\n      0x8da5cb5b\n      eq\n      tag_16\n      jumpi\n      dup1\n      0x8ea98117\n      eq\n      tag_17\n      jumpi\n      dup1\n      0x9eccacf6\n      eq\n      tag_18\n      jumpi\n      dup1\n      0xa36298c7\n      eq\n      tag_19\n      jumpi\n      dup1\n      0xb0fb162f\n      eq\n      tag_20\n      jumpi\n      dup1\n      0xb1eb96c9\n      eq\n      tag_21\n      jumpi\n      jump(tag_2)\n    tag_29:\n      dup1\n      0x42619f66\n      gt\n      tag_32\n      jumpi\n      dup1\n      0x79ba5097\n      gt\n      tag_33\n      jumpi\n      dup1\n      0x79ba5097\n      eq\n      tag_12\n      jumpi\n      dup1\n      0x7ccfd7fc\n      eq\n      tag_13\n      jumpi\n      dup1\n      0x8246a16e\n      eq\n      tag_14\n      jumpi\n      dup1\n      0x89ce16cc\n      eq\n      tag_15\n      jumpi\n      jump(tag_2)\n    tag_33:\n      dup1\n      0x42619f66\n      eq\n      tag_9\n      jumpi\n      dup1\n      0x61728f39\n      eq\n      tag_10\n      jumpi\n      dup1\n      0x69ac5721\n      eq\n      tag_11\n      jumpi\n      jump(tag_2)\n    tag_32:\n      dup1\n      0x09c1ba2e\n      eq\n      tag_3\n      jumpi\n      dup1\n      0x1fe543e3\n      eq\n      tag_4\n      jumpi\n      dup1\n      0x24f74697\n      eq\n      tag_5\n      jumpi\n      dup1\n      0x261a9ac9\n      eq\n      tag_6\n      jumpi\n      dup1\n      0x34a014dc\n      eq\n      tag_7\n      jumpi\n      dup1\n      0x3e23b145\n      eq\n      tag_8\n      jumpi\n      jump(tag_2)\n    tag_1:\n      jumpi(tag_2, calldatasize)\n        /* \"raffle.sol\":3801:3802  0 */\n      0x00\n        /* \"raffle.sol\":3789:3798  msg.value */\n      callvalue\n        /* \"raffle.sol\":3789:3802  msg.value > 0 */\n      gt\n        /* \"raffle.sol\":3781:3838  require(msg.value > 0, \"O valor deve ser maior que zero\") */\n      tag_36\n      jumpi\n      mload(0x40)\n      0x08c379a000000000000000000000000000000000000000000000000000000000\n      dup2\n      mstore\n      0x04\n      add\n      tag_37\n      swap1\n      tag_38\n      jump\t// in\n    tag_37:\n      mload(0x40)\n      dup1\n      swap2\n      sub\n      swap1\n      revert\n    tag_36:\n        /* \"raffle.sol\":3853:3865  hasDeposited */\n      0x16\n        /* \"raffle.sol\":3853:3877  hasDeposited[msg.sender] */\n      0x00\n        /* \"raffle.sol\":3866:3876  msg.sender */\n      caller\n        /* \"raffle.sol\":3853:3877  hasDeposited[msg.sender] */\n      0xffffffffffffffffffffffffffffffffffffffff\n      and\n      0xffffffffffffffffffffffffffffffffffffffff\n      and\n      dup2\n      mstore\n      0x20\n      add\n      swap1\n      dup2\n      mstore\n      0x20\n      add\n      0x00\n      keccak256\n      0x00\n      swap1\n      sload\n      swap1\n      0x0100\n      exp\n      swap1\n      div\n      0xff\n      and\n        /* \"raffle.sol\":3849:4078  if (hasDeposited[msg.sender]) {... */\n      iszero\n      tag_39\n      jumpi\n        /* \"raffle.sol\":3894:3906  bool success */\n      0x00\n        /* \"raffle.sol\":3912:3922  msg.sender */\n      caller\n        /* \"raffle.sol\":3912:3927  msg.sender.call */\n      0xffffffffffffffffffffffffffffffffffffffff\n      and\n        /* \"raffle.sol\":3935:3944  msg.value */\n      callvalue\n        /* \"raffle.sol\":3912:3949  msg.sender.call{value: msg.value}(\"\") */\n      mload(0x40)\n      tag_40\n      swap1\n      tag_41\n      jump\t// in\n    tag_40:\n      0x00\n      mload(0x40)\n      dup1\n      dup4\n      sub\n      dup2\n      dup6\n      dup8\n      gas\n      call\n      swap3\n      pop\n      pop\n      pop\n      returndatasize\n      dup1\n      0x00\n      dup2\n      eq\n      tag_44\n      jumpi\n      mload(0x40)\n      swap2\n      pop\n      and(add(returndatasize, 0x3f), not(0x1f))\n      dup3\n      add\n      0x40\n      mstore\n      returndatasize\n      dup3\n      mstore\n      returndatasize\n      0x00\n      0x20\n      dup5\n      add\n      returndatacopy\n      jump(tag_43)\n    tag_44:\n      0x60\n      swap2\n      pop\n    tag_43:\n      pop\n        /* \"raffle.sol\":3893:3949  (bool success, ) = msg.sender.call{value: msg.value}(\"\") */\n      pop\n      swap1\n      pop\n        /* \"raffle.sol\":3971:3978  success */\n      dup1\n        /* \"raffle.sol\":3963:3999  require(success, \"Reembolso falhou\") */\n      tag_45\n      jumpi\n      mload(0x40)\n      0x08c379a000000000000000000000000000000000000000000000000000000000\n      dup2\n      mstore\n      0x04\n      add\n      tag_46\n      swap1\n      tag_47\n      jump\t// in\n    tag_46:\n      mload(0x40)\n      dup1\n      swap2\n      sub\n      swap1\n      revert\n    tag_45:\n        /* \"raffle.sol\":4025:4035  msg.sender */\n      caller\n        /* \"raffle.sol\":4018:4047  Refund(msg.sender, msg.value) */\n      0xffffffffffffffffffffffffffffffffffffffff\n      and\n      0xbb28353e4598c3b9199101a66e0989549b659a59a54d2c27fbb183f1932c8e6d\n        /* \"raffle.sol\":4037:4046  msg.value */\n      callvalue\n        /* \"raffle.sol\":4018:4047  Refund(msg.sender, msg.value) */\n      mload(0x40)\n      tag_48\n      swap2\n      swap1\n      tag_49\n      jump\t// in\n    tag_48:\n      mload(0x40)\n      dup1\n      swap2\n      sub\n      swap1\n      log2\n        /* \"raffle.sol\":4061:4068  return; */\n      pop\n      jump(tag_35)\n        /* \"raffle.sol\":3849:4078  if (hasDeposited[msg.sender]) {... */\n    tag_39:\n        /* \"raffle.sol\":4105:4116  exactAmount */\n      sload(0x04)\n        /* \"raffle.sol\":4092:4101  msg.value */\n      callvalue\n        /* \"raffle.sol\":4092:4116  msg.value != exactAmount */\n      eq\n        /* \"raffle.sol\":4088:4317  if (msg.value != exactAmount) {... */\n      tag_50\n      jumpi\n        /* \"raffle.sol\":4133:4145  bool success */\n      0x00\n        /* \"raffle.sol\":4151:4161  msg.sender */\n      caller\n        /* \"raffle.sol\":4151:4166  msg.sender.call */\n      0xffffffffffffffffffffffffffffffffffffffff\n      and\n        /* \"raffle.sol\":4174:4183  msg.value */\n      callvalue\n        /* \"raffle.sol\":4151:4188  msg.sender.call{value: msg.value}(\"\") */\n      mload(0x40)\n      tag_51\n      swap1\n      tag_41\n      jump\t// in\n    tag_51:\n      0x00\n      mload(0x40)\n      dup1\n      dup4\n      sub\n      dup2\n      dup6\n      dup8\n      gas\n      call\n      swap3\n      pop\n      pop\n      pop\n      returndatasize\n      dup1\n      0x00\n      dup2\n      eq\n      tag_54\n      jumpi\n      mload(0x40)\n      swap2\n      pop\n      and(add(returndatasize, 0x3f), not(0x1f))\n      dup3\n      add\n      0x40\n      mstore\n      returndatasize\n      dup3\n      mstore\n      returndatasize\n      0x00\n      0x20\n      dup5\n      add\n      returndatacopy\n      jump(tag_53)\n    tag_54:\n      0x60\n      swap2\n      pop\n    tag_53:\n      pop\n        /* \"raffle.sol\":4132:4188  (bool success, ) = msg.sender.call{value: msg.value}(\"\") */\n      pop\n      swap1\n      pop\n        /* \"raffle.sol\":4210:4217  success */\n      dup1\n        /* \"raffle.sol\":4202:4238  require(success, \"Reembolso falhou\") */\n      tag_55\n      jumpi\n      mload(0x40)\n      0x08c379a000000000000000000000000000000000000000000000000000000000\n      dup2\n      mstore\n      0x04\n      add\n      tag_56\n      swap1\n      tag_47\n      jump\t// in\n    tag_56:\n      mload(0x40)\n      dup1\n      swap2\n      sub\n      swap1\n      revert\n    tag_55:\n        /* \"raffle.sol\":4264:4274  msg.sender */\n      caller\n        /* \"raffle.sol\":4257:4286  Refund(msg.sender, msg.value) */\n      0xffffffffffffffffffffffffffffffffffffffff\n      and\n      0xbb28353e4598c3b9199101a66e0989549b659a59a54d2c27fbb183f1932c8e6d\n        /* \"raffle.sol\":4276:4285  msg.value */\n      callvalue\n        /* \"raffle.sol\":4257:4286  Refund(msg.sender, msg.value) */\n      mload(0x40)\n      tag_57\n      swap2\n      swap1\n      tag_49\n      jump\t// in\n    tag_57:\n      mload(0x40)\n      dup1\n      swap2\n      sub\n      swap1\n      log2\n        /* \"raffle.sol\":4300:4307  return; */\n      pop\n      jump(tag_35)\n        /* \"raffle.sol\":4088:4317  if (msg.value != exactAmount) {... */\n    tag_50:\n        /* \"raffle.sol\":4365:4375  totalLimit */\n      sload(0x05)\n        /* \"raffle.sol\":4352:4361  msg.value */\n      callvalue\n        /* \"raffle.sol\":4335:4349  totalDeposited */\n      sload(0x06)\n        /* \"raffle.sol\":4335:4361  totalDeposited + msg.value */\n      tag_58\n      swap2\n      swap1\n      tag_59\n      jump\t// in\n    tag_58:\n        /* \"raffle.sol\":4335:4375  totalDeposited + msg.value <= totalLimit */\n      gt\n      iszero\n        /* \"raffle.sol\":4327:4413  require(totalDeposited + msg.value <= totalLimit, \"Limite total de deposito atingido\") */\n      tag_60\n      jumpi\n      mload(0x40)\n      0x08c379a000000000000000000000000000000000000000000000000000000000\n      dup2\n      mstore\n      0x04\n      add\n      tag_61\n      swap1\n      tag_62\n      jump\t// in\n    tag_61:\n      mload(0x40)\n      dup1\n      swap2\n      sub\n      swap1\n      revert\n    tag_60:\n        /* \"raffle.sol\":4424:4463  _registerDeposit(msg.sender, msg.value) */\n      tag_63\n        /* \"raffle.sol\":4441:4451  msg.sender */\n      caller\n        /* \"raffle.sol\":4453:4462  msg.value */\n      callvalue\n        /* \"raffle.sol\":4424:4440  _registerDeposit */\n      tag_64\n        /* \"raffle.sol\":4424:4463  _registerDeposit(msg.sender, msg.value) */\n      jump\t// in\n    tag_63:\n        /* \"raffle.sol\":3744:4470  receive() external payable {... */\n    tag_35:\n        /* \"raffle.sol\":626:5261  contract LimitReceiver is VRFConsumerBaseV2Plus, ReentrancyGuard {... */\n      stop\n    tag_2:\n        /* \"raffle.sol\":4514:4543  revert(\"Apenas ETH e aceito\") */\n      mload(0x40)\n      0x08c379a000000000000000000000000000000000000000000000000000000000\n      dup2\n      mstore\n      0x04\n      add\n      tag_67\n      swap1\n      tag_68\n      jump\t// in\n    tag_67:\n      mload(0x40)\n      dup1\n      swap2\n      sub\n      swap1\n      revert\n        /* \"raffle.sol\":1072:1101  uint256 public subscriptionId */\n    tag_3:\n      callvalue\n      dup1\n      iszero\n      tag_69\n      jumpi\n      0x00\n      dup1\n      revert\n    tag_69:\n      pop\n      tag_70\n      tag_71\n      jump\t// in\n    tag_70:\n      mload(0x40)\n      tag_72\n      swap2\n      swap1\n      tag_49\n      jump\t// in\n    tag_72:\n      mload(0x40)\n      dup1\n      swap2\n      sub\n      swap1\n      return\n        /* \"https://github.com/smartcontractkit/chainlink/blob/develop/contracts/src/v0.8/vrf/dev/VRFConsumerBaseV2Plus.sol\":7489:7769  function rawFulfillRandomWords(uint256 requestId, uint256[] calldata randomWords) external {... */\n    tag_4:\n      callvalue\n      dup1\n      iszero\n      tag_73\n      jumpi\n      0x00\n      dup1\n      revert\n    tag_73:\n      pop\n      tag_74\n      0x04\n      dup1\n      calldatasize\n      sub\n      dup2\n      add\n      swap1\n      tag_75\n      swap2\n      swap1\n      tag_76\n      jump\t// in\n    tag_75:\n      tag_77\n      jump\t// in\n    tag_74:\n      stop\n        /* \"raffle.sol\":1198:1237  uint32 public callbackGasLimit = 500000 */\n    tag_5:\n      callvalue\n      dup1\n      iszero\n      tag_78\n      jumpi\n      0x00\n      dup1\n      revert\n    tag_78:\n      pop\n      tag_79\n      tag_80\n      jump\t// in\n    tag_79:\n      mload(0x40)\n      tag_81\n      swap2\n      swap1\n      tag_82\n      jump\t// in\n    tag_81:\n      mload(0x40)\n      dup1\n      swap2\n      sub\n      swap1\n      return\n        /* \"raffle.sol\":730:753  uint public exactAmount */\n    tag_6:\n      callvalue\n      dup1\n      iszero\n      tag_83\n      jumpi\n      0x00\n      dup1\n      revert\n    tag_83:\n      pop\n      tag_84\n      tag_85\n      jump\t// in\n    tag_84:\n      mload(0x40)\n      tag_86\n      swap2\n      swap1\n      tag_49\n      jump\t// in\n    tag_86:\n      mload(0x40)\n      dup1\n      swap2\n      sub\n      swap1\n      return\n        /* \"raffle.sol\":864:894  uint public lastWithdrawalTime */\n    tag_7:\n      callvalue\n      dup1\n      iszero\n      tag_87\n      jumpi\n      0x00\n      dup1\n      revert\n    tag_87:\n      pop\n      tag_88\n      tag_89\n      jump\t// in\n    tag_88:\n      mload(0x40)\n      tag_90\n      swap2\n      swap1\n      tag_49\n      jump\t// in\n    tag_90:\n      mload(0x40)\n      dup1\n      swap2\n      sub\n      swap1\n      return\n        /* \"raffle.sol\":1014:1066  VRFV2PlusClient.RandomWordsRequest public vrfRequest */\n    tag_8:\n      callvalue\n      dup1\n      iszero\n      tag_91\n      jumpi\n      0x00\n      dup1\n      revert\n    tag_91:\n      pop\n      tag_92\n      tag_93\n      jump\t// in\n    tag_92:\n      mload(0x40)\n      tag_94\n      swap7\n      swap6\n      swap5\n      swap4\n      swap3\n      swap2\n      swap1\n      tag_95\n      jump\t// in\n    tag_94:\n      mload(0x40)\n      dup1\n      swap2\n      sub\n      swap1\n      return\n        /* \"raffle.sol\":1107:1134  uint256 public randomResult */\n    tag_9:\n      callvalue\n      dup1\n      iszero\n      tag_96\n      jumpi\n      0x00\n      dup1\n      revert\n    tag_96:\n      pop\n      tag_97\n      tag_98\n      jump\t// in\n    tag_97:\n      mload(0x40)\n      tag_99\n      swap2\n      swap1\n      tag_49\n      jump\t// in\n    tag_99:\n      mload(0x40)\n      dup1\n      swap2\n      sub\n      swap1\n      return\n        /* \"raffle.sol\":1170:1192  bytes32 public keyHash */\n    tag_10:\n      callvalue\n      dup1\n      iszero\n      tag_100\n      jumpi\n      0x00\n      dup1\n      revert\n    tag_100:\n      pop\n      tag_101\n      tag_102\n      jump\t// in\n    tag_101:\n      mload(0x40)\n      tag_103\n      swap2\n      swap1\n      tag_104\n      jump\t// in\n    tag_103:\n      mload(0x40)\n      dup1\n      swap2\n      sub\n      swap1\n      return\n        /* \"raffle.sol\":900:922  uint public unlockDate */\n    tag_11:\n      callvalue\n      dup1\n      iszero\n      tag_105\n      jumpi\n      0x00\n      dup1\n      revert\n    tag_105:\n      pop\n      tag_106\n      tag_107\n      jump\t// in\n    tag_106:\n      mload(0x40)\n      tag_108\n      swap2\n      swap1\n      tag_49\n      jump\t// in\n    tag_108:\n      mload(0x40)\n      dup1\n      swap2\n      sub\n      swap1\n      return\n        /* \"https://github.com/smartcontractkit/chainlink/blob/develop/contracts/src/v0.8/shared/access/ConfirmedOwnerWithProposal.sol\":1026:1342  function acceptOwnership() external override {... */\n    tag_12:\n      callvalue\n      dup1\n      iszero\n      tag_109\n      jumpi\n      0x00\n      dup1\n      revert\n    tag_109:\n      pop\n      tag_110\n      tag_111\n      jump\t// in\n    tag_110:\n      stop\n        /* \"raffle.sol\":1287:1313  uint32 public numWords = 1 */\n    tag_13:\n      callvalue\n      dup1\n      iszero\n      tag_112\n      jumpi\n      0x00\n      dup1\n      revert\n    tag_112:\n      pop\n      tag_113\n      tag_114\n      jump\t// in\n    tag_113:\n      mload(0x40)\n      tag_115\n      swap2\n      swap1\n      tag_82\n      jump\t// in\n    tag_115:\n      mload(0x40)\n      dup1\n      swap2\n      sub\n      swap1\n      return\n        /* \"raffle.sol\":928:955  bool public randomGenerated */\n    tag_14:\n      callvalue\n      dup1\n      iszero\n      tag_116\n      jumpi\n      0x00\n      dup1\n      revert\n    tag_116:\n      pop\n      tag_117\n      tag_118\n      jump\t// in\n    tag_117:\n      mload(0x40)\n      tag_119\n      swap2\n      swap1\n      tag_120\n      jump\t// in\n    tag_119:\n      mload(0x40)\n      dup1\n      swap2\n      sub\n      swap1\n      return\n        /* \"raffle.sol\":1140:1163  uint256 public maxRange */\n    tag_15:\n      callvalue\n      dup1\n      iszero\n      tag_121\n      jumpi\n      0x00\n      dup1\n      revert\n    tag_121:\n      pop\n      tag_122\n      tag_123\n      jump\t// in\n    tag_122:\n      mload(0x40)\n      tag_124\n      swap2\n      swap1\n      tag_49\n      jump\t// in\n    tag_124:\n      mload(0x40)\n      dup1\n      swap2\n      sub\n      swap1\n      return\n        /* \"https://github.com/smartcontractkit/chainlink/blob/develop/contracts/src/v0.8/shared/access/ConfirmedOwnerWithProposal.sol\":1382:1463  function owner() public view override returns (address) {... */\n    tag_16:\n      callvalue\n      dup1\n      iszero\n      tag_125\n      jumpi\n      0x00\n      dup1\n      revert\n    tag_125:\n      pop\n      tag_126\n      tag_127\n      jump\t// in\n    tag_126:\n      mload(0x40)\n      tag_128\n      swap2\n      swap1\n      tag_129\n      jump\t// in\n    tag_128:\n      mload(0x40)\n      dup1\n      swap2\n      sub\n      swap1\n      return\n        /* \"https://github.com/smartcontractkit/chainlink/blob/develop/contracts/src/v0.8/vrf/dev/VRFConsumerBaseV2Plus.sol\":7831:8107  function setCoordinator(address _vrfCoordinator) external override onlyOwnerOrCoordinator {... */\n    tag_17:\n      callvalue\n      dup1\n      iszero\n      tag_130\n      jumpi\n      0x00\n      dup1\n      revert\n    tag_130:\n      pop\n      tag_131\n      0x04\n      dup1\n      calldatasize\n      sub\n      dup2\n      add\n      swap1\n      tag_132\n      swap2\n      swap1\n      tag_133\n      jump\t// in\n    tag_132:\n      tag_134\n      jump\t// in\n    tag_131:\n      stop\n        /* \"https://github.com/smartcontractkit/chainlink/blob/develop/contracts/src/v0.8/vrf/dev/VRFConsumerBaseV2Plus.sol\":6077:6122  IVRFCoordinatorV2Plus public s_vrfCoordinator */\n    tag_18:\n      callvalue\n      dup1\n      iszero\n      tag_135\n      jumpi\n      0x00\n      dup1\n      revert\n    tag_135:\n      pop\n      tag_136\n      tag_137\n      jump\t// in\n    tag_136:\n      mload(0x40)\n      tag_138\n      swap2\n      swap1\n      tag_139\n      jump\t// in\n    tag_138:\n      mload(0x40)\n      dup1\n      swap2\n      sub\n      swap1\n      return\n        /* \"raffle.sol\":759:781  uint public totalLimit */\n    tag_19:\n      callvalue\n      dup1\n      iszero\n      tag_140\n      jumpi\n      0x00\n      dup1\n      revert\n    tag_140:\n      pop\n      tag_141\n      tag_142\n      jump\t// in\n    tag_141:\n      mload(0x40)\n      tag_143\n      swap2\n      swap1\n      tag_49\n      jump\t// in\n    tag_143:\n      mload(0x40)\n      dup1\n      swap2\n      sub\n      swap1\n      return\n        /* \"raffle.sol\":1243:1281  uint16 public requestConfirmations = 3 */\n    tag_20:\n      callvalue\n      dup1\n      iszero\n      tag_144\n      jumpi\n      0x00\n      dup1\n      revert\n    tag_144:\n      pop\n      tag_145\n      tag_146\n      jump\t// in\n    tag_145:\n      mload(0x40)\n      tag_147\n      swap2\n      swap1\n      tag_148\n      jump\t// in\n    tag_147:\n      mload(0x40)\n      dup1\n      swap2\n      sub\n      swap1\n      return\n        /* \"raffle.sol\":2550:3534  function requestRandomNumber(uint _maxRange) external onlyOwner {... */\n    tag_21:\n      callvalue\n      dup1\n      iszero\n      tag_149\n      jumpi\n      0x00\n      dup1\n      revert\n    tag_149:\n      pop\n      tag_150\n      0x04\n      dup1\n      calldatasize\n      sub\n      dup2\n      add\n      swap1\n      tag_151\n      swap2\n      swap1\n      tag_152\n      jump\t// in\n    tag_151:\n      tag_153\n      jump\t// in\n    tag_150:\n      stop\n        /* \"raffle.sol\":819:858  uint public withdrawalCooldown = 1 days */\n    tag_22:\n      callvalue\n      dup1\n      iszero\n      tag_154\n      jumpi\n      0x00\n      dup1\n      revert\n    tag_154:\n      pop\n      tag_155\n      tag_156\n      jump\t// in\n    tag_155:\n      mload(0x40)\n      tag_157\n      swap2\n      swap1\n      tag_49\n      jump\t// in\n    tag_157:\n      mload(0x40)\n      dup1\n      swap2\n      sub\n      swap1\n      return\n        /* \"raffle.sol\":1406:1433  address[] public depositors */\n    tag_23:\n      callvalue\n      dup1\n      iszero\n      tag_158\n      jumpi\n      0x00\n      dup1\n      revert\n    tag_158:\n      pop\n      tag_159\n      0x04\n      dup1\n      calldatasize\n      sub\n      dup2\n      add\n      swap1\n      tag_160\n      swap2\n      swap1\n      tag_152\n      jump\t// in\n    tag_160:\n      tag_161\n      jump\t// in\n    tag_159:\n      mload(0x40)\n      tag_162\n      swap2\n      swap1\n      tag_129\n      jump\t// in\n    tag_162:\n      mload(0x40)\n      dup1\n      swap2\n      sub\n      swap1\n      return\n        /* \"raffle.sol\":1439:1483  mapping(address => bool) public hasDeposited */\n    tag_24:\n      callvalue\n      dup1\n      iszero\n      tag_163\n      jumpi\n      0x00\n      dup1\n      revert\n    tag_163:\n      pop\n      tag_164\n      0x04\n      dup1\n      calldatasize\n      sub\n      dup2\n      add\n      swap1\n      tag_165\n      swap2\n      swap1\n      tag_133\n      jump\t// in\n    tag_165:\n      tag_166\n      jump\t// in\n    tag_164:\n      mload(0x40)\n      tag_167\n      swap2\n      swap1\n      tag_120\n      jump\t// in\n    tag_167:\n      mload(0x40)\n      dup1\n      swap2\n      sub\n      swap1\n      return\n        /* \"https://github.com/smartcontractkit/chainlink/blob/develop/contracts/src/v0.8/shared/access/ConfirmedOwnerWithProposal.sol\":847:945  function transferOwnership(address to) public override onlyOwner {... */\n    tag_25:\n      callvalue\n      dup1\n      iszero\n      tag_168\n      jumpi\n      0x00\n      dup1\n      revert\n    tag_168:\n      pop\n      tag_169\n      0x04\n      dup1\n      calldatasize\n      sub\n      dup2\n      add\n      swap1\n      tag_170\n      swap2\n      swap1\n      tag_133\n      jump\t// in\n    tag_170:\n      tag_171\n      jump\t// in\n    tag_169:\n      stop\n        /* \"raffle.sol\":4880:5259  function withdraw(address payable _to, uint _amount) external onlyOwner nonReentrant afterUnlockDate {... */\n    tag_26:\n      callvalue\n      dup1\n      iszero\n      tag_172\n      jumpi\n      0x00\n      dup1\n      revert\n    tag_172:\n      pop\n      tag_173\n      0x04\n      dup1\n      calldatasize\n      sub\n      dup2\n      add\n      swap1\n      tag_174\n      swap2\n      swap1\n      tag_175\n      jump\t// in\n    tag_174:\n      tag_176\n      jump\t// in\n    tag_173:\n      stop\n        /* \"raffle.sol\":1360:1400  mapping(address => uint) public deposits */\n    tag_27:\n      callvalue\n      dup1\n      iszero\n      tag_177\n      jumpi\n      0x00\n      dup1\n      revert\n    tag_177:\n      pop\n      tag_178\n      0x04\n      dup1\n      calldatasize\n      sub\n      dup2\n      add\n      swap1\n      tag_179\n      swap2\n      swap1\n      tag_133\n      jump\t// in\n    tag_179:\n      tag_180\n      jump\t// in\n    tag_178:\n      mload(0x40)\n      tag_181\n      swap2\n      swap1\n      tag_49\n      jump\t// in\n    tag_181:\n      mload(0x40)\n      dup1\n      swap2\n      sub\n      swap1\n      return\n        /* \"raffle.sol\":787:813  uint public totalDeposited */\n    tag_28:\n      callvalue\n      dup1\n      iszero\n      tag_182\n      jumpi\n      0x00\n      dup1\n      revert\n    tag_182:\n      pop\n      tag_183\n      tag_184\n      jump\t// in\n    tag_183:\n      mload(0x40)\n      tag_185\n      swap2\n      swap1\n      tag_49\n      jump\t// in\n    tag_185:\n      mload(0x40)\n      dup1\n      swap2\n      sub\n      swap1\n      return\n        /* \"raffle.sol\":4556:4874  function _registerDeposit(address depositor, uint amount) internal {... */\n    tag_64:\n        /* \"raffle.sol\":4660:4661  0 */\n      0x00\n        /* \"raffle.sol\":4637:4645  deposits */\n      0x14\n        /* \"raffle.sol\":4637:4656  deposits[depositor] */\n      0x00\n        /* \"raffle.sol\":4646:4655  depositor */\n      dup5\n        /* \"raffle.sol\":4637:4656  deposits[depositor] */\n      0xffffffffffffffffffffffffffffffffffffffff\n      and\n      0xffffffffffffffffffffffffffffffffffffffff\n      and\n      dup2\n      mstore\n      0x20\n      add\n      swap1\n      dup2\n      mstore\n      0x20\n      add\n      0x00\n      keccak256\n      sload\n        /* \"raffle.sol\":4637:4661  deposits[depositor] == 0 */\n      sub\n        /* \"raffle.sol\":4633:4714  if (deposits[depositor] == 0) {... */\n      tag_187\n      jumpi\n        /* \"raffle.sol\":4677:4687  depositors */\n      0x15\n        /* \"raffle.sol\":4693:4702  depositor */\n      dup3\n        /* \"raffle.sol\":4677:4703  depositors.push(depositor) */\n      swap1\n      dup1\n      0x01\n      dup2\n      sload\n      add\n      dup1\n      dup3\n      sstore\n      dup1\n      swap2\n      pop\n      pop\n      0x01\n      swap1\n      sub\n      swap1\n      0x00\n      mstore\n      keccak256(0x00, 0x20)\n      add\n      0x00\n      swap1\n      swap2\n      swap1\n      swap2\n      swap1\n      swap2\n      0x0100\n      exp\n      dup2\n      sload\n      dup2\n      0xffffffffffffffffffffffffffffffffffffffff\n      mul\n      not\n      and\n      swap1\n      dup4\n      0xffffffffffffffffffffffffffffffffffffffff\n      and\n      mul\n      or\n      swap1\n      sstore\n      pop\n        /* \"raffle.sol\":4633:4714  if (deposits[depositor] == 0) {... */\n    tag_187:\n        /* \"raffle.sol\":4749:4753  true */\n      0x01\n        /* \"raffle.sol\":4723:4735  hasDeposited */\n      0x16\n        /* \"raffle.sol\":4723:4746  hasDeposited[depositor] */\n      0x00\n        /* \"raffle.sol\":4736:4745  depositor */\n      dup5\n        /* \"raffle.sol\":4723:4746  hasDeposited[depositor] */\n      0xffffffffffffffffffffffffffffffffffffffff\n      and\n      0xffffffffffffffffffffffffffffffffffffffff\n      and\n      dup2\n      mstore\n      0x20\n      add\n      swap1\n      dup2\n      mstore\n      0x20\n      add\n      0x00\n      keccak256\n      0x00\n        /* \"raffle.sol\":4723:4753  hasDeposited[depositor] = true */\n      0x0100\n      exp\n      dup2\n      sload\n      dup2\n      0xff\n      mul\n      not\n      and\n      swap1\n      dup4\n      iszero\n      iszero\n      mul\n      or\n      swap1\n      sstore\n      pop\n        /* \"raffle.sol\":4786:4792  amount */\n      dup1\n        /* \"raffle.sol\":4763:4771  deposits */\n      0x14\n        /* \"raffle.sol\":4763:4782  deposits[depositor] */\n      0x00\n        /* \"raffle.sol\":4772:4781  depositor */\n      dup5\n        /* \"raffle.sol\":4763:4782  deposits[depositor] */\n      0xffffffffffffffffffffffffffffffffffffffff\n      and\n      0xffffffffffffffffffffffffffffffffffffffff\n      and\n      dup2\n      mstore\n      0x20\n      add\n      swap1\n      dup2\n      mstore\n      0x20\n      add\n      0x00\n      keccak256\n      0x00\n        /* \"raffle.sol\":4763:4792  deposits[depositor] += amount */\n      dup3\n      dup3\n      sload\n      tag_189\n      swap2\n      swap1\n      tag_59\n      jump\t// in\n    tag_189:\n      swap3\n      pop\n      pop\n      dup2\n      swap1\n      sstore\n      pop\n        /* \"raffle.sol\":4820:4826  amount */\n      dup1\n        /* \"raffle.sol\":4802:4816  totalDeposited */\n      0x06\n      0x00\n        /* \"raffle.sol\":4802:4826  totalDeposited += amount */\n      dup3\n      dup3\n      sload\n      tag_190\n      swap2\n      swap1\n      tag_59\n      jump\t// in\n    tag_190:\n      swap3\n      pop\n      pop\n      dup2\n      swap1\n      sstore\n      pop\n        /* \"raffle.sol\":4849:4858  depositor */\n      dup2\n        /* \"raffle.sol\":4841:4867  Deposit(depositor, amount) */\n      0xffffffffffffffffffffffffffffffffffffffff\n      and\n      0xe1fffcc4923d04b559f4d29a8bfc6cda04eb5b0d3c460751c2402c5c5cc9109c\n        /* \"raffle.sol\":4860:4866  amount */\n      dup3\n        /* \"raffle.sol\":4841:4867  Deposit(depositor, amount) */\n      mload(0x40)\n      tag_191\n      swap2\n      swap1\n      tag_49\n      jump\t// in\n    tag_191:\n      mload(0x40)\n      dup1\n      swap2\n      sub\n      swap1\n      log2\n        /* \"raffle.sol\":4556:4874  function _registerDeposit(address depositor, uint amount) internal {... */\n      pop\n      pop\n      jump\t// out\n        /* \"raffle.sol\":1072:1101  uint256 public subscriptionId */\n    tag_71:\n      sload(0x0f)\n      dup2\n      jump\t// out\n        /* \"https://github.com/smartcontractkit/chainlink/blob/develop/contracts/src/v0.8/vrf/dev/VRFConsumerBaseV2Plus.sol\":7489:7769  function rawFulfillRandomWords(uint256 requestId, uint256[] calldata randomWords) external {... */\n    tag_77:\n        /* \"https://github.com/smartcontractkit/chainlink/blob/develop/contracts/src/v0.8/vrf/dev/VRFConsumerBaseV2Plus.sol\":7612:7628  s_vrfCoordinator */\n      0x02\n      0x00\n      swap1\n      sload\n      swap1\n      0x0100\n      exp\n      swap1\n      div\n      0xffffffffffffffffffffffffffffffffffffffff\n      and\n        /* \"https://github.com/smartcontractkit/chainlink/blob/develop/contracts/src/v0.8/vrf/dev/VRFConsumerBaseV2Plus.sol\":7590:7629  msg.sender != address(s_vrfCoordinator) */\n      0xffffffffffffffffffffffffffffffffffffffff\n      and\n        /* \"https://github.com/smartcontractkit/chainlink/blob/develop/contracts/src/v0.8/vrf/dev/VRFConsumerBaseV2Plus.sol\":7590:7600  msg.sender */\n      caller\n        /* \"https://github.com/smartcontractkit/chainlink/blob/develop/contracts/src/v0.8/vrf/dev/VRFConsumerBaseV2Plus.sol\":7590:7629  msg.sender != address(s_vrfCoordinator) */\n      0xffffffffffffffffffffffffffffffffffffffff\n      and\n      eq\n        /* \"https://github.com/smartcontractkit/chainlink/blob/develop/contracts/src/v0.8/vrf/dev/VRFConsumerBaseV2Plus.sol\":7586:7717  if (msg.sender != address(s_vrfCoordinator)) {... */\n      tag_193\n      jumpi\n        /* \"https://github.com/smartcontractkit/chainlink/blob/develop/contracts/src/v0.8/vrf/dev/VRFConsumerBaseV2Plus.sol\":7672:7682  msg.sender */\n      caller\n        /* \"https://github.com/smartcontractkit/chainlink/blob/develop/contracts/src/v0.8/vrf/dev/VRFConsumerBaseV2Plus.sol\":7692:7708  s_vrfCoordinator */\n      0x02\n      0x00\n      swap1\n      sload\n      swap1\n      0x0100\n      exp\n      swap1\n      div\n      0xffffffffffffffffffffffffffffffffffffffff\n      and\n        /* \"https://github.com/smartcontractkit/chainlink/blob/develop/contracts/src/v0.8/vrf/dev/VRFConsumerBaseV2Plus.sol\":7646:7710  OnlyCoordinatorCanFulfill(msg.sender, address(s_vrfCoordinator)) */\n      mload(0x40)\n      0x1cf993f400000000000000000000000000000000000000000000000000000000\n      dup2\n      mstore\n      0x04\n      add\n      tag_194\n      swap3\n      swap2\n      swap1\n      tag_195\n      jump\t// in\n    tag_194:\n      mload(0x40)\n      dup1\n      swap2\n      sub\n      swap1\n      revert\n        /* \"https://github.com/smartcontractkit/chainlink/blob/develop/contracts/src/v0.8/vrf/dev/VRFConsumerBaseV2Plus.sol\":7586:7717  if (msg.sender != address(s_vrfCoordinator)) {... */\n    tag_193:\n        /* \"https://github.com/smartcontractkit/chainlink/blob/develop/contracts/src/v0.8/vrf/dev/VRFConsumerBaseV2Plus.sol\":7722:7764  fulfillRandomWords(requestId, randomWords) */\n      tag_196\n        /* \"https://github.com/smartcontractkit/chainlink/blob/develop/contracts/src/v0.8/vrf/dev/VRFConsumerBaseV2Plus.sol\":7741:7750  requestId */\n      dup4\n        /* \"https://github.com/smartcontractkit/chainlink/blob/develop/contracts/src/v0.8/vrf/dev/VRFConsumerBaseV2Plus.sol\":7752:7763  randomWords */\n      dup4\n      dup4\n        /* \"https://github.com/smartcontractkit/chainlink/blob/develop/contracts/src/v0.8/vrf/dev/VRFConsumerBaseV2Plus.sol\":7722:7740  fulfillRandomWords */\n      tag_197\n        /* \"https://github.com/smartcontractkit/chainlink/blob/develop/contracts/src/v0.8/vrf/dev/VRFConsumerBaseV2Plus.sol\":7722:7764  fulfillRandomWords(requestId, randomWords) */\n      jump\t// in\n    tag_196:\n        /* \"https://github.com/smartcontractkit/chainlink/blob/develop/contracts/src/v0.8/vrf/dev/VRFConsumerBaseV2Plus.sol\":7489:7769  function rawFulfillRandomWords(uint256 requestId, uint256[] calldata randomWords) external {... */\n      pop\n      pop\n      pop\n      jump\t// out\n        /* \"raffle.sol\":1198:1237  uint32 public callbackGasLimit = 500000 */\n    tag_80:\n      0x13\n      0x00\n      swap1\n      sload\n      swap1\n      0x0100\n      exp\n      swap1\n      div\n      0xffffffff\n      and\n      dup2\n      jump\t// out\n        /* \"raffle.sol\":730:753  uint public exactAmount */\n    tag_85:\n      sload(0x04)\n      dup2\n      jump\t// out\n        /* \"raffle.sol\":864:894  uint public lastWithdrawalTime */\n    tag_89:\n      sload(0x08)\n      dup2\n      jump\t// out\n        /* \"raffle.sol\":1014:1066  VRFV2PlusClient.RandomWordsRequest public vrfRequest */\n    tag_93:\n      0x0b\n      dup1\n      0x00\n      add\n      sload\n      swap1\n      dup1\n      0x01\n      add\n      sload\n      swap1\n      dup1\n      0x02\n      add\n      0x00\n      swap1\n      sload\n      swap1\n      0x0100\n      exp\n      swap1\n      div\n      0xffff\n      and\n      swap1\n      dup1\n      0x02\n      add\n      0x02\n      swap1\n      sload\n      swap1\n      0x0100\n      exp\n      swap1\n      div\n      0xffffffff\n      and\n      swap1\n      dup1\n      0x02\n      add\n      0x06\n      swap1\n      sload\n      swap1\n      0x0100\n      exp\n      swap1\n      div\n      0xffffffff\n      and\n      swap1\n      dup1\n      0x03\n      add\n      dup1\n      sload\n      tag_198\n      swap1\n      tag_199\n      jump\t// in\n    tag_198:\n      dup1\n      0x1f\n      add\n      0x20\n      dup1\n      swap2\n      div\n      mul\n      0x20\n      add\n      mload(0x40)\n      swap1\n      dup2\n      add\n      0x40\n      mstore\n      dup1\n      swap3\n      swap2\n      swap1\n      dup2\n      dup2\n      mstore\n      0x20\n      add\n      dup3\n      dup1\n      sload\n      tag_200\n      swap1\n      tag_199\n      jump\t// in\n    tag_200:\n      dup1\n      iszero\n      tag_201\n      jumpi\n      dup1\n      0x1f\n      lt\n      tag_202\n      jumpi\n      0x0100\n      dup1\n      dup4\n      sload\n      div\n      mul\n      dup4\n      mstore\n      swap2\n      0x20\n      add\n      swap2\n      jump(tag_201)\n    tag_202:\n      dup3\n      add\n      swap2\n      swap1\n      0x00\n      mstore\n      keccak256(0x00, 0x20)\n      swap1\n    tag_203:\n      dup2\n      sload\n      dup2\n      mstore\n      swap1\n      0x01\n      add\n      swap1\n      0x20\n      add\n      dup1\n      dup4\n      gt\n      tag_203\n      jumpi\n      dup3\n      swap1\n      sub\n      0x1f\n      and\n      dup3\n      add\n      swap2\n    tag_201:\n      pop\n      pop\n      pop\n      pop\n      pop\n      swap1\n      pop\n      dup7\n      jump\t// out\n        /* \"raffle.sol\":1107:1134  uint256 public randomResult */\n    tag_98:\n      sload(0x10)\n      dup2\n      jump\t// out\n        /* \"raffle.sol\":1170:1192  bytes32 public keyHash */\n    tag_102:\n      sload(0x12)\n      dup2\n      jump\t// out\n        /* \"raffle.sol\":900:922  uint public unlockDate */\n    tag_107:\n      sload(0x09)\n      dup2\n      jump\t// out\n        /* \"https://github.com/smartcontractkit/chainlink/blob/develop/contracts/src/v0.8/shared/access/ConfirmedOwnerWithProposal.sol\":1026:1342  function acceptOwnership() external override {... */\n    tag_111:\n        /* \"https://github.com/smartcontractkit/chainlink/blob/develop/contracts/src/v0.8/shared/access/ConfirmedOwnerWithProposal.sol\":1150:1164  s_pendingOwner */\n      0x01\n      0x00\n      swap1\n      sload\n      swap1\n      0x0100\n      exp\n      swap1\n      div\n      0xffffffffffffffffffffffffffffffffffffffff\n      and\n        /* \"https://github.com/smartcontractkit/chainlink/blob/develop/contracts/src/v0.8/shared/access/ConfirmedOwnerWithProposal.sol\":1136:1164  msg.sender == s_pendingOwner */\n      0xffffffffffffffffffffffffffffffffffffffff\n      and\n        /* \"https://github.com/smartcontractkit/chainlink/blob/develop/contracts/src/v0.8/shared/access/ConfirmedOwnerWithProposal.sol\":1136:1146  msg.sender */\n      caller\n        /* \"https://github.com/smartcontractkit/chainlink/blob/develop/contracts/src/v0.8/shared/access/ConfirmedOwnerWithProposal.sol\":1136:1164  msg.sender == s_pendingOwner */\n      0xffffffffffffffffffffffffffffffffffffffff\n      and\n      eq\n        /* \"https://github.com/smartcontractkit/chainlink/blob/develop/contracts/src/v0.8/shared/access/ConfirmedOwnerWithProposal.sol\":1128:1191  require(msg.sender == s_pendingOwner, \"Must be proposed owner\") */\n      tag_205\n      jumpi\n      mload(0x40)\n      0x08c379a000000000000000000000000000000000000000000000000000000000\n      dup2\n      mstore\n      0x04\n      add\n      tag_206\n      swap1\n      tag_207\n      jump\t// in\n    tag_206:\n      mload(0x40)\n      dup1\n      swap2\n      sub\n      swap1\n      revert\n    tag_205:\n        /* \"https://github.com/smartcontractkit/chainlink/blob/develop/contracts/src/v0.8/shared/access/ConfirmedOwnerWithProposal.sol\":1198:1214  address oldOwner */\n      0x00\n        /* \"https://github.com/smartcontractkit/chainlink/blob/develop/contracts/src/v0.8/shared/access/ConfirmedOwnerWithProposal.sol\":1217:1224  s_owner */\n      dup1\n      0x00\n      swap1\n      sload\n      swap1\n      0x0100\n      exp\n      swap1\n      div\n      0xffffffffffffffffffffffffffffffffffffffff\n      and\n        /* \"https://github.com/smartcontractkit/chainlink/blob/develop/contracts/src/v0.8/shared/access/ConfirmedOwnerWithProposal.sol\":1198:1224  address oldOwner = s_owner */\n      swap1\n      pop\n        /* \"https://github.com/smartcontractkit/chainlink/blob/develop/contracts/src/v0.8/shared/access/ConfirmedOwnerWithProposal.sol\":1240:1250  msg.sender */\n      caller\n        /* \"https://github.com/smartcontractkit/chainlink/blob/develop/contracts/src/v0.8/shared/access/ConfirmedOwnerWithProposal.sol\":1230:1237  s_owner */\n      0x00\n      dup1\n        /* \"https://github.com/smartcontractkit/chainlink/blob/develop/contracts/src/v0.8/shared/access/ConfirmedOwnerWithProposal.sol\":1230:1250  s_owner = msg.sender */\n      0x0100\n      exp\n      dup2\n      sload\n      dup2\n      0xffffffffffffffffffffffffffffffffffffffff\n      mul\n      not\n      and\n      swap1\n      dup4\n      0xffffffffffffffffffffffffffffffffffffffff\n      and\n      mul\n      or\n      swap1\n      sstore\n      pop\n        /* \"https://github.com/smartcontractkit/chainlink/blob/develop/contracts/src/v0.8/shared/access/ConfirmedOwnerWithProposal.sol\":1281:1282  0 */\n      0x00\n        /* \"https://github.com/smartcontractkit/chainlink/blob/develop/contracts/src/v0.8/shared/access/ConfirmedOwnerWithProposal.sol\":1256:1270  s_pendingOwner */\n      0x01\n      0x00\n        /* \"https://github.com/smartcontractkit/chainlink/blob/develop/contracts/src/v0.8/shared/access/ConfirmedOwnerWithProposal.sol\":1256:1283  s_pendingOwner = address(0) */\n      0x0100\n      exp\n      dup2\n      sload\n      dup2\n      0xffffffffffffffffffffffffffffffffffffffff\n      mul\n      not\n      and\n      swap1\n      dup4\n      0xffffffffffffffffffffffffffffffffffffffff\n      and\n      mul\n      or\n      swap1\n      sstore\n      pop\n        /* \"https://github.com/smartcontractkit/chainlink/blob/develop/contracts/src/v0.8/shared/access/ConfirmedOwnerWithProposal.sol\":1326:1336  msg.sender */\n      caller\n        /* \"https://github.com/smartcontractkit/chainlink/blob/develop/contracts/src/v0.8/shared/access/ConfirmedOwnerWithProposal.sol\":1295:1337  OwnershipTransferred(oldOwner, msg.sender) */\n      0xffffffffffffffffffffffffffffffffffffffff\n      and\n        /* \"https://github.com/smartcontractkit/chainlink/blob/develop/contracts/src/v0.8/shared/access/ConfirmedOwnerWithProposal.sol\":1316:1324  oldOwner */\n      dup2\n        /* \"https://github.com/smartcontractkit/chainlink/blob/develop/contracts/src/v0.8/shared/access/ConfirmedOwnerWithProposal.sol\":1295:1337  OwnershipTransferred(oldOwner, msg.sender) */\n      0xffffffffffffffffffffffffffffffffffffffff\n      and\n      0x8be0079c531659141344cd1fd0a4f28419497f9722a3daafe3b4186f6b6457e0\n      mload(0x40)\n      mload(0x40)\n      dup1\n      swap2\n      sub\n      swap1\n      log3\n        /* \"https://github.com/smartcontractkit/chainlink/blob/develop/contracts/src/v0.8/shared/access/ConfirmedOwnerWithProposal.sol\":1071:1342  {... */\n      pop\n        /* \"https://github.com/smartcontractkit/chainlink/blob/develop/contracts/src/v0.8/shared/access/ConfirmedOwnerWithProposal.sol\":1026:1342  function acceptOwnership() external override {... */\n      jump\t// out\n        /* \"raffle.sol\":1287:1313  uint32 public numWords = 1 */\n    tag_114:\n      0x13\n      0x06\n      swap1\n      sload\n      swap1\n      0x0100\n      exp\n      swap1\n      div\n      0xffffffff\n      and\n      dup2\n      jump\t// out\n        /* \"raffle.sol\":928:955  bool public randomGenerated */\n    tag_118:\n      0x0a\n      0x00\n      swap1\n      sload\n      swap1\n      0x0100\n      exp\n      swap1\n      div\n      0xff\n      and\n      dup2\n      jump\t// out\n        /* \"raffle.sol\":1140:1163  uint256 public maxRange */\n    tag_123:\n      sload(0x11)\n      dup2\n      jump\t// out\n        /* \"https://github.com/smartcontractkit/chainlink/blob/develop/contracts/src/v0.8/shared/access/ConfirmedOwnerWithProposal.sol\":1382:1463  function owner() public view override returns (address) {... */\n    tag_127:\n        /* \"https://github.com/smartcontractkit/chainlink/blob/develop/contracts/src/v0.8/shared/access/ConfirmedOwnerWithProposal.sol\":1429:1436  address */\n      0x00\n        /* \"https://github.com/smartcontractkit/chainlink/blob/develop/contracts/src/v0.8/shared/access/ConfirmedOwnerWithProposal.sol\":1451:1458  s_owner */\n      dup1\n      0x00\n      swap1\n      sload\n      swap1\n      0x0100\n      exp\n      swap1\n      div\n      0xffffffffffffffffffffffffffffffffffffffff\n      and\n        /* \"https://github.com/smartcontractkit/chainlink/blob/develop/contracts/src/v0.8/shared/access/ConfirmedOwnerWithProposal.sol\":1444:1458  return s_owner */\n      swap1\n      pop\n        /* \"https://github.com/smartcontractkit/chainlink/blob/develop/contracts/src/v0.8/shared/access/ConfirmedOwnerWithProposal.sol\":1382:1463  function owner() public view override returns (address) {... */\n      swap1\n      jump\t// out\n        /* \"https://github.com/smartcontractkit/chainlink/blob/develop/contracts/src/v0.8/vrf/dev/VRFConsumerBaseV2Plus.sol\":7831:8107  function setCoordinator(address _vrfCoordinator) external override onlyOwnerOrCoordinator {... */\n    tag_134:\n        /* \"https://github.com/smartcontractkit/chainlink/blob/develop/contracts/src/v0.8/vrf/dev/VRFConsumerBaseV2Plus.sol\":8169:8176  owner() */\n      tag_210\n        /* \"https://github.com/smartcontractkit/chainlink/blob/develop/contracts/src/v0.8/vrf/dev/VRFConsumerBaseV2Plus.sol\":8169:8174  owner */\n      tag_127\n        /* \"https://github.com/smartcontractkit/chainlink/blob/develop/contracts/src/v0.8/vrf/dev/VRFConsumerBaseV2Plus.sol\":8169:8176  owner() */\n      jump\t// in\n    tag_210:\n        /* \"https://github.com/smartcontractkit/chainlink/blob/develop/contracts/src/v0.8/vrf/dev/VRFConsumerBaseV2Plus.sol\":8155:8176  msg.sender != owner() */\n      0xffffffffffffffffffffffffffffffffffffffff\n      and\n        /* \"https://github.com/smartcontractkit/chainlink/blob/develop/contracts/src/v0.8/vrf/dev/VRFConsumerBaseV2Plus.sol\":8155:8165  msg.sender */\n      caller\n        /* \"https://github.com/smartcontractkit/chainlink/blob/develop/contracts/src/v0.8/vrf/dev/VRFConsumerBaseV2Plus.sol\":8155:8176  msg.sender != owner() */\n      0xffffffffffffffffffffffffffffffffffffffff\n      and\n      eq\n      iszero\n        /* \"https://github.com/smartcontractkit/chainlink/blob/develop/contracts/src/v0.8/vrf/dev/VRFConsumerBaseV2Plus.sol\":8155:8219  msg.sender != owner() && msg.sender != address(s_vrfCoordinator) */\n      dup1\n      iszero\n      tag_211\n      jumpi\n      pop\n        /* \"https://github.com/smartcontractkit/chainlink/blob/develop/contracts/src/v0.8/vrf/dev/VRFConsumerBaseV2Plus.sol\":8202:8218  s_vrfCoordinator */\n      0x02\n      0x00\n      swap1\n      sload\n      swap1\n      0x0100\n      exp\n      swap1\n      div\n      0xffffffffffffffffffffffffffffffffffffffff\n      and\n        /* \"https://github.com/smartcontractkit/chainlink/blob/develop/contracts/src/v0.8/vrf/dev/VRFConsumerBaseV2Plus.sol\":8180:8219  msg.sender != address(s_vrfCoordinator) */\n      0xffffffffffffffffffffffffffffffffffffffff\n      and\n        /* \"https://github.com/smartcontractkit/chainlink/blob/develop/contracts/src/v0.8/vrf/dev/VRFConsumerBaseV2Plus.sol\":8180:8190  msg.sender */\n      caller\n        /* \"https://github.com/smartcontractkit/chainlink/blob/develop/contracts/src/v0.8/vrf/dev/VRFConsumerBaseV2Plus.sol\":8180:8219  msg.sender != address(s_vrfCoordinator) */\n      0xffffffffffffffffffffffffffffffffffffffff\n      and\n      eq\n      iszero\n        /* \"https://github.com/smartcontractkit/chainlink/blob/develop/contracts/src/v0.8/vrf/dev/VRFConsumerBaseV2Plus.sol\":8155:8219  msg.sender != owner() && msg.sender != address(s_vrfCoordinator) */\n    tag_211:\n        /* \"https://github.com/smartcontractkit/chainlink/blob/develop/contracts/src/v0.8/vrf/dev/VRFConsumerBaseV2Plus.sol\":8151:8313  if (msg.sender != owner() && msg.sender != address(s_vrfCoordinator)) {... */\n      iszero\n      tag_212\n      jumpi\n        /* \"https://github.com/smartcontractkit/chainlink/blob/develop/contracts/src/v0.8/vrf/dev/VRFConsumerBaseV2Plus.sol\":8259:8269  msg.sender */\n      caller\n        /* \"https://github.com/smartcontractkit/chainlink/blob/develop/contracts/src/v0.8/vrf/dev/VRFConsumerBaseV2Plus.sol\":8271:8278  owner() */\n      tag_213\n        /* \"https://github.com/smartcontractkit/chainlink/blob/develop/contracts/src/v0.8/vrf/dev/VRFConsumerBaseV2Plus.sol\":8271:8276  owner */\n      tag_127\n        /* \"https://github.com/smartcontractkit/chainlink/blob/develop/contracts/src/v0.8/vrf/dev/VRFConsumerBaseV2Plus.sol\":8271:8278  owner() */\n      jump\t// in\n    tag_213:\n        /* \"https://github.com/smartcontractkit/chainlink/blob/develop/contracts/src/v0.8/vrf/dev/VRFConsumerBaseV2Plus.sol\":8288:8304  s_vrfCoordinator */\n      0x02\n      0x00\n      swap1\n      sload\n      swap1\n      0x0100\n      exp\n      swap1\n      div\n      0xffffffffffffffffffffffffffffffffffffffff\n      and\n        /* \"https://github.com/smartcontractkit/chainlink/blob/develop/contracts/src/v0.8/vrf/dev/VRFConsumerBaseV2Plus.sol\":8236:8306  OnlyOwnerOrCoordinator(msg.sender, owner(), address(s_vrfCoordinator)) */\n      mload(0x40)\n      0x061db9c100000000000000000000000000000000000000000000000000000000\n      dup2\n      mstore\n      0x04\n      add\n      tag_214\n      swap4\n      swap3\n      swap2\n      swap1\n      tag_215\n      jump\t// in\n    tag_214:\n      mload(0x40)\n      dup1\n      swap2\n      sub\n      swap1\n      revert\n        /* \"https://github.com/smartcontractkit/chainlink/blob/develop/contracts/src/v0.8/vrf/dev/VRFConsumerBaseV2Plus.sol\":8151:8313  if (msg.sender != owner() && msg.sender != address(s_vrfCoordinator)) {... */\n    tag_212:\n        /* \"https://github.com/smartcontractkit/chainlink/blob/develop/contracts/src/v0.8/vrf/dev/VRFConsumerBaseV2Plus.sol\":7958:7959  0 */\n      0x00\n        /* \"https://github.com/smartcontractkit/chainlink/blob/develop/contracts/src/v0.8/vrf/dev/VRFConsumerBaseV2Plus.sol\":7931:7960  _vrfCoordinator == address(0) */\n      0xffffffffffffffffffffffffffffffffffffffff\n      and\n        /* \"https://github.com/smartcontractkit/chainlink/blob/develop/contracts/src/v0.8/vrf/dev/VRFConsumerBaseV2Plus.sol\":7931:7946  _vrfCoordinator */\n      dup2\n        /* \"https://github.com/smartcontractkit/chainlink/blob/develop/contracts/src/v0.8/vrf/dev/VRFConsumerBaseV2Plus.sol\":7931:7960  _vrfCoordinator == address(0) */\n      0xffffffffffffffffffffffffffffffffffffffff\n      and\n      sub\n        /* \"https://github.com/smartcontractkit/chainlink/blob/develop/contracts/src/v0.8/vrf/dev/VRFConsumerBaseV2Plus.sol\":7927:7997  if (_vrfCoordinator == address(0)) {... */\n      tag_217\n      jumpi\n        /* \"https://github.com/smartcontractkit/chainlink/blob/develop/contracts/src/v0.8/vrf/dev/VRFConsumerBaseV2Plus.sol\":7977:7990  ZeroAddress() */\n      mload(0x40)\n      0xd92e233d00000000000000000000000000000000000000000000000000000000\n      dup2\n      mstore\n      0x04\n      add\n      mload(0x40)\n      dup1\n      swap2\n      sub\n      swap1\n      revert\n        /* \"https://github.com/smartcontractkit/chainlink/blob/develop/contracts/src/v0.8/vrf/dev/VRFConsumerBaseV2Plus.sol\":7927:7997  if (_vrfCoordinator == address(0)) {... */\n    tag_217:\n        /* \"https://github.com/smartcontractkit/chainlink/blob/develop/contracts/src/v0.8/vrf/dev/VRFConsumerBaseV2Plus.sol\":8043:8058  _vrfCoordinator */\n      dup1\n        /* \"https://github.com/smartcontractkit/chainlink/blob/develop/contracts/src/v0.8/vrf/dev/VRFConsumerBaseV2Plus.sol\":8002:8018  s_vrfCoordinator */\n      0x02\n      0x00\n        /* \"https://github.com/smartcontractkit/chainlink/blob/develop/contracts/src/v0.8/vrf/dev/VRFConsumerBaseV2Plus.sol\":8002:8059  s_vrfCoordinator = IVRFCoordinatorV2Plus(_vrfCoordinator) */\n      0x0100\n      exp\n      dup2\n      sload\n      dup2\n      0xffffffffffffffffffffffffffffffffffffffff\n      mul\n      not\n      and\n      swap1\n      dup4\n      0xffffffffffffffffffffffffffffffffffffffff\n      and\n      mul\n      or\n      swap1\n      sstore\n      pop\n        /* \"https://github.com/smartcontractkit/chainlink/blob/develop/contracts/src/v0.8/vrf/dev/VRFConsumerBaseV2Plus.sol\":8071:8102  CoordinatorSet(_vrfCoordinator) */\n      0xd1a6a14209a385a964d036e404cb5cfb71f4000cdb03c9366292430787261be6\n        /* \"https://github.com/smartcontractkit/chainlink/blob/develop/contracts/src/v0.8/vrf/dev/VRFConsumerBaseV2Plus.sol\":8086:8101  _vrfCoordinator */\n      dup2\n        /* \"https://github.com/smartcontractkit/chainlink/blob/develop/contracts/src/v0.8/vrf/dev/VRFConsumerBaseV2Plus.sol\":8071:8102  CoordinatorSet(_vrfCoordinator) */\n      mload(0x40)\n      tag_218\n      swap2\n      swap1\n      tag_129\n      jump\t// in\n    tag_218:\n      mload(0x40)\n      dup1\n      swap2\n      sub\n      swap1\n      log1\n        /* \"https://github.com/smartcontractkit/chainlink/blob/develop/contracts/src/v0.8/vrf/dev/VRFConsumerBaseV2Plus.sol\":7831:8107  function setCoordinator(address _vrfCoordinator) external override onlyOwnerOrCoordinator {... */\n      pop\n      jump\t// out\n        /* \"https://github.com/smartcontractkit/chainlink/blob/develop/contracts/src/v0.8/vrf/dev/VRFConsumerBaseV2Plus.sol\":6077:6122  IVRFCoordinatorV2Plus public s_vrfCoordinator */\n    tag_137:\n      0x02\n      0x00\n      swap1\n      sload\n      swap1\n      0x0100\n      exp\n      swap1\n      div\n      0xffffffffffffffffffffffffffffffffffffffff\n      and\n      dup2\n      jump\t// out\n        /* \"raffle.sol\":759:781  uint public totalLimit */\n    tag_142:\n      sload(0x05)\n      dup2\n      jump\t// out\n        /* \"raffle.sol\":1243:1281  uint16 public requestConfirmations = 3 */\n    tag_146:\n      0x13\n      0x04\n      swap1\n      sload\n      swap1\n      0x0100\n      exp\n      swap1\n      div\n      0xffff\n      and\n      dup2\n      jump\t// out\n        /* \"raffle.sol\":2550:3534  function requestRandomNumber(uint _maxRange) external onlyOwner {... */\n    tag_153:\n        /* \"https://github.com/smartcontractkit/chainlink/blob/develop/contracts/src/v0.8/shared/access/ConfirmedOwnerWithProposal.sol\":2075:2095  _validateOwnership() */\n      tag_220\n        /* \"https://github.com/smartcontractkit/chainlink/blob/develop/contracts/src/v0.8/shared/access/ConfirmedOwnerWithProposal.sol\":2075:2093  _validateOwnership */\n      tag_221\n        /* \"https://github.com/smartcontractkit/chainlink/blob/develop/contracts/src/v0.8/shared/access/ConfirmedOwnerWithProposal.sol\":2075:2095  _validateOwnership() */\n      jump\t// in\n    tag_220:\n        /* \"raffle.sol\":2633:2648  randomGenerated */\n      0x0a\n      0x00\n      swap1\n      sload\n      swap1\n      0x0100\n      exp\n      swap1\n      div\n      0xff\n      and\n        /* \"raffle.sol\":2632:2648  !randomGenerated */\n      iszero\n        /* \"raffle.sol\":2624:2684  require(!randomGenerated, \"Random number already generated\") */\n      tag_223\n      jumpi\n      mload(0x40)\n      0x08c379a000000000000000000000000000000000000000000000000000000000\n      dup2\n      mstore\n      0x04\n      add\n      tag_224\n      swap1\n      tag_225\n      jump\t// in\n    tag_224:\n      mload(0x40)\n      dup1\n      swap2\n      sub\n      swap1\n      revert\n    tag_223:\n        /* \"raffle.sol\":2714:2715  0 */\n      0x00\n        /* \"raffle.sol\":2702:2711  _maxRange */\n      dup2\n        /* \"raffle.sol\":2702:2715  _maxRange > 0 */\n      gt\n        /* \"raffle.sol\":2694:2752  require(_maxRange > 0, \"Max range must be greater than 0\") */\n      tag_226\n      jumpi\n      mload(0x40)\n      0x08c379a000000000000000000000000000000000000000000000000000000000\n      dup2\n      mstore\n      0x04\n      add\n      tag_227\n      swap1\n      tag_228\n      jump\t// in\n    tag_227:\n      mload(0x40)\n      dup1\n      swap2\n      sub\n      swap1\n      revert\n    tag_226:\n        /* \"raffle.sol\":2773:2782  _maxRange */\n      dup1\n        /* \"raffle.sol\":2762:2770  maxRange */\n      0x11\n        /* \"raffle.sol\":2762:2782  maxRange = _maxRange */\n      dup2\n      swap1\n      sstore\n      pop\n        /* \"raffle.sol\":2846:2895  VRFV2PlusClient.RandomWordsRequest memory request */\n      0x00\n        /* \"raffle.sol\":2898:3323  VRFV2PlusClient.RandomWordsRequest({... */\n      mload(0x40)\n      dup1\n      0xc0\n      add\n      0x40\n      mstore\n      dup1\n        /* \"raffle.sol\":2956:2963  keyHash */\n      sload(0x12)\n        /* \"raffle.sol\":2898:3323  VRFV2PlusClient.RandomWordsRequest({... */\n      dup2\n      mstore\n      0x20\n      add\n        /* \"raffle.sol\":2984:2998  subscriptionId */\n      sload(0x0f)\n        /* \"raffle.sol\":2898:3323  VRFV2PlusClient.RandomWordsRequest({... */\n      dup2\n      mstore\n      0x20\n      add\n        /* \"raffle.sol\":3034:3054  requestConfirmations */\n      0x13\n      0x04\n      swap1\n      sload\n      swap1\n      0x0100\n      exp\n      swap1\n      div\n      0xffff\n      and\n        /* \"raffle.sol\":2898:3323  VRFV2PlusClient.RandomWordsRequest({... */\n      0xffff\n      and\n      dup2\n      mstore\n      0x20\n      add\n        /* \"raffle.sol\":3086:3102  callbackGasLimit */\n      0x13\n      0x00\n      swap1\n      sload\n      swap1\n      0x0100\n      exp\n      swap1\n      div\n      0xffffffff\n      and\n        /* \"raffle.sol\":2898:3323  VRFV2PlusClient.RandomWordsRequest({... */\n      0xffffffff\n      and\n      dup2\n      mstore\n      0x20\n      add\n        /* \"raffle.sol\":3126:3134  numWords */\n      0x13\n      0x06\n      swap1\n      sload\n      swap1\n      0x0100\n      exp\n      swap1\n      div\n      0xffffffff\n      and\n        /* \"raffle.sol\":2898:3323  VRFV2PlusClient.RandomWordsRequest({... */\n      0xffffffff\n      and\n      dup2\n      mstore\n      0x20\n      add\n        /* \"raffle.sol\":3159:3312  VRFV2PlusClient._argsToBytes(VRFV2PlusClient.ExtraArgsV1({... */\n      tag_229\n        /* \"raffle.sol\":3188:3311  VRFV2PlusClient.ExtraArgsV1({... */\n      mload(0x40)\n      dup1\n      0x20\n      add\n      0x40\n      mstore\n      dup1\n        /* \"raffle.sol\":3249:3254  false */\n      0x00\n        /* \"raffle.sol\":3188:3311  VRFV2PlusClient.ExtraArgsV1({... */\n      iszero\n      iszero\n      dup2\n      mstore\n      pop\n        /* \"raffle.sol\":3159:3187  VRFV2PlusClient._argsToBytes */\n      tag_230\n        /* \"raffle.sol\":3159:3312  VRFV2PlusClient._argsToBytes(VRFV2PlusClient.ExtraArgsV1({... */\n      jump\t// in\n    tag_229:\n        /* \"raffle.sol\":2898:3323  VRFV2PlusClient.RandomWordsRequest({... */\n      dup2\n      mstore\n      pop\n        /* \"raffle.sol\":2846:3323  VRFV2PlusClient.RandomWordsRequest memory request = VRFV2PlusClient.RandomWordsRequest({... */\n      swap1\n      pop\n        /* \"raffle.sol\":3334:3351  uint256 requestId */\n      0x00\n        /* \"raffle.sol\":3354:3365  COORDINATOR */\n      0x13\n      0x0a\n      swap1\n      sload\n      swap1\n      0x0100\n      exp\n      swap1\n      div\n      0xffffffffffffffffffffffffffffffffffffffff\n      and\n        /* \"raffle.sol\":3354:3384  COORDINATOR.requestRandomWords */\n      0xffffffffffffffffffffffffffffffffffffffff\n      and\n      0x9b1c385e\n        /* \"raffle.sol\":3385:3392  request */\n      dup4\n        /* \"raffle.sol\":3354:3393  COORDINATOR.requestRandomWords(request) */\n      mload(0x40)\n      dup3\n      0xffffffff\n      and\n      0xe0\n      shl\n      dup2\n      mstore\n      0x04\n      add\n      tag_231\n      swap2\n      swap1\n      tag_232\n      jump\t// in\n    tag_231:\n      0x20\n      mload(0x40)\n      dup1\n      dup4\n      sub\n      dup2\n      0x00\n      dup8\n      gas\n      call\n      iszero\n      dup1\n      iszero\n      tag_234\n      jumpi\n      returndatasize\n      0x00\n      dup1\n      returndatacopy\n      revert(0x00, returndatasize)\n    tag_234:\n      pop\n      pop\n      pop\n      pop\n      mload(0x40)\n      returndatasize\n      not(0x1f)\n      0x1f\n      dup3\n      add\n      and\n      dup3\n      add\n      dup1\n      0x40\n      mstore\n      pop\n      dup2\n      add\n      swap1\n      tag_235\n      swap2\n      swap1\n      tag_236\n      jump\t// in\n    tag_235:\n        /* \"raffle.sol\":3334:3393  uint256 requestId = COORDINATOR.requestRandomWords(request) */\n      swap1\n      pop\n        /* \"raffle.sol\":3446:3450  true */\n      0x01\n        /* \"raffle.sol\":3428:3443  randomGenerated */\n      0x0a\n      0x00\n        /* \"raffle.sol\":3428:3450  randomGenerated = true */\n      0x0100\n      exp\n      dup2\n      sload\n      dup2\n      0xff\n      mul\n      not\n      and\n      swap1\n      dup4\n      iszero\n      iszero\n      mul\n      or\n      swap1\n      sstore\n      pop\n        /* \"raffle.sol\":3495:3527  RandomNumberRequested(requestId) */\n      0x5a82a565b8cc97bc62f2041e057e918f6b3b7b4185104d7d4a52ed5c711e7232\n        /* \"raffle.sol\":3517:3526  requestId */\n      dup2\n        /* \"raffle.sol\":3495:3527  RandomNumberRequested(requestId) */\n      mload(0x40)\n      tag_237\n      swap2\n      swap1\n      tag_49\n      jump\t// in\n    tag_237:\n      mload(0x40)\n      dup1\n      swap2\n      sub\n      swap1\n      log1\n        /* \"raffle.sol\":2614:3534  {... */\n      pop\n      pop\n        /* \"raffle.sol\":2550:3534  function requestRandomNumber(uint _maxRange) external onlyOwner {... */\n      pop\n      jump\t// out\n        /* \"raffle.sol\":819:858  uint public withdrawalCooldown = 1 days */\n    tag_156:\n      sload(0x07)\n      dup2\n      jump\t// out\n        /* \"raffle.sol\":1406:1433  address[] public depositors */\n    tag_161:\n      0x15\n      dup2\n      dup2\n      sload\n      dup2\n      lt\n      tag_238\n      jumpi\n      0x00\n      dup1\n      revert\n    tag_238:\n      swap1\n      0x00\n      mstore\n      keccak256(0x00, 0x20)\n      add\n      0x00\n      swap2\n      pop\n      sload\n      swap1\n      0x0100\n      exp\n      swap1\n      div\n      0xffffffffffffffffffffffffffffffffffffffff\n      and\n      dup2\n      jump\t// out\n        /* \"raffle.sol\":1439:1483  mapping(address => bool) public hasDeposited */\n    tag_166:\n      mstore(0x20, 0x16)\n      dup1\n      0x00\n      mstore\n      keccak256(0x00, 0x40)\n      0x00\n      swap2\n      pop\n      sload\n      swap1\n      0x0100\n      exp\n      swap1\n      div\n      0xff\n      and\n      dup2\n      jump\t// out\n        /* \"https://github.com/smartcontractkit/chainlink/blob/develop/contracts/src/v0.8/shared/access/ConfirmedOwnerWithProposal.sol\":847:945  function transferOwnership(address to) public override onlyOwner {... */\n    tag_171:\n        /* \"https://github.com/smartcontractkit/chainlink/blob/develop/contracts/src/v0.8/shared/access/ConfirmedOwnerWithProposal.sol\":2075:2095  _validateOwnership() */\n      tag_241\n        /* \"https://github.com/smartcontractkit/chainlink/blob/develop/contracts/src/v0.8/shared/access/ConfirmedOwnerWithProposal.sol\":2075:2093  _validateOwnership */\n      tag_221\n        /* \"https://github.com/smartcontractkit/chainlink/blob/develop/contracts/src/v0.8/shared/access/ConfirmedOwnerWithProposal.sol\":2075:2095  _validateOwnership() */\n      jump\t// in\n    tag_241:\n        /* \"https://github.com/smartcontractkit/chainlink/blob/develop/contracts/src/v0.8/shared/access/ConfirmedOwnerWithProposal.sol\":918:940  _transferOwnership(to) */\n      tag_243\n        /* \"https://github.com/smartcontractkit/chainlink/blob/develop/contracts/src/v0.8/shared/access/ConfirmedOwnerWithProposal.sol\":937:939  to */\n      dup2\n        /* \"https://github.com/smartcontractkit/chainlink/blob/develop/contracts/src/v0.8/shared/access/ConfirmedOwnerWithProposal.sol\":918:936  _transferOwnership */\n      tag_244\n        /* \"https://github.com/smartcontractkit/chainlink/blob/develop/contracts/src/v0.8/shared/access/ConfirmedOwnerWithProposal.sol\":918:940  _transferOwnership(to) */\n      jump\t// in\n    tag_243:\n        /* \"https://github.com/smartcontractkit/chainlink/blob/develop/contracts/src/v0.8/shared/access/ConfirmedOwnerWithProposal.sol\":847:945  function transferOwnership(address to) public override onlyOwner {... */\n      pop\n      jump\t// out\n        /* \"raffle.sol\":4880:5259  function withdraw(address payable _to, uint _amount) external onlyOwner nonReentrant afterUnlockDate {... */\n    tag_176:\n        /* \"https://github.com/smartcontractkit/chainlink/blob/develop/contracts/src/v0.8/shared/access/ConfirmedOwnerWithProposal.sol\":2075:2095  _validateOwnership() */\n      tag_246\n        /* \"https://github.com/smartcontractkit/chainlink/blob/develop/contracts/src/v0.8/shared/access/ConfirmedOwnerWithProposal.sol\":2075:2093  _validateOwnership */\n      tag_221\n        /* \"https://github.com/smartcontractkit/chainlink/blob/develop/contracts/src/v0.8/shared/access/ConfirmedOwnerWithProposal.sol\":2075:2095  _validateOwnership() */\n      jump\t// in\n    tag_246:\n        /* \"@openzeppelin/contracts/security/ReentrancyGuard.sol\":2261:2282  _nonReentrantBefore() */\n      tag_248\n        /* \"@openzeppelin/contracts/security/ReentrancyGuard.sol\":2261:2280  _nonReentrantBefore */\n      tag_249\n        /* \"@openzeppelin/contracts/security/ReentrancyGuard.sol\":2261:2282  _nonReentrantBefore() */\n      jump\t// in\n    tag_248:\n        /* \"raffle.sol\":1840:1850  unlockDate */\n      sload(0x09)\n        /* \"raffle.sol\":1821:1836  block.timestamp */\n      timestamp\n        /* \"raffle.sol\":1821:1850  block.timestamp >= unlockDate */\n      lt\n      iszero\n        /* \"raffle.sol\":1813:1902  require(block.timestamp >= unlockDate, \"acao nao permitida antes da data de desbloqueio\") */\n      tag_251\n      jumpi\n      mload(0x40)\n      0x08c379a000000000000000000000000000000000000000000000000000000000\n      dup2\n      mstore\n      0x04\n      add\n      tag_252\n      swap1\n      tag_253\n      jump\t// in\n    tag_252:\n      mload(0x40)\n      dup1\n      swap2\n      sub\n      swap1\n      revert\n    tag_251:\n        /* \"raffle.sol\":5010:5031  address(this).balance */\n      selfbalance\n        /* \"raffle.sol\":4999:5006  _amount */\n      dup2\n        /* \"raffle.sol\":4999:5031  _amount <= address(this).balance */\n      gt\n      iszero\n        /* \"raffle.sol\":4991:5054  require(_amount <= address(this).balance, \"Saldo insuficiente\") */\n      tag_255\n      jumpi\n      mload(0x40)\n      0x08c379a000000000000000000000000000000000000000000000000000000000\n      dup2\n      mstore\n      0x04\n      add\n      tag_256\n      swap1\n      tag_257\n      jump\t// in\n    tag_256:\n      mload(0x40)\n      dup1\n      swap2\n      sub\n      swap1\n      revert\n    tag_255:\n        /* \"raffle.sol\":5085:5100  block.timestamp */\n      timestamp\n        /* \"raffle.sol\":5064:5082  lastWithdrawalTime */\n      0x08\n        /* \"raffle.sol\":5064:5100  lastWithdrawalTime = block.timestamp */\n      dup2\n      swap1\n      sstore\n      pop\n        /* \"raffle.sol\":5111:5123  bool success */\n      0x00\n        /* \"raffle.sol\":5129:5132  _to */\n      dup3\n        /* \"raffle.sol\":5129:5137  _to.call */\n      0xffffffffffffffffffffffffffffffffffffffff\n      and\n        /* \"raffle.sol\":5145:5152  _amount */\n      dup3\n        /* \"raffle.sol\":5129:5157  _to.call{value: _amount}(\"\") */\n      mload(0x40)\n      tag_258\n      swap1\n      tag_41\n      jump\t// in\n    tag_258:\n      0x00\n      mload(0x40)\n      dup1\n      dup4\n      sub\n      dup2\n      dup6\n      dup8\n      gas\n      call\n      swap3\n      pop\n      pop\n      pop\n      returndatasize\n      dup1\n      0x00\n      dup2\n      eq\n      tag_261\n      jumpi\n      mload(0x40)\n      swap2\n      pop\n      and(add(returndatasize, 0x3f), not(0x1f))\n      dup3\n      add\n      0x40\n      mstore\n      returndatasize\n      dup3\n      mstore\n      returndatasize\n      0x00\n      0x20\n      dup5\n      add\n      returndatacopy\n      jump(tag_260)\n    tag_261:\n      0x60\n      swap2\n      pop\n    tag_260:\n      pop\n        /* \"raffle.sol\":5110:5157  (bool success, ) = _to.call{value: _amount}(\"\") */\n      pop\n      swap1\n      pop\n        /* \"raffle.sol\":5175:5182  success */\n      dup1\n        /* \"raffle.sol\":5167:5204  require(success, \"Falha na retirada\") */\n      tag_262\n      jumpi\n      mload(0x40)\n      0x08c379a000000000000000000000000000000000000000000000000000000000\n      dup2\n      mstore\n      0x04\n      add\n      tag_263\n      swap1\n      tag_264\n      jump\t// in\n    tag_263:\n      mload(0x40)\n      dup1\n      swap2\n      sub\n      swap1\n      revert\n    tag_262:\n        /* \"raffle.sol\":5230:5233  _to */\n      dup3\n        /* \"raffle.sol\":5219:5252  Withdrawal(_to, _amount, \"Ether\") */\n      0xffffffffffffffffffffffffffffffffffffffff\n      and\n      0xecb269d89bfded20a4f5e6e51b509df1e3309a995946c9be8d6a8e2ddfa6b89c\n        /* \"raffle.sol\":5235:5242  _amount */\n      dup4\n        /* \"raffle.sol\":5219:5252  Withdrawal(_to, _amount, \"Ether\") */\n      mload(0x40)\n      tag_265\n      swap2\n      swap1\n      tag_266\n      jump\t// in\n    tag_265:\n      mload(0x40)\n      dup1\n      swap2\n      sub\n      swap1\n      log2\n        /* \"raffle.sol\":4981:5259  {... */\n      pop\n        /* \"@openzeppelin/contracts/security/ReentrancyGuard.sol\":2303:2323  _nonReentrantAfter() */\n      tag_267\n        /* \"@openzeppelin/contracts/security/ReentrancyGuard.sol\":2303:2321  _nonReentrantAfter */\n      tag_268\n        /* \"@openzeppelin/contracts/security/ReentrancyGuard.sol\":2303:2323  _nonReentrantAfter() */\n      jump\t// in\n    tag_267:\n        /* \"raffle.sol\":4880:5259  function withdraw(address payable _to, uint _amount) external onlyOwner nonReentrant afterUnlockDate {... */\n      pop\n      pop\n      jump\t// out\n        /* \"raffle.sol\":1360:1400  mapping(address => uint) public deposits */\n    tag_180:\n      mstore(0x20, 0x14)\n      dup1\n      0x00\n      mstore\n      keccak256(0x00, 0x40)\n      0x00\n      swap2\n      pop\n      swap1\n      pop\n      sload\n      dup2\n      jump\t// out\n        /* \"raffle.sol\":787:813  uint public totalDeposited */\n    tag_184:\n      sload(0x06)\n      dup2\n      jump\t// out\n        /* \"raffle.sol\":3540:3738  function fulfillRandomWords(uint256, uint256[] calldata randomWords) internal override {... */\n    tag_197:\n        /* \"raffle.sol\":3680:3681  1 */\n      0x01\n        /* \"raffle.sol\":3669:3677  maxRange */\n      sload(0x11)\n        /* \"raffle.sol\":3652:3663  randomWords */\n      dup4\n      dup4\n        /* \"raffle.sol\":3664:3665  0 */\n      0x00\n        /* \"raffle.sol\":3652:3666  randomWords[0] */\n      dup2\n      dup2\n      lt\n      tag_270\n      jumpi\n      tag_271\n      tag_272\n      jump\t// in\n    tag_271:\n    tag_270:\n      swap1\n      pop\n      0x20\n      mul\n      add\n      calldataload\n        /* \"raffle.sol\":3652:3677  randomWords[0] % maxRange */\n      tag_273\n      swap2\n      swap1\n      tag_274\n      jump\t// in\n    tag_273:\n        /* \"raffle.sol\":3652:3681  randomWords[0] % maxRange + 1 */\n      tag_275\n      swap2\n      swap1\n      tag_59\n      jump\t// in\n    tag_275:\n        /* \"raffle.sol\":3637:3649  randomResult */\n      0x10\n        /* \"raffle.sol\":3637:3681  randomResult = randomWords[0] % maxRange + 1 */\n      dup2\n      swap1\n      sstore\n      pop\n        /* \"raffle.sol\":3696:3731  RandomNumberGenerated(randomResult) */\n      0xacb85192b17e57cdd6ffdc2af021cc70c3a2269771b37b82dd36695fec903af5\n        /* \"raffle.sol\":3718:3730  randomResult */\n      sload(0x10)\n        /* \"raffle.sol\":3696:3731  RandomNumberGenerated(randomResult) */\n      mload(0x40)\n      tag_276\n      swap2\n      swap1\n      tag_49\n      jump\t// in\n    tag_276:\n      mload(0x40)\n      dup1\n      swap2\n      sub\n      swap1\n      log1\n        /* \"raffle.sol\":3540:3738  function fulfillRandomWords(uint256, uint256[] calldata randomWords) internal override {... */\n      pop\n      pop\n      pop\n      jump\t// out\n        /* \"https://github.com/smartcontractkit/chainlink/blob/develop/contracts/src/v0.8/shared/access/ConfirmedOwnerWithProposal.sol\":1809:1971  function _validateOwnership() internal view {... */\n    tag_221:\n        /* \"https://github.com/smartcontractkit/chainlink/blob/develop/contracts/src/v0.8/shared/access/ConfirmedOwnerWithProposal.sol\":1932:1939  s_owner */\n      0x00\n      dup1\n      sload\n      swap1\n      0x0100\n      exp\n      swap1\n      div\n      0xffffffffffffffffffffffffffffffffffffffff\n      and\n        /* \"https://github.com/smartcontractkit/chainlink/blob/develop/contracts/src/v0.8/shared/access/ConfirmedOwnerWithProposal.sol\":1918:1939  msg.sender == s_owner */\n      0xffffffffffffffffffffffffffffffffffffffff\n      and\n        /* \"https://github.com/smartcontractkit/chainlink/blob/develop/contracts/src/v0.8/shared/access/ConfirmedOwnerWithProposal.sol\":1918:1928  msg.sender */\n      caller\n        /* \"https://github.com/smartcontractkit/chainlink/blob/develop/contracts/src/v0.8/shared/access/ConfirmedOwnerWithProposal.sol\":1918:1939  msg.sender == s_owner */\n      0xffffffffffffffffffffffffffffffffffffffff\n      and\n      eq\n        /* \"https://github.com/smartcontractkit/chainlink/blob/develop/contracts/src/v0.8/shared/access/ConfirmedOwnerWithProposal.sol\":1910:1966  require(msg.sender == s_owner, \"Only callable by owner\") */\n      tag_278\n      jumpi\n      mload(0x40)\n      0x08c379a000000000000000000000000000000000000000000000000000000000\n      dup2\n      mstore\n      0x04\n      add\n      tag_279\n      swap1\n      tag_280\n      jump\t// in\n    tag_279:\n      mload(0x40)\n      dup1\n      swap2\n      sub\n      swap1\n      revert\n    tag_278:\n        /* \"https://github.com/smartcontractkit/chainlink/blob/develop/contracts/src/v0.8/shared/access/ConfirmedOwnerWithProposal.sol\":1809:1971  function _validateOwnership() internal view {... */\n      jump\t// out\n        /* \"https://github.com/smartcontractkit/chainlink/blob/develop/contracts/src/v0.8/vrf/dev/libraries/VRFV2PlusClient.sol\":475:638  function _argsToBytes(ExtraArgsV1 memory extraArgs) internal pure returns (bytes memory bts) {... */\n    tag_230:\n        /* \"https://github.com/smartcontractkit/chainlink/blob/develop/contracts/src/v0.8/vrf/dev/libraries/VRFV2PlusClient.sol\":550:566  bytes memory bts */\n      0x60\n        /* \"https://github.com/smartcontractkit/chainlink/blob/develop/contracts/src/v0.8/vrf/dev/libraries/VRFV2PlusClient.sol\":211:239  keccak256(\"VRF ExtraArgsV1\") */\n      0x92fd13387c7fe7befbc38d303d6468778fb9731bc4583f17d92989c6fcfdeaaa\n        /* \"https://github.com/smartcontractkit/chainlink/blob/develop/contracts/src/v0.8/vrf/dev/libraries/VRFV2PlusClient.sol\":623:632  extraArgs */\n      dup3\n        /* \"https://github.com/smartcontractkit/chainlink/blob/develop/contracts/src/v0.8/vrf/dev/libraries/VRFV2PlusClient.sol\":581:633  abi.encodeWithSelector(EXTRA_ARGS_V1_TAG, extraArgs) */\n      add(0x24, mload(0x40))\n      tag_282\n      swap2\n      swap1\n      tag_283\n      jump\t// in\n    tag_282:\n      mload(0x40)\n      0x20\n      dup2\n      dup4\n      sub\n      sub\n      dup2\n      mstore\n      swap1\n      0x40\n      mstore\n      swap1\n      not(0xffffffffffffffffffffffffffffffffffffffffffffffffffffffff)\n      and\n      0x20\n      dup3\n      add\n      dup1\n      mload\n      0xffffffffffffffffffffffffffffffffffffffffffffffffffffffff\n      dup4\n      dup2\n      dup4\n      and\n      or\n      dup4\n      mstore\n      pop\n      pop\n      pop\n      pop\n        /* \"https://github.com/smartcontractkit/chainlink/blob/develop/contracts/src/v0.8/vrf/dev/libraries/VRFV2PlusClient.sol\":574:633  return abi.encodeWithSelector(EXTRA_ARGS_V1_TAG, extraArgs) */\n      swap1\n      pop\n        /* \"https://github.com/smartcontractkit/chainlink/blob/develop/contracts/src/v0.8/vrf/dev/libraries/VRFV2PlusClient.sol\":475:638  function _argsToBytes(ExtraArgsV1 memory extraArgs) internal pure returns (bytes memory bts) {... */\n      swap2\n      swap1\n      pop\n      jump\t// out\n        /* \"https://github.com/smartcontractkit/chainlink/blob/develop/contracts/src/v0.8/shared/access/ConfirmedOwnerWithProposal.sol\":1536:1775  function _transferOwnership(address to) private {... */\n    tag_244:\n        /* \"https://github.com/smartcontractkit/chainlink/blob/develop/contracts/src/v0.8/shared/access/ConfirmedOwnerWithProposal.sol\":1655:1665  msg.sender */\n      caller\n        /* \"https://github.com/smartcontractkit/chainlink/blob/develop/contracts/src/v0.8/shared/access/ConfirmedOwnerWithProposal.sol\":1649:1665  to != msg.sender */\n      0xffffffffffffffffffffffffffffffffffffffff\n      and\n        /* \"https://github.com/smartcontractkit/chainlink/blob/develop/contracts/src/v0.8/shared/access/ConfirmedOwnerWithProposal.sol\":1649:1651  to */\n      dup2\n        /* \"https://github.com/smartcontractkit/chainlink/blob/develop/contracts/src/v0.8/shared/access/ConfirmedOwnerWithProposal.sol\":1649:1665  to != msg.sender */\n      0xffffffffffffffffffffffffffffffffffffffff\n      and\n      sub\n        /* \"https://github.com/smartcontractkit/chainlink/blob/develop/contracts/src/v0.8/shared/access/ConfirmedOwnerWithProposal.sol\":1641:1693  require(to != msg.sender, \"Cannot transfer to self\") */\n      tag_285\n      jumpi\n      mload(0x40)\n      0x08c379a000000000000000000000000000000000000000000000000000000000\n      dup2\n      mstore\n      0x04\n      add\n      tag_286\n      swap1\n      tag_287\n      jump\t// in\n    tag_286:\n      mload(0x40)\n      dup1\n      swap2\n      sub\n      swap1\n      revert\n    tag_285:\n        /* \"https://github.com/smartcontractkit/chainlink/blob/develop/contracts/src/v0.8/shared/access/ConfirmedOwnerWithProposal.sol\":1717:1719  to */\n      dup1\n        /* \"https://github.com/smartcontractkit/chainlink/blob/develop/contracts/src/v0.8/shared/access/ConfirmedOwnerWithProposal.sol\":1700:1714  s_pendingOwner */\n      0x01\n      0x00\n        /* \"https://github.com/smartcontractkit/chainlink/blob/develop/contracts/src/v0.8/shared/access/ConfirmedOwnerWithProposal.sol\":1700:1719  s_pendingOwner = to */\n      0x0100\n      exp\n      dup2\n      sload\n      dup2\n      0xffffffffffffffffffffffffffffffffffffffff\n      mul\n      not\n      and\n      swap1\n      dup4\n      0xffffffffffffffffffffffffffffffffffffffff\n      and\n      mul\n      or\n      swap1\n      sstore\n      pop\n        /* \"https://github.com/smartcontractkit/chainlink/blob/develop/contracts/src/v0.8/shared/access/ConfirmedOwnerWithProposal.sol\":1767:1769  to */\n      dup1\n        /* \"https://github.com/smartcontractkit/chainlink/blob/develop/contracts/src/v0.8/shared/access/ConfirmedOwnerWithProposal.sol\":1731:1770  OwnershipTransferRequested(s_owner, to) */\n      0xffffffffffffffffffffffffffffffffffffffff\n      and\n        /* \"https://github.com/smartcontractkit/chainlink/blob/develop/contracts/src/v0.8/shared/access/ConfirmedOwnerWithProposal.sol\":1758:1765  s_owner */\n      0x00\n      dup1\n      sload\n      swap1\n      0x0100\n      exp\n      swap1\n      div\n      0xffffffffffffffffffffffffffffffffffffffff\n      and\n        /* \"https://github.com/smartcontractkit/chainlink/blob/develop/contracts/src/v0.8/shared/access/ConfirmedOwnerWithProposal.sol\":1731:1770  OwnershipTransferRequested(s_owner, to) */\n      0xffffffffffffffffffffffffffffffffffffffff\n      and\n      0xed8889f560326eb138920d842192f0eb3dd22b4f139c87a2c57538e05bae1278\n      mload(0x40)\n      mload(0x40)\n      dup1\n      swap2\n      sub\n      swap1\n      log3\n        /* \"https://github.com/smartcontractkit/chainlink/blob/develop/contracts/src/v0.8/shared/access/ConfirmedOwnerWithProposal.sol\":1536:1775  function _transferOwnership(address to) private {... */\n      pop\n      jump\t// out\n        /* \"@openzeppelin/contracts/security/ReentrancyGuard.sol\":2336:2623  function _nonReentrantBefore() private {... */\n    tag_249:\n        /* \"@openzeppelin/contracts/security/ReentrancyGuard.sol\":1759:1760  2 */\n      0x02\n        /* \"@openzeppelin/contracts/security/ReentrancyGuard.sol\":2468:2475  _status */\n      sload(0x03)\n        /* \"@openzeppelin/contracts/security/ReentrancyGuard.sol\":2468:2487  _status != _ENTERED */\n      sub\n        /* \"@openzeppelin/contracts/security/ReentrancyGuard.sol\":2460:2523  require(_status != _ENTERED, \"ReentrancyGuard: reentrant call\") */\n      tag_289\n      jumpi\n      mload(0x40)\n      0x08c379a000000000000000000000000000000000000000000000000000000000\n      dup2\n      mstore\n      0x04\n      add\n      tag_290\n      swap1\n      tag_291\n      jump\t// in\n    tag_290:\n      mload(0x40)\n      dup1\n      swap2\n      sub\n      swap1\n      revert\n    tag_289:\n        /* \"@openzeppelin/contracts/security/ReentrancyGuard.sol\":1759:1760  2 */\n      0x02\n        /* \"@openzeppelin/contracts/security/ReentrancyGuard.sol\":2598:2605  _status */\n      0x03\n        /* \"@openzeppelin/contracts/security/ReentrancyGuard.sol\":2598:2616  _status = _ENTERED */\n      dup2\n      swap1\n      sstore\n      pop\n        /* \"@openzeppelin/contracts/security/ReentrancyGuard.sol\":2336:2623  function _nonReentrantBefore() private {... */\n      jump\t// out\n        /* \"@openzeppelin/contracts/security/ReentrancyGuard.sol\":2629:2838  function _nonReentrantAfter() private {... */\n    tag_268:\n        /* \"@openzeppelin/contracts/security/ReentrancyGuard.sol\":1716:1717  1 */\n      0x01\n        /* \"@openzeppelin/contracts/security/ReentrancyGuard.sol\":2809:2816  _status */\n      0x03\n        /* \"@openzeppelin/contracts/security/ReentrancyGuard.sol\":2809:2831  _status = _NOT_ENTERED */\n      dup2\n      swap1\n      sstore\n      pop\n        /* \"@openzeppelin/contracts/security/ReentrancyGuard.sol\":2629:2838  function _nonReentrantAfter() private {... */\n      jump\t// out\n        /* \"#utility.yul\":7:176   */\n    tag_293:\n        /* \"#utility.yul\":91:102   */\n      0x00\n        /* \"#utility.yul\":125:131   */\n      dup3\n        /* \"#utility.yul\":120:123   */\n      dup3\n        /* \"#utility.yul\":113:132   */\n      mstore\n        /* \"#utility.yul\":165:169   */\n      0x20\n        /* \"#utility.yul\":160:163   */\n      dup3\n        /* \"#utility.yul\":156:170   */\n      add\n        /* \"#utility.yul\":141:170   */\n      swap1\n      pop\n        /* \"#utility.yul\":7:176   */\n      swap3\n      swap2\n      pop\n      pop\n      jump\t// out\n        /* \"#utility.yul\":182:363   */\n    tag_294:\n        /* \"#utility.yul\":322:355   */\n      0x4f2076616c6f72206465766520736572206d61696f7220717565207a65726f00\n        /* \"#utility.yul\":318:319   */\n      0x00\n        /* \"#utility.yul\":310:316   */\n      dup3\n        /* \"#utility.yul\":306:320   */\n      add\n        /* \"#utility.yul\":299:356   */\n      mstore\n        /* \"#utility.yul\":182:363   */\n      pop\n      jump\t// out\n        /* \"#utility.yul\":369:735   */\n    tag_295:\n        /* \"#utility.yul\":511:514   */\n      0x00\n        /* \"#utility.yul\":532:599   */\n      tag_379\n        /* \"#utility.yul\":596:598   */\n      0x1f\n        /* \"#utility.yul\":591:594   */\n      dup4\n        /* \"#utility.yul\":532:599   */\n      tag_293\n      jump\t// in\n    tag_379:\n        /* \"#utility.yul\":525:599   */\n      swap2\n      pop\n        /* \"#utility.yul\":608:701   */\n      tag_380\n        /* \"#utility.yul\":697:700   */\n      dup3\n        /* \"#utility.yul\":608:701   */\n      tag_294\n      jump\t// in\n    tag_380:\n        /* \"#utility.yul\":726:728   */\n      0x20\n        /* \"#utility.yul\":721:724   */\n      dup3\n        /* \"#utility.yul\":717:729   */\n      add\n        /* \"#utility.yul\":710:729   */\n      swap1\n      pop\n        /* \"#utility.yul\":369:735   */\n      swap2\n      swap1\n      pop\n      jump\t// out\n        /* \"#utility.yul\":741:1160   */\n    tag_38:\n        /* \"#utility.yul\":907:911   */\n      0x00\n        /* \"#utility.yul\":945:947   */\n      0x20\n        /* \"#utility.yul\":934:943   */\n      dup3\n        /* \"#utility.yul\":930:948   */\n      add\n        /* \"#utility.yul\":922:948   */\n      swap1\n      pop\n        /* \"#utility.yul\":994:1003   */\n      dup2\n        /* \"#utility.yul\":988:992   */\n      dup2\n        /* \"#utility.yul\":984:1004   */\n      sub\n        /* \"#utility.yul\":980:981   */\n      0x00\n        /* \"#utility.yul\":969:978   */\n      dup4\n        /* \"#utility.yul\":965:982   */\n      add\n        /* \"#utility.yul\":958:1005   */\n      mstore\n        /* \"#utility.yul\":1022:1153   */\n      tag_382\n        /* \"#utility.yul\":1148:1152   */\n      dup2\n        /* \"#utility.yul\":1022:1153   */\n      tag_295\n      jump\t// in\n    tag_382:\n        /* \"#utility.yul\":1014:1153   */\n      swap1\n      pop\n        /* \"#utility.yul\":741:1160   */\n      swap2\n      swap1\n      pop\n      jump\t// out\n        /* \"#utility.yul\":1166:1313   */\n    tag_296:\n        /* \"#utility.yul\":1267:1278   */\n      0x00\n        /* \"#utility.yul\":1304:1307   */\n      dup2\n        /* \"#utility.yul\":1289:1307   */\n      swap1\n      pop\n        /* \"#utility.yul\":1166:1313   */\n      swap3\n      swap2\n      pop\n      pop\n      jump\t// out\n        /* \"#utility.yul\":1319:1433   */\n    tag_297:\n      pop\n      jump\t// out\n        /* \"#utility.yul\":1439:1837   */\n    tag_298:\n        /* \"#utility.yul\":1598:1601   */\n      0x00\n        /* \"#utility.yul\":1619:1702   */\n      tag_386\n        /* \"#utility.yul\":1700:1701   */\n      0x00\n        /* \"#utility.yul\":1695:1698   */\n      dup4\n        /* \"#utility.yul\":1619:1702   */\n      tag_296\n      jump\t// in\n    tag_386:\n        /* \"#utility.yul\":1612:1702   */\n      swap2\n      pop\n        /* \"#utility.yul\":1711:1804   */\n      tag_387\n        /* \"#utility.yul\":1800:1803   */\n      dup3\n        /* \"#utility.yul\":1711:1804   */\n      tag_297\n      jump\t// in\n    tag_387:\n        /* \"#utility.yul\":1829:1830   */\n      0x00\n        /* \"#utility.yul\":1824:1827   */\n      dup3\n        /* \"#utility.yul\":1820:1831   */\n      add\n        /* \"#utility.yul\":1813:1831   */\n      swap1\n      pop\n        /* \"#utility.yul\":1439:1837   */\n      swap2\n      swap1\n      pop\n      jump\t// out\n        /* \"#utility.yul\":1843:2222   */\n    tag_41:\n        /* \"#utility.yul\":2027:2030   */\n      0x00\n        /* \"#utility.yul\":2049:2196   */\n      tag_389\n        /* \"#utility.yul\":2192:2195   */\n      dup3\n        /* \"#utility.yul\":2049:2196   */\n      tag_298\n      jump\t// in\n    tag_389:\n        /* \"#utility.yul\":2042:2196   */\n      swap2\n      pop\n        /* \"#utility.yul\":2213:2216   */\n      dup2\n        /* \"#utility.yul\":2206:2216   */\n      swap1\n      pop\n        /* \"#utility.yul\":1843:2222   */\n      swap2\n      swap1\n      pop\n      jump\t// out\n        /* \"#utility.yul\":2228:2394   */\n    tag_299:\n        /* \"#utility.yul\":2368:2386   */\n      0x5265656d626f6c736f2066616c686f7500000000000000000000000000000000\n        /* \"#utility.yul\":2364:2365   */\n      0x00\n        /* \"#utility.yul\":2356:2362   */\n      dup3\n        /* \"#utility.yul\":2352:2366   */\n      add\n        /* \"#utility.yul\":2345:2387   */\n      mstore\n        /* \"#utility.yul\":2228:2394   */\n      pop\n      jump\t// out\n        /* \"#utility.yul\":2400:2766   */\n    tag_300:\n        /* \"#utility.yul\":2542:2545   */\n      0x00\n        /* \"#utility.yul\":2563:2630   */\n      tag_392\n        /* \"#utility.yul\":2627:2629   */\n      0x10\n        /* \"#utility.yul\":2622:2625   */\n      dup4\n        /* \"#utility.yul\":2563:2630   */\n      tag_293\n      jump\t// in\n    tag_392:\n        /* \"#utility.yul\":2556:2630   */\n      swap2\n      pop\n        /* \"#utility.yul\":2639:2732   */\n      tag_393\n        /* \"#utility.yul\":2728:2731   */\n      dup3\n        /* \"#utility.yul\":2639:2732   */\n      tag_299\n      jump\t// in\n    tag_393:\n        /* \"#utility.yul\":2757:2759   */\n      0x20\n        /* \"#utility.yul\":2752:2755   */\n      dup3\n        /* \"#utility.yul\":2748:2760   */\n      add\n        /* \"#utility.yul\":2741:2760   */\n      swap1\n      pop\n        /* \"#utility.yul\":2400:2766   */\n      swap2\n      swap1\n      pop\n      jump\t// out\n        /* \"#utility.yul\":2772:3191   */\n    tag_47:\n        /* \"#utility.yul\":2938:2942   */\n      0x00\n        /* \"#utility.yul\":2976:2978   */\n      0x20\n        /* \"#utility.yul\":2965:2974   */\n      dup3\n        /* \"#utility.yul\":2961:2979   */\n      add\n        /* \"#utility.yul\":2953:2979   */\n      swap1\n      pop\n        /* \"#utility.yul\":3025:3034   */\n      dup2\n        /* \"#utility.yul\":3019:3023   */\n      dup2\n        /* \"#utility.yul\":3015:3035   */\n      sub\n        /* \"#utility.yul\":3011:3012   */\n      0x00\n        /* \"#utility.yul\":3000:3009   */\n      dup4\n        /* \"#utility.yul\":2996:3013   */\n      add\n        /* \"#utility.yul\":2989:3036   */\n      mstore\n        /* \"#utility.yul\":3053:3184   */\n      tag_395\n        /* \"#utility.yul\":3179:3183   */\n      dup2\n        /* \"#utility.yul\":3053:3184   */\n      tag_300\n      jump\t// in\n    tag_395:\n        /* \"#utility.yul\":3045:3184   */\n      swap1\n      pop\n        /* \"#utility.yul\":2772:3191   */\n      swap2\n      swap1\n      pop\n      jump\t// out\n        /* \"#utility.yul\":3197:3274   */\n    tag_301:\n        /* \"#utility.yul\":3234:3241   */\n      0x00\n        /* \"#utility.yul\":3263:3268   */\n      dup2\n        /* \"#utility.yul\":3252:3268   */\n      swap1\n      pop\n        /* \"#utility.yul\":3197:3274   */\n      swap2\n      swap1\n      pop\n      jump\t// out\n        /* \"#utility.yul\":3280:3398   */\n    tag_302:\n        /* \"#utility.yul\":3367:3391   */\n      tag_398\n        /* \"#utility.yul\":3385:3390   */\n      dup2\n        /* \"#utility.yul\":3367:3391   */\n      tag_301\n      jump\t// in\n    tag_398:\n        /* \"#utility.yul\":3362:3365   */\n      dup3\n        /* \"#utility.yul\":3355:3392   */\n      mstore\n        /* \"#utility.yul\":3280:3398   */\n      pop\n      pop\n      jump\t// out\n        /* \"#utility.yul\":3404:3626   */\n    tag_49:\n        /* \"#utility.yul\":3497:3501   */\n      0x00\n        /* \"#utility.yul\":3535:3537   */\n      0x20\n        /* \"#utility.yul\":3524:3533   */\n      dup3\n        /* \"#utility.yul\":3520:3538   */\n      add\n        /* \"#utility.yul\":3512:3538   */\n      swap1\n      pop\n        /* \"#utility.yul\":3548:3619   */\n      tag_400\n        /* \"#utility.yul\":3616:3617   */\n      0x00\n        /* \"#utility.yul\":3605:3614   */\n      dup4\n        /* \"#utility.yul\":3601:3618   */\n      add\n        /* \"#utility.yul\":3592:3598   */\n      dup5\n        /* \"#utility.yul\":3548:3619   */\n      tag_302\n      jump\t// in\n    tag_400:\n        /* \"#utility.yul\":3404:3626   */\n      swap3\n      swap2\n      pop\n      pop\n      jump\t// out\n        /* \"#utility.yul\":3632:3812   */\n    tag_303:\n        /* \"#utility.yul\":3680:3757   */\n      0x4e487b7100000000000000000000000000000000000000000000000000000000\n        /* \"#utility.yul\":3677:3678   */\n      0x00\n        /* \"#utility.yul\":3670:3758   */\n      mstore\n        /* \"#utility.yul\":3777:3781   */\n      0x11\n        /* \"#utility.yul\":3774:3775   */\n      0x04\n        /* \"#utility.yul\":3767:3782   */\n      mstore\n        /* \"#utility.yul\":3801:3805   */\n      0x24\n        /* \"#utility.yul\":3798:3799   */\n      0x00\n        /* \"#utility.yul\":3791:3806   */\n      revert\n        /* \"#utility.yul\":3818:4009   */\n    tag_59:\n        /* \"#utility.yul\":3858:3861   */\n      0x00\n        /* \"#utility.yul\":3877:3897   */\n      tag_403\n        /* \"#utility.yul\":3895:3896   */\n      dup3\n        /* \"#utility.yul\":3877:3897   */\n      tag_301\n      jump\t// in\n    tag_403:\n        /* \"#utility.yul\":3872:3897   */\n      swap2\n      pop\n        /* \"#utility.yul\":3911:3931   */\n      tag_404\n        /* \"#utility.yul\":3929:3930   */\n      dup4\n        /* \"#utility.yul\":3911:3931   */\n      tag_301\n      jump\t// in\n    tag_404:\n        /* \"#utility.yul\":3906:3931   */\n      swap3\n      pop\n        /* \"#utility.yul\":3954:3955   */\n      dup3\n        /* \"#utility.yul\":3951:3952   */\n      dup3\n        /* \"#utility.yul\":3947:3956   */\n      add\n        /* \"#utility.yul\":3940:3956   */\n      swap1\n      pop\n        /* \"#utility.yul\":3975:3978   */\n      dup1\n        /* \"#utility.yul\":3972:3973   */\n      dup3\n        /* \"#utility.yul\":3969:3979   */\n      gt\n        /* \"#utility.yul\":3966:4002   */\n      iszero\n      tag_405\n      jumpi\n        /* \"#utility.yul\":3982:4000   */\n      tag_406\n      tag_303\n      jump\t// in\n    tag_406:\n        /* \"#utility.yul\":3966:4002   */\n    tag_405:\n        /* \"#utility.yul\":3818:4009   */\n      swap3\n      swap2\n      pop\n      pop\n      jump\t// out\n        /* \"#utility.yul\":4015:4235   */\n    tag_304:\n        /* \"#utility.yul\":4155:4189   */\n      0x4c696d69746520746f74616c206465206465706f7369746f206174696e676964\n        /* \"#utility.yul\":4151:4152   */\n      0x00\n        /* \"#utility.yul\":4143:4149   */\n      dup3\n        /* \"#utility.yul\":4139:4153   */\n      add\n        /* \"#utility.yul\":4132:4190   */\n      mstore\n        /* \"#utility.yul\":4224:4227   */\n      0x6f00000000000000000000000000000000000000000000000000000000000000\n        /* \"#utility.yul\":4219:4221   */\n      0x20\n        /* \"#utility.yul\":4211:4217   */\n      dup3\n        /* \"#utility.yul\":4207:4222   */\n      add\n        /* \"#utility.yul\":4200:4228   */\n      mstore\n        /* \"#utility.yul\":4015:4235   */\n      pop\n      jump\t// out\n        /* \"#utility.yul\":4241:4607   */\n    tag_305:\n        /* \"#utility.yul\":4383:4386   */\n      0x00\n        /* \"#utility.yul\":4404:4471   */\n      tag_409\n        /* \"#utility.yul\":4468:4470   */\n      0x21\n        /* \"#utility.yul\":4463:4466   */\n      dup4\n        /* \"#utility.yul\":4404:4471   */\n      tag_293\n      jump\t// in\n    tag_409:\n        /* \"#utility.yul\":4397:4471   */\n      swap2\n      pop\n        /* \"#utility.yul\":4480:4573   */\n      tag_410\n        /* \"#utility.yul\":4569:4572   */\n      dup3\n        /* \"#utility.yul\":4480:4573   */\n      tag_304\n      jump\t// in\n    tag_410:\n        /* \"#utility.yul\":4598:4600   */\n      0x40\n        /* \"#utility.yul\":4593:4596   */\n      dup3\n        /* \"#utility.yul\":4589:4601   */\n      add\n        /* \"#utility.yul\":4582:4601   */\n      swap1\n      pop\n        /* \"#utility.yul\":4241:4607   */\n      swap2\n      swap1\n      pop\n      jump\t// out\n        /* \"#utility.yul\":4613:5032   */\n    tag_62:\n        /* \"#utility.yul\":4779:4783   */\n      0x00\n        /* \"#utility.yul\":4817:4819   */\n      0x20\n        /* \"#utility.yul\":4806:4815   */\n      dup3\n        /* \"#utility.yul\":4802:4820   */\n      add\n        /* \"#utility.yul\":4794:4820   */\n      swap1\n      pop\n        /* \"#utility.yul\":4866:4875   */\n      dup2\n        /* \"#utility.yul\":4860:4864   */\n      dup2\n        /* \"#utility.yul\":4856:4876   */\n      sub\n        /* \"#utility.yul\":4852:4853   */\n      0x00\n        /* \"#utility.yul\":4841:4850   */\n      dup4\n        /* \"#utility.yul\":4837:4854   */\n      add\n        /* \"#utility.yul\":4830:4877   */\n      mstore\n        /* \"#utility.yul\":4894:5025   */\n      tag_412\n        /* \"#utility.yul\":5020:5024   */\n      dup2\n        /* \"#utility.yul\":4894:5025   */\n      tag_305\n      jump\t// in\n    tag_412:\n        /* \"#utility.yul\":4886:5025   */\n      swap1\n      pop\n        /* \"#utility.yul\":4613:5032   */\n      swap2\n      swap1\n      pop\n      jump\t// out\n        /* \"#utility.yul\":5038:5207   */\n    tag_306:\n        /* \"#utility.yul\":5178:5199   */\n      0x4170656e61732045544820652061636569746f00000000000000000000000000\n        /* \"#utility.yul\":5174:5175   */\n      0x00\n        /* \"#utility.yul\":5166:5172   */\n      dup3\n        /* \"#utility.yul\":5162:5176   */\n      add\n        /* \"#utility.yul\":5155:5200   */\n      mstore\n        /* \"#utility.yul\":5038:5207   */\n      pop\n      jump\t// out\n        /* \"#utility.yul\":5213:5579   */\n    tag_307:\n        /* \"#utility.yul\":5355:5358   */\n      0x00\n        /* \"#utility.yul\":5376:5443   */\n      tag_415\n        /* \"#utility.yul\":5440:5442   */\n      0x13\n        /* \"#utility.yul\":5435:5438   */\n      dup4\n        /* \"#utility.yul\":5376:5443   */\n      tag_293\n      jump\t// in\n    tag_415:\n        /* \"#utility.yul\":5369:5443   */\n      swap2\n      pop\n        /* \"#utility.yul\":5452:5545   */\n      tag_416\n        /* \"#utility.yul\":5541:5544   */\n      dup3\n        /* \"#utility.yul\":5452:5545   */\n      tag_306\n      jump\t// in\n    tag_416:\n        /* \"#utility.yul\":5570:5572   */\n      0x20\n        /* \"#utility.yul\":5565:5568   */\n      dup3\n        /* \"#utility.yul\":5561:5573   */\n      add\n        /* \"#utility.yul\":5554:5573   */\n      swap1\n      pop\n        /* \"#utility.yul\":5213:5579   */\n      swap2\n      swap1\n      pop\n      jump\t// out\n        /* \"#utility.yul\":5585:6004   */\n    tag_68:\n        /* \"#utility.yul\":5751:5755   */\n      0x00\n        /* \"#utility.yul\":5789:5791   */\n      0x20\n        /* \"#utility.yul\":5778:5787   */\n      dup3\n        /* \"#utility.yul\":5774:5792   */\n      add\n        /* \"#utility.yul\":5766:5792   */\n      swap1\n      pop\n        /* \"#utility.yul\":5838:5847   */\n      dup2\n        /* \"#utility.yul\":5832:5836   */\n      dup2\n        /* \"#utility.yul\":5828:5848   */\n      sub\n        /* \"#utility.yul\":5824:5825   */\n      0x00\n        /* \"#utility.yul\":5813:5822   */\n      dup4\n        /* \"#utility.yul\":5809:5826   */\n      add\n        /* \"#utility.yul\":5802:5849   */\n      mstore\n        /* \"#utility.yul\":5866:5997   */\n      tag_418\n        /* \"#utility.yul\":5992:5996   */\n      dup2\n        /* \"#utility.yul\":5866:5997   */\n      tag_307\n      jump\t// in\n    tag_418:\n        /* \"#utility.yul\":5858:5997   */\n      swap1\n      pop\n        /* \"#utility.yul\":5585:6004   */\n      swap2\n      swap1\n      pop\n      jump\t// out\n        /* \"#utility.yul\":6091:6208   */\n    tag_309:\n        /* \"#utility.yul\":6200:6201   */\n      0x00\n        /* \"#utility.yul\":6197:6198   */\n      dup1\n        /* \"#utility.yul\":6190:6202   */\n      revert\n        /* \"#utility.yul\":6214:6331   */\n    tag_310:\n        /* \"#utility.yul\":6323:6324   */\n      0x00\n        /* \"#utility.yul\":6320:6321   */\n      dup1\n        /* \"#utility.yul\":6313:6325   */\n      revert\n        /* \"#utility.yul\":6337:6459   */\n    tag_311:\n        /* \"#utility.yul\":6410:6434   */\n      tag_423\n        /* \"#utility.yul\":6428:6433   */\n      dup2\n        /* \"#utility.yul\":6410:6434   */\n      tag_301\n      jump\t// in\n    tag_423:\n        /* \"#utility.yul\":6403:6408   */\n      dup2\n        /* \"#utility.yul\":6400:6435   */\n      eq\n        /* \"#utility.yul\":6390:6453   */\n      tag_424\n      jumpi\n        /* \"#utility.yul\":6449:6450   */\n      0x00\n        /* \"#utility.yul\":6446:6447   */\n      dup1\n        /* \"#utility.yul\":6439:6451   */\n      revert\n        /* \"#utility.yul\":6390:6453   */\n    tag_424:\n        /* \"#utility.yul\":6337:6459   */\n      pop\n      jump\t// out\n        /* \"#utility.yul\":6465:6604   */\n    tag_312:\n        /* \"#utility.yul\":6511:6516   */\n      0x00\n        /* \"#utility.yul\":6549:6555   */\n      dup2\n        /* \"#utility.yul\":6536:6556   */\n      calldataload\n        /* \"#utility.yul\":6527:6556   */\n      swap1\n      pop\n        /* \"#utility.yul\":6565:6598   */\n      tag_426\n        /* \"#utility.yul\":6592:6597   */\n      dup2\n        /* \"#utility.yul\":6565:6598   */\n      tag_311\n      jump\t// in\n    tag_426:\n        /* \"#utility.yul\":6465:6604   */\n      swap3\n      swap2\n      pop\n      pop\n      jump\t// out\n        /* \"#utility.yul\":6610:6727   */\n    tag_313:\n        /* \"#utility.yul\":6719:6720   */\n      0x00\n        /* \"#utility.yul\":6716:6717   */\n      dup1\n        /* \"#utility.yul\":6709:6721   */\n      revert\n        /* \"#utility.yul\":6733:6850   */\n    tag_314:\n        /* \"#utility.yul\":6842:6843   */\n      0x00\n        /* \"#utility.yul\":6839:6840   */\n      dup1\n        /* \"#utility.yul\":6832:6844   */\n      revert\n        /* \"#utility.yul\":6856:6973   */\n    tag_315:\n        /* \"#utility.yul\":6965:6966   */\n      0x00\n        /* \"#utility.yul\":6962:6963   */\n      dup1\n        /* \"#utility.yul\":6955:6967   */\n      revert\n        /* \"#utility.yul\":6996:7564   */\n    tag_316:\n        /* \"#utility.yul\":7069:7077   */\n      0x00\n        /* \"#utility.yul\":7079:7085   */\n      dup1\n        /* \"#utility.yul\":7129:7132   */\n      dup4\n        /* \"#utility.yul\":7122:7126   */\n      0x1f\n        /* \"#utility.yul\":7114:7120   */\n      dup5\n        /* \"#utility.yul\":7110:7127   */\n      add\n        /* \"#utility.yul\":7106:7133   */\n      slt\n        /* \"#utility.yul\":7096:7218   */\n      tag_431\n      jumpi\n        /* \"#utility.yul\":7137:7216   */\n      tag_432\n      tag_313\n      jump\t// in\n    tag_432:\n        /* \"#utility.yul\":7096:7218   */\n    tag_431:\n        /* \"#utility.yul\":7250:7256   */\n      dup3\n        /* \"#utility.yul\":7237:7257   */\n      calldataload\n        /* \"#utility.yul\":7227:7257   */\n      swap1\n      pop\n        /* \"#utility.yul\":7280:7298   */\n      0xffffffffffffffff\n        /* \"#utility.yul\":7272:7278   */\n      dup2\n        /* \"#utility.yul\":7269:7299   */\n      gt\n        /* \"#utility.yul\":7266:7383   */\n      iszero\n      tag_433\n      jumpi\n        /* \"#utility.yul\":7302:7381   */\n      tag_434\n      tag_314\n      jump\t// in\n    tag_434:\n        /* \"#utility.yul\":7266:7383   */\n    tag_433:\n        /* \"#utility.yul\":7416:7420   */\n      0x20\n        /* \"#utility.yul\":7408:7414   */\n      dup4\n        /* \"#utility.yul\":7404:7421   */\n      add\n        /* \"#utility.yul\":7392:7421   */\n      swap2\n      pop\n        /* \"#utility.yul\":7470:7473   */\n      dup4\n        /* \"#utility.yul\":7462:7466   */\n      0x20\n        /* \"#utility.yul\":7454:7460   */\n      dup3\n        /* \"#utility.yul\":7450:7467   */\n      mul\n        /* \"#utility.yul\":7440:7448   */\n      dup4\n        /* \"#utility.yul\":7436:7468   */\n      add\n        /* \"#utility.yul\":7433:7474   */\n      gt\n        /* \"#utility.yul\":7430:7558   */\n      iszero\n      tag_435\n      jumpi\n        /* \"#utility.yul\":7477:7556   */\n      tag_436\n      tag_315\n      jump\t// in\n    tag_436:\n        /* \"#utility.yul\":7430:7558   */\n    tag_435:\n        /* \"#utility.yul\":6996:7564   */\n      swap3\n      pop\n      swap3\n      swap1\n      pop\n      jump\t// out\n        /* \"#utility.yul\":7570:8274   */\n    tag_76:\n        /* \"#utility.yul\":7665:7671   */\n      0x00\n        /* \"#utility.yul\":7673:7679   */\n      dup1\n        /* \"#utility.yul\":7681:7687   */\n      0x00\n        /* \"#utility.yul\":7730:7732   */\n      0x40\n        /* \"#utility.yul\":7718:7727   */\n      dup5\n        /* \"#utility.yul\":7709:7716   */\n      dup7\n        /* \"#utility.yul\":7705:7728   */\n      sub\n        /* \"#utility.yul\":7701:7733   */\n      slt\n        /* \"#utility.yul\":7698:7817   */\n      iszero\n      tag_438\n      jumpi\n        /* \"#utility.yul\":7736:7815   */\n      tag_439\n      tag_309\n      jump\t// in\n    tag_439:\n        /* \"#utility.yul\":7698:7817   */\n    tag_438:\n        /* \"#utility.yul\":7856:7857   */\n      0x00\n        /* \"#utility.yul\":7881:7934   */\n      tag_440\n        /* \"#utility.yul\":7926:7933   */\n      dup7\n        /* \"#utility.yul\":7917:7923   */\n      dup3\n        /* \"#utility.yul\":7906:7915   */\n      dup8\n        /* \"#utility.yul\":7902:7924   */\n      add\n        /* \"#utility.yul\":7881:7934   */\n      tag_312\n      jump\t// in\n    tag_440:\n        /* \"#utility.yul\":7871:7934   */\n      swap4\n      pop\n        /* \"#utility.yul\":7827:7944   */\n      pop\n        /* \"#utility.yul\":8011:8013   */\n      0x20\n        /* \"#utility.yul\":8000:8009   */\n      dup5\n        /* \"#utility.yul\":7996:8014   */\n      add\n        /* \"#utility.yul\":7983:8015   */\n      calldataload\n        /* \"#utility.yul\":8042:8060   */\n      0xffffffffffffffff\n        /* \"#utility.yul\":8034:8040   */\n      dup2\n        /* \"#utility.yul\":8031:8061   */\n      gt\n        /* \"#utility.yul\":8028:8145   */\n      iszero\n      tag_441\n      jumpi\n        /* \"#utility.yul\":8064:8143   */\n      tag_442\n      tag_310\n      jump\t// in\n    tag_442:\n        /* \"#utility.yul\":8028:8145   */\n    tag_441:\n        /* \"#utility.yul\":8177:8257   */\n      tag_443\n        /* \"#utility.yul\":8249:8256   */\n      dup7\n        /* \"#utility.yul\":8240:8246   */\n      dup3\n        /* \"#utility.yul\":8229:8238   */\n      dup8\n        /* \"#utility.yul\":8225:8247   */\n      add\n        /* \"#utility.yul\":8177:8257   */\n      tag_316\n      jump\t// in\n    tag_443:\n        /* \"#utility.yul\":8159:8257   */\n      swap3\n      pop\n      swap3\n      pop\n        /* \"#utility.yul\":7954:8267   */\n      pop\n        /* \"#utility.yul\":7570:8274   */\n      swap3\n      pop\n      swap3\n      pop\n      swap3\n      jump\t// out\n        /* \"#utility.yul\":8280:8373   */\n    tag_317:\n        /* \"#utility.yul\":8316:8323   */\n      0x00\n        /* \"#utility.yul\":8356:8366   */\n      0xffffffff\n        /* \"#utility.yul\":8349:8354   */\n      dup3\n        /* \"#utility.yul\":8345:8367   */\n      and\n        /* \"#utility.yul\":8334:8367   */\n      swap1\n      pop\n        /* \"#utility.yul\":8280:8373   */\n      swap2\n      swap1\n      pop\n      jump\t// out\n        /* \"#utility.yul\":8379:8494   */\n    tag_318:\n        /* \"#utility.yul\":8464:8487   */\n      tag_446\n        /* \"#utility.yul\":8481:8486   */\n      dup2\n        /* \"#utility.yul\":8464:8487   */\n      tag_317\n      jump\t// in\n    tag_446:\n        /* \"#utility.yul\":8459:8462   */\n      dup3\n        /* \"#utility.yul\":8452:8488   */\n      mstore\n        /* \"#utility.yul\":8379:8494   */\n      pop\n      pop\n      jump\t// out\n        /* \"#utility.yul\":8500:8718   */\n    tag_82:\n        /* \"#utility.yul\":8591:8595   */\n      0x00\n        /* \"#utility.yul\":8629:8631   */\n      0x20\n        /* \"#utility.yul\":8618:8627   */\n      dup3\n        /* \"#utility.yul\":8614:8632   */\n      add\n        /* \"#utility.yul\":8606:8632   */\n      swap1\n      pop\n        /* \"#utility.yul\":8642:8711   */\n      tag_448\n        /* \"#utility.yul\":8708:8709   */\n      0x00\n        /* \"#utility.yul\":8697:8706   */\n      dup4\n        /* \"#utility.yul\":8693:8710   */\n      add\n        /* \"#utility.yul\":8684:8690   */\n      dup5\n        /* \"#utility.yul\":8642:8711   */\n      tag_318\n      jump\t// in\n    tag_448:\n        /* \"#utility.yul\":8500:8718   */\n      swap3\n      swap2\n      pop\n      pop\n      jump\t// out\n        /* \"#utility.yul\":8724:8801   */\n    tag_319:\n        /* \"#utility.yul\":8761:8768   */\n      0x00\n        /* \"#utility.yul\":8790:8795   */\n      dup2\n        /* \"#utility.yul\":8779:8795   */\n      swap1\n      pop\n        /* \"#utility.yul\":8724:8801   */\n      swap2\n      swap1\n      pop\n      jump\t// out\n        /* \"#utility.yul\":8807:8925   */\n    tag_320:\n        /* \"#utility.yul\":8894:8918   */\n      tag_451\n        /* \"#utility.yul\":8912:8917   */\n      dup2\n        /* \"#utility.yul\":8894:8918   */\n      tag_319\n      jump\t// in\n    tag_451:\n        /* \"#utility.yul\":8889:8892   */\n      dup3\n        /* \"#utility.yul\":8882:8919   */\n      mstore\n        /* \"#utility.yul\":8807:8925   */\n      pop\n      pop\n      jump\t// out\n        /* \"#utility.yul\":8931:9020   */\n    tag_321:\n        /* \"#utility.yul\":8967:8974   */\n      0x00\n        /* \"#utility.yul\":9007:9013   */\n      0xffff\n        /* \"#utility.yul\":9000:9005   */\n      dup3\n        /* \"#utility.yul\":8996:9014   */\n      and\n        /* \"#utility.yul\":8985:9014   */\n      swap1\n      pop\n        /* \"#utility.yul\":8931:9020   */\n      swap2\n      swap1\n      pop\n      jump\t// out\n        /* \"#utility.yul\":9026:9141   */\n    tag_322:\n        /* \"#utility.yul\":9111:9134   */\n      tag_454\n        /* \"#utility.yul\":9128:9133   */\n      dup2\n        /* \"#utility.yul\":9111:9134   */\n      tag_321\n      jump\t// in\n    tag_454:\n        /* \"#utility.yul\":9106:9109   */\n      dup3\n        /* \"#utility.yul\":9099:9135   */\n      mstore\n        /* \"#utility.yul\":9026:9141   */\n      pop\n      pop\n      jump\t// out\n        /* \"#utility.yul\":9147:9245   */\n    tag_323:\n        /* \"#utility.yul\":9198:9204   */\n      0x00\n        /* \"#utility.yul\":9232:9237   */\n      dup2\n        /* \"#utility.yul\":9226:9238   */\n      mload\n        /* \"#utility.yul\":9216:9238   */\n      swap1\n      pop\n        /* \"#utility.yul\":9147:9245   */\n      swap2\n      swap1\n      pop\n      jump\t// out\n        /* \"#utility.yul\":9251:9419   */\n    tag_324:\n        /* \"#utility.yul\":9334:9345   */\n      0x00\n        /* \"#utility.yul\":9368:9374   */\n      dup3\n        /* \"#utility.yul\":9363:9366   */\n      dup3\n        /* \"#utility.yul\":9356:9375   */\n      mstore\n        /* \"#utility.yul\":9408:9412   */\n      0x20\n        /* \"#utility.yul\":9403:9406   */\n      dup3\n        /* \"#utility.yul\":9399:9413   */\n      add\n        /* \"#utility.yul\":9384:9413   */\n      swap1\n      pop\n        /* \"#utility.yul\":9251:9419   */\n      swap3\n      swap2\n      pop\n      pop\n      jump\t// out\n        /* \"#utility.yul\":9425:9564   */\n    tag_325:\n        /* \"#utility.yul\":9514:9520   */\n      dup3\n        /* \"#utility.yul\":9509:9512   */\n      dup2\n        /* \"#utility.yul\":9504:9507   */\n      dup4\n        /* \"#utility.yul\":9498:9521   */\n      mcopy\n        /* \"#utility.yul\":9555:9556   */\n      0x00\n        /* \"#utility.yul\":9546:9552   */\n      dup4\n        /* \"#utility.yul\":9541:9544   */\n      dup4\n        /* \"#utility.yul\":9537:9553   */\n      add\n        /* \"#utility.yul\":9530:9557   */\n      mstore\n        /* \"#utility.yul\":9425:9564   */\n      pop\n      pop\n      pop\n      jump\t// out\n        /* \"#utility.yul\":9570:9672   */\n    tag_326:\n        /* \"#utility.yul\":9611:9617   */\n      0x00\n        /* \"#utility.yul\":9662:9664   */\n      0x1f\n        /* \"#utility.yul\":9658:9665   */\n      not\n        /* \"#utility.yul\":9653:9655   */\n      0x1f\n        /* \"#utility.yul\":9646:9651   */\n      dup4\n        /* \"#utility.yul\":9642:9656   */\n      add\n        /* \"#utility.yul\":9638:9666   */\n      and\n        /* \"#utility.yul\":9628:9666   */\n      swap1\n      pop\n        /* \"#utility.yul\":9570:9672   */\n      swap2\n      swap1\n      pop\n      jump\t// out\n        /* \"#utility.yul\":9678:10051   */\n    tag_327:\n        /* \"#utility.yul\":9764:9767   */\n      0x00\n        /* \"#utility.yul\":9792:9830   */\n      tag_460\n        /* \"#utility.yul\":9824:9829   */\n      dup3\n        /* \"#utility.yul\":9792:9830   */\n      tag_323\n      jump\t// in\n    tag_460:\n        /* \"#utility.yul\":9846:9916   */\n      tag_461\n        /* \"#utility.yul\":9909:9915   */\n      dup2\n        /* \"#utility.yul\":9904:9907   */\n      dup6\n        /* \"#utility.yul\":9846:9916   */\n      tag_324\n      jump\t// in\n    tag_461:\n        /* \"#utility.yul\":9839:9916   */\n      swap4\n      pop\n        /* \"#utility.yul\":9925:9990   */\n      tag_462\n        /* \"#utility.yul\":9983:9989   */\n      dup2\n        /* \"#utility.yul\":9978:9981   */\n      dup6\n        /* \"#utility.yul\":9971:9975   */\n      0x20\n        /* \"#utility.yul\":9964:9969   */\n      dup7\n        /* \"#utility.yul\":9960:9976   */\n      add\n        /* \"#utility.yul\":9925:9990   */\n      tag_325\n      jump\t// in\n    tag_462:\n        /* \"#utility.yul\":10015:10044   */\n      tag_463\n        /* \"#utility.yul\":10037:10043   */\n      dup2\n        /* \"#utility.yul\":10015:10044   */\n      tag_326\n      jump\t// in\n    tag_463:\n        /* \"#utility.yul\":10010:10013   */\n      dup5\n        /* \"#utility.yul\":10006:10045   */\n      add\n        /* \"#utility.yul\":9999:10045   */\n      swap2\n      pop\n        /* \"#utility.yul\":9768:10051   */\n      pop\n        /* \"#utility.yul\":9678:10051   */\n      swap3\n      swap2\n      pop\n      pop\n      jump\t// out\n        /* \"#utility.yul\":10057:10907   */\n    tag_95:\n        /* \"#utility.yul\":10302:10306   */\n      0x00\n        /* \"#utility.yul\":10340:10343   */\n      0xc0\n        /* \"#utility.yul\":10329:10338   */\n      dup3\n        /* \"#utility.yul\":10325:10344   */\n      add\n        /* \"#utility.yul\":10317:10344   */\n      swap1\n      pop\n        /* \"#utility.yul\":10354:10425   */\n      tag_465\n        /* \"#utility.yul\":10422:10423   */\n      0x00\n        /* \"#utility.yul\":10411:10420   */\n      dup4\n        /* \"#utility.yul\":10407:10424   */\n      add\n        /* \"#utility.yul\":10398:10404   */\n      dup10\n        /* \"#utility.yul\":10354:10425   */\n      tag_320\n      jump\t// in\n    tag_465:\n        /* \"#utility.yul\":10435:10507   */\n      tag_466\n        /* \"#utility.yul\":10503:10505   */\n      0x20\n        /* \"#utility.yul\":10492:10501   */\n      dup4\n        /* \"#utility.yul\":10488:10506   */\n      add\n        /* \"#utility.yul\":10479:10485   */\n      dup9\n        /* \"#utility.yul\":10435:10507   */\n      tag_302\n      jump\t// in\n    tag_466:\n        /* \"#utility.yul\":10517:10587   */\n      tag_467\n        /* \"#utility.yul\":10583:10585   */\n      0x40\n        /* \"#utility.yul\":10572:10581   */\n      dup4\n        /* \"#utility.yul\":10568:10586   */\n      add\n        /* \"#utility.yul\":10559:10565   */\n      dup8\n        /* \"#utility.yul\":10517:10587   */\n      tag_322\n      jump\t// in\n    tag_467:\n        /* \"#utility.yul\":10597:10667   */\n      tag_468\n        /* \"#utility.yul\":10663:10665   */\n      0x60\n        /* \"#utility.yul\":10652:10661   */\n      dup4\n        /* \"#utility.yul\":10648:10666   */\n      add\n        /* \"#utility.yul\":10639:10645   */\n      dup7\n        /* \"#utility.yul\":10597:10667   */\n      tag_318\n      jump\t// in\n    tag_468:\n        /* \"#utility.yul\":10677:10748   */\n      tag_469\n        /* \"#utility.yul\":10743:10746   */\n      0x80\n        /* \"#utility.yul\":10732:10741   */\n      dup4\n        /* \"#utility.yul\":10728:10747   */\n      add\n        /* \"#utility.yul\":10719:10725   */\n      dup6\n        /* \"#utility.yul\":10677:10748   */\n      tag_318\n      jump\t// in\n    tag_469:\n        /* \"#utility.yul\":10796:10805   */\n      dup2\n        /* \"#utility.yul\":10790:10794   */\n      dup2\n        /* \"#utility.yul\":10786:10806   */\n      sub\n        /* \"#utility.yul\":10780:10783   */\n      0xa0\n        /* \"#utility.yul\":10769:10778   */\n      dup4\n        /* \"#utility.yul\":10765:10784   */\n      add\n        /* \"#utility.yul\":10758:10807   */\n      mstore\n        /* \"#utility.yul\":10824:10900   */\n      tag_470\n        /* \"#utility.yul\":10895:10899   */\n      dup2\n        /* \"#utility.yul\":10886:10892   */\n      dup5\n        /* \"#utility.yul\":10824:10900   */\n      tag_327\n      jump\t// in\n    tag_470:\n        /* \"#utility.yul\":10816:10900   */\n      swap1\n      pop\n        /* \"#utility.yul\":10057:10907   */\n      swap8\n      swap7\n      pop\n      pop\n      pop\n      pop\n      pop\n      pop\n      pop\n      jump\t// out\n        /* \"#utility.yul\":10913:11135   */\n    tag_104:\n        /* \"#utility.yul\":11006:11010   */\n      0x00\n        /* \"#utility.yul\":11044:11046   */\n      0x20\n        /* \"#utility.yul\":11033:11042   */\n      dup3\n        /* \"#utility.yul\":11029:11047   */\n      add\n        /* \"#utility.yul\":11021:11047   */\n      swap1\n      pop\n        /* \"#utility.yul\":11057:11128   */\n      tag_472\n        /* \"#utility.yul\":11125:11126   */\n      0x00\n        /* \"#utility.yul\":11114:11123   */\n      dup4\n        /* \"#utility.yul\":11110:11127   */\n      add\n        /* \"#utility.yul\":11101:11107   */\n      dup5\n        /* \"#utility.yul\":11057:11128   */\n      tag_320\n      jump\t// in\n    tag_472:\n        /* \"#utility.yul\":10913:11135   */\n      swap3\n      swap2\n      pop\n      pop\n      jump\t// out\n        /* \"#utility.yul\":11141:11231   */\n    tag_328:\n        /* \"#utility.yul\":11175:11182   */\n      0x00\n        /* \"#utility.yul\":11218:11223   */\n      dup2\n        /* \"#utility.yul\":11211:11224   */\n      iszero\n        /* \"#utility.yul\":11204:11225   */\n      iszero\n        /* \"#utility.yul\":11193:11225   */\n      swap1\n      pop\n        /* \"#utility.yul\":11141:11231   */\n      swap2\n      swap1\n      pop\n      jump\t// out\n        /* \"#utility.yul\":11237:11346   */\n    tag_329:\n        /* \"#utility.yul\":11318:11339   */\n      tag_475\n        /* \"#utility.yul\":11333:11338   */\n      dup2\n        /* \"#utility.yul\":11318:11339   */\n      tag_328\n      jump\t// in\n    tag_475:\n        /* \"#utility.yul\":11313:11316   */\n      dup3\n        /* \"#utility.yul\":11306:11340   */\n      mstore\n        /* \"#utility.yul\":11237:11346   */\n      pop\n      pop\n      jump\t// out\n        /* \"#utility.yul\":11352:11562   */\n    tag_120:\n        /* \"#utility.yul\":11439:11443   */\n      0x00\n        /* \"#utility.yul\":11477:11479   */\n      0x20\n        /* \"#utility.yul\":11466:11475   */\n      dup3\n        /* \"#utility.yul\":11462:11480   */\n      add\n        /* \"#utility.yul\":11454:11480   */\n      swap1\n      pop\n        /* \"#utility.yul\":11490:11555   */\n      tag_477\n        /* \"#utility.yul\":11552:11553   */\n      0x00\n        /* \"#utility.yul\":11541:11550   */\n      dup4\n        /* \"#utility.yul\":11537:11554   */\n      add\n        /* \"#utility.yul\":11528:11534   */\n      dup5\n        /* \"#utility.yul\":11490:11555   */\n      tag_329\n      jump\t// in\n    tag_477:\n        /* \"#utility.yul\":11352:11562   */\n      swap3\n      swap2\n      pop\n      pop\n      jump\t// out\n        /* \"#utility.yul\":11568:11694   */\n    tag_330:\n        /* \"#utility.yul\":11605:11612   */\n      0x00\n        /* \"#utility.yul\":11645:11687   */\n      0xffffffffffffffffffffffffffffffffffffffff\n        /* \"#utility.yul\":11638:11643   */\n      dup3\n        /* \"#utility.yul\":11634:11688   */\n      and\n        /* \"#utility.yul\":11623:11688   */\n      swap1\n      pop\n        /* \"#utility.yul\":11568:11694   */\n      swap2\n      swap1\n      pop\n      jump\t// out\n        /* \"#utility.yul\":11700:11796   */\n    tag_331:\n        /* \"#utility.yul\":11737:11744   */\n      0x00\n        /* \"#utility.yul\":11766:11790   */\n      tag_480\n        /* \"#utility.yul\":11784:11789   */\n      dup3\n        /* \"#utility.yul\":11766:11790   */\n      tag_330\n      jump\t// in\n    tag_480:\n        /* \"#utility.yul\":11755:11790   */\n      swap1\n      pop\n        /* \"#utility.yul\":11700:11796   */\n      swap2\n      swap1\n      pop\n      jump\t// out\n        /* \"#utility.yul\":11802:11920   */\n    tag_332:\n        /* \"#utility.yul\":11889:11913   */\n      tag_482\n        /* \"#utility.yul\":11907:11912   */\n      dup2\n        /* \"#utility.yul\":11889:11913   */\n      tag_331\n      jump\t// in\n    tag_482:\n        /* \"#utility.yul\":11884:11887   */\n      dup3\n        /* \"#utility.yul\":11877:11914   */\n      mstore\n        /* \"#utility.yul\":11802:11920   */\n      pop\n      pop\n      jump\t// out\n        /* \"#utility.yul\":11926:12148   */\n    tag_129:\n        /* \"#utility.yul\":12019:12023   */\n      0x00\n        /* \"#utility.yul\":12057:12059   */\n      0x20\n        /* \"#utility.yul\":12046:12055   */\n      dup3\n        /* \"#utility.yul\":12042:12060   */\n      add\n        /* \"#utility.yul\":12034:12060   */\n      swap1\n      pop\n        /* \"#utility.yul\":12070:12141   */\n      tag_484\n        /* \"#utility.yul\":12138:12139   */\n      0x00\n        /* \"#utility.yul\":12127:12136   */\n      dup4\n        /* \"#utility.yul\":12123:12140   */\n      add\n        /* \"#utility.yul\":12114:12120   */\n      dup5\n        /* \"#utility.yul\":12070:12141   */\n      tag_332\n      jump\t// in\n    tag_484:\n        /* \"#utility.yul\":11926:12148   */\n      swap3\n      swap2\n      pop\n      pop\n      jump\t// out\n        /* \"#utility.yul\":12154:12276   */\n    tag_333:\n        /* \"#utility.yul\":12227:12251   */\n      tag_486\n        /* \"#utility.yul\":12245:12250   */\n      dup2\n        /* \"#utility.yul\":12227:12251   */\n      tag_331\n      jump\t// in\n    tag_486:\n        /* \"#utility.yul\":12220:12225   */\n      dup2\n        /* \"#utility.yul\":12217:12252   */\n      eq\n        /* \"#utility.yul\":12207:12270   */\n      tag_487\n      jumpi\n        /* \"#utility.yul\":12266:12267   */\n      0x00\n        /* \"#utility.yul\":12263:12264   */\n      dup1\n        /* \"#utility.yul\":12256:12268   */\n      revert\n        /* \"#utility.yul\":12207:12270   */\n    tag_487:\n        /* \"#utility.yul\":12154:12276   */\n      pop\n      jump\t// out\n        /* \"#utility.yul\":12282:12421   */\n    tag_334:\n        /* \"#utility.yul\":12328:12333   */\n      0x00\n        /* \"#utility.yul\":12366:12372   */\n      dup2\n        /* \"#utility.yul\":12353:12373   */\n      calldataload\n        /* \"#utility.yul\":12344:12373   */\n      swap1\n      pop\n        /* \"#utility.yul\":12382:12415   */\n      tag_489\n        /* \"#utility.yul\":12409:12414   */\n      dup2\n        /* \"#utility.yul\":12382:12415   */\n      tag_333\n      jump\t// in\n    tag_489:\n        /* \"#utility.yul\":12282:12421   */\n      swap3\n      swap2\n      pop\n      pop\n      jump\t// out\n        /* \"#utility.yul\":12427:12756   */\n    tag_133:\n        /* \"#utility.yul\":12486:12492   */\n      0x00\n        /* \"#utility.yul\":12535:12537   */\n      0x20\n        /* \"#utility.yul\":12523:12532   */\n      dup3\n        /* \"#utility.yul\":12514:12521   */\n      dup5\n        /* \"#utility.yul\":12510:12533   */\n      sub\n        /* \"#utility.yul\":12506:12538   */\n      slt\n        /* \"#utility.yul\":12503:12622   */\n      iszero\n      tag_491\n      jumpi\n        /* \"#utility.yul\":12541:12620   */\n      tag_492\n      tag_309\n      jump\t// in\n    tag_492:\n        /* \"#utility.yul\":12503:12622   */\n    tag_491:\n        /* \"#utility.yul\":12661:12662   */\n      0x00\n        /* \"#utility.yul\":12686:12739   */\n      tag_493\n        /* \"#utility.yul\":12731:12738   */\n      dup5\n        /* \"#utility.yul\":12722:12728   */\n      dup3\n        /* \"#utility.yul\":12711:12720   */\n      dup6\n        /* \"#utility.yul\":12707:12729   */\n      add\n        /* \"#utility.yul\":12686:12739   */\n      tag_334\n      jump\t// in\n    tag_493:\n        /* \"#utility.yul\":12676:12739   */\n      swap2\n      pop\n        /* \"#utility.yul\":12632:12749   */\n      pop\n        /* \"#utility.yul\":12427:12756   */\n      swap3\n      swap2\n      pop\n      pop\n      jump\t// out\n        /* \"#utility.yul\":12762:12822   */\n    tag_335:\n        /* \"#utility.yul\":12790:12793   */\n      0x00\n        /* \"#utility.yul\":12811:12816   */\n      dup2\n        /* \"#utility.yul\":12804:12816   */\n      swap1\n      pop\n        /* \"#utility.yul\":12762:12822   */\n      swap2\n      swap1\n      pop\n      jump\t// out\n        /* \"#utility.yul\":12828:12970   */\n    tag_336:\n        /* \"#utility.yul\":12878:12887   */\n      0x00\n        /* \"#utility.yul\":12911:12964   */\n      tag_496\n        /* \"#utility.yul\":12929:12963   */\n      tag_497\n        /* \"#utility.yul\":12938:12962   */\n      tag_498\n        /* \"#utility.yul\":12956:12961   */\n      dup5\n        /* \"#utility.yul\":12938:12962   */\n      tag_330\n      jump\t// in\n    tag_498:\n        /* \"#utility.yul\":12929:12963   */\n      tag_335\n      jump\t// in\n    tag_497:\n        /* \"#utility.yul\":12911:12964   */\n      tag_330\n      jump\t// in\n    tag_496:\n        /* \"#utility.yul\":12898:12964   */\n      swap1\n      pop\n        /* \"#utility.yul\":12828:12970   */\n      swap2\n      swap1\n      pop\n      jump\t// out\n        /* \"#utility.yul\":12976:13102   */\n    tag_337:\n        /* \"#utility.yul\":13026:13035   */\n      0x00\n        /* \"#utility.yul\":13059:13096   */\n      tag_500\n        /* \"#utility.yul\":13090:13095   */\n      dup3\n        /* \"#utility.yul\":13059:13096   */\n      tag_336\n      jump\t// in\n    tag_500:\n        /* \"#utility.yul\":13046:13096   */\n      swap1\n      pop\n        /* \"#utility.yul\":12976:13102   */\n      swap2\n      swap1\n      pop\n      jump\t// out\n        /* \"#utility.yul\":13108:13264   */\n    tag_338:\n        /* \"#utility.yul\":13188:13197   */\n      0x00\n        /* \"#utility.yul\":13221:13258   */\n      tag_502\n        /* \"#utility.yul\":13252:13257   */\n      dup3\n        /* \"#utility.yul\":13221:13258   */\n      tag_337\n      jump\t// in\n    tag_502:\n        /* \"#utility.yul\":13208:13258   */\n      swap1\n      pop\n        /* \"#utility.yul\":13108:13264   */\n      swap2\n      swap1\n      pop\n      jump\t// out\n        /* \"#utility.yul\":13270:13461   */\n    tag_339:\n        /* \"#utility.yul\":13387:13454   */\n      tag_504\n        /* \"#utility.yul\":13448:13453   */\n      dup2\n        /* \"#utility.yul\":13387:13454   */\n      tag_338\n      jump\t// in\n    tag_504:\n        /* \"#utility.yul\":13382:13385   */\n      dup3\n        /* \"#utility.yul\":13375:13455   */\n      mstore\n        /* \"#utility.yul\":13270:13461   */\n      pop\n      pop\n      jump\t// out\n        /* \"#utility.yul\":13467:13749   */\n    tag_139:\n        /* \"#utility.yul\":13590:13594   */\n      0x00\n        /* \"#utility.yul\":13628:13630   */\n      0x20\n        /* \"#utility.yul\":13617:13626   */\n      dup3\n        /* \"#utility.yul\":13613:13631   */\n      add\n        /* \"#utility.yul\":13605:13631   */\n      swap1\n      pop\n        /* \"#utility.yul\":13641:13742   */\n      tag_506\n        /* \"#utility.yul\":13739:13740   */\n      0x00\n        /* \"#utility.yul\":13728:13737   */\n      dup4\n        /* \"#utility.yul\":13724:13741   */\n      add\n        /* \"#utility.yul\":13715:13721   */\n      dup5\n        /* \"#utility.yul\":13641:13742   */\n      tag_339\n      jump\t// in\n    tag_506:\n        /* \"#utility.yul\":13467:13749   */\n      swap3\n      swap2\n      pop\n      pop\n      jump\t// out\n        /* \"#utility.yul\":13755:13973   */\n    tag_148:\n        /* \"#utility.yul\":13846:13850   */\n      0x00\n        /* \"#utility.yul\":13884:13886   */\n      0x20\n        /* \"#utility.yul\":13873:13882   */\n      dup3\n        /* \"#utility.yul\":13869:13887   */\n      add\n        /* \"#utility.yul\":13861:13887   */\n      swap1\n      pop\n        /* \"#utility.yul\":13897:13966   */\n      tag_508\n        /* \"#utility.yul\":13963:13964   */\n      0x00\n        /* \"#utility.yul\":13952:13961   */\n      dup4\n        /* \"#utility.yul\":13948:13965   */\n      add\n        /* \"#utility.yul\":13939:13945   */\n      dup5\n        /* \"#utility.yul\":13897:13966   */\n      tag_322\n      jump\t// in\n    tag_508:\n        /* \"#utility.yul\":13755:13973   */\n      swap3\n      swap2\n      pop\n      pop\n      jump\t// out\n        /* \"#utility.yul\":13979:14308   */\n    tag_152:\n        /* \"#utility.yul\":14038:14044   */\n      0x00\n        /* \"#utility.yul\":14087:14089   */\n      0x20\n        /* \"#utility.yul\":14075:14084   */\n      dup3\n        /* \"#utility.yul\":14066:14073   */\n      dup5\n        /* \"#utility.yul\":14062:14085   */\n      sub\n        /* \"#utility.yul\":14058:14090   */\n      slt\n        /* \"#utility.yul\":14055:14174   */\n      iszero\n      tag_510\n      jumpi\n        /* \"#utility.yul\":14093:14172   */\n      tag_511\n      tag_309\n      jump\t// in\n    tag_511:\n        /* \"#utility.yul\":14055:14174   */\n    tag_510:\n        /* \"#utility.yul\":14213:14214   */\n      0x00\n        /* \"#utility.yul\":14238:14291   */\n      tag_512\n        /* \"#utility.yul\":14283:14290   */\n      dup5\n        /* \"#utility.yul\":14274:14280   */\n      dup3\n        /* \"#utility.yul\":14263:14272   */\n      dup6\n        /* \"#utility.yul\":14259:14281   */\n      add\n        /* \"#utility.yul\":14238:14291   */\n      tag_312\n      jump\t// in\n    tag_512:\n        /* \"#utility.yul\":14228:14291   */\n      swap2\n      pop\n        /* \"#utility.yul\":14184:14301   */\n      pop\n        /* \"#utility.yul\":13979:14308   */\n      swap3\n      swap2\n      pop\n      pop\n      jump\t// out\n        /* \"#utility.yul\":14314:14418   */\n    tag_340:\n        /* \"#utility.yul\":14359:14366   */\n      0x00\n        /* \"#utility.yul\":14388:14412   */\n      tag_514\n        /* \"#utility.yul\":14406:14411   */\n      dup3\n        /* \"#utility.yul\":14388:14412   */\n      tag_330\n      jump\t// in\n    tag_514:\n        /* \"#utility.yul\":14377:14412   */\n      swap1\n      pop\n        /* \"#utility.yul\":14314:14418   */\n      swap2\n      swap1\n      pop\n      jump\t// out\n        /* \"#utility.yul\":14424:14562   */\n    tag_341:\n        /* \"#utility.yul\":14505:14537   */\n      tag_516\n        /* \"#utility.yul\":14531:14536   */\n      dup2\n        /* \"#utility.yul\":14505:14537   */\n      tag_340\n      jump\t// in\n    tag_516:\n        /* \"#utility.yul\":14498:14503   */\n      dup2\n        /* \"#utility.yul\":14495:14538   */\n      eq\n        /* \"#utility.yul\":14485:14556   */\n      tag_517\n      jumpi\n        /* \"#utility.yul\":14552:14553   */\n      0x00\n        /* \"#utility.yul\":14549:14550   */\n      dup1\n        /* \"#utility.yul\":14542:14554   */\n      revert\n        /* \"#utility.yul\":14485:14556   */\n    tag_517:\n        /* \"#utility.yul\":14424:14562   */\n      pop\n      jump\t// out\n        /* \"#utility.yul\":14568:14723   */\n    tag_342:\n        /* \"#utility.yul\":14622:14627   */\n      0x00\n        /* \"#utility.yul\":14660:14666   */\n      dup2\n        /* \"#utility.yul\":14647:14667   */\n      calldataload\n        /* \"#utility.yul\":14638:14667   */\n      swap1\n      pop\n        /* \"#utility.yul\":14676:14717   */\n      tag_519\n        /* \"#utility.yul\":14711:14716   */\n      dup2\n        /* \"#utility.yul\":14676:14717   */\n      tag_341\n      jump\t// in\n    tag_519:\n        /* \"#utility.yul\":14568:14723   */\n      swap3\n      swap2\n      pop\n      pop\n      jump\t// out\n        /* \"#utility.yul\":14729:15219   */\n    tag_175:\n        /* \"#utility.yul\":14805:14811   */\n      0x00\n        /* \"#utility.yul\":14813:14819   */\n      dup1\n        /* \"#utility.yul\":14862:14864   */\n      0x40\n        /* \"#utility.yul\":14850:14859   */\n      dup4\n        /* \"#utility.yul\":14841:14848   */\n      dup6\n        /* \"#utility.yul\":14837:14860   */\n      sub\n        /* \"#utility.yul\":14833:14865   */\n      slt\n        /* \"#utility.yul\":14830:14949   */\n      iszero\n      tag_521\n      jumpi\n        /* \"#utility.yul\":14868:14947   */\n      tag_522\n      tag_309\n      jump\t// in\n    tag_522:\n        /* \"#utility.yul\":14830:14949   */\n    tag_521:\n        /* \"#utility.yul\":14988:14989   */\n      0x00\n        /* \"#utility.yul\":15013:15074   */\n      tag_523\n        /* \"#utility.yul\":15066:15073   */\n      dup6\n        /* \"#utility.yul\":15057:15063   */\n      dup3\n        /* \"#utility.yul\":15046:15055   */\n      dup7\n        /* \"#utility.yul\":15042:15064   */\n      add\n        /* \"#utility.yul\":15013:15074   */\n      tag_342\n      jump\t// in\n    tag_523:\n        /* \"#utility.yul\":15003:15074   */\n      swap3\n      pop\n        /* \"#utility.yul\":14959:15084   */\n      pop\n        /* \"#utility.yul\":15123:15125   */\n      0x20\n        /* \"#utility.yul\":15149:15202   */\n      tag_524\n        /* \"#utility.yul\":15194:15201   */\n      dup6\n        /* \"#utility.yul\":15185:15191   */\n      dup3\n        /* \"#utility.yul\":15174:15183   */\n      dup7\n        /* \"#utility.yul\":15170:15192   */\n      add\n        /* \"#utility.yul\":15149:15202   */\n      tag_312\n      jump\t// in\n    tag_524:\n        /* \"#utility.yul\":15139:15202   */\n      swap2\n      pop\n        /* \"#utility.yul\":15094:15212   */\n      pop\n        /* \"#utility.yul\":14729:15219   */\n      swap3\n      pop\n      swap3\n      swap1\n      pop\n      jump\t// out\n        /* \"#utility.yul\":15225:15557   */\n    tag_195:\n        /* \"#utility.yul\":15346:15350   */\n      0x00\n        /* \"#utility.yul\":15384:15386   */\n      0x40\n        /* \"#utility.yul\":15373:15382   */\n      dup3\n        /* \"#utility.yul\":15369:15387   */\n      add\n        /* \"#utility.yul\":15361:15387   */\n      swap1\n      pop\n        /* \"#utility.yul\":15397:15468   */\n      tag_526\n        /* \"#utility.yul\":15465:15466   */\n      0x00\n        /* \"#utility.yul\":15454:15463   */\n      dup4\n        /* \"#utility.yul\":15450:15467   */\n      add\n        /* \"#utility.yul\":15441:15447   */\n      dup6\n        /* \"#utility.yul\":15397:15468   */\n      tag_332\n      jump\t// in\n    tag_526:\n        /* \"#utility.yul\":15478:15550   */\n      tag_527\n        /* \"#utility.yul\":15546:15548   */\n      0x20\n        /* \"#utility.yul\":15535:15544   */\n      dup4\n        /* \"#utility.yul\":15531:15549   */\n      add\n        /* \"#utility.yul\":15522:15528   */\n      dup5\n        /* \"#utility.yul\":15478:15550   */\n      tag_332\n      jump\t// in\n    tag_527:\n        /* \"#utility.yul\":15225:15557   */\n      swap4\n      swap3\n      pop\n      pop\n      pop\n      jump\t// out\n        /* \"#utility.yul\":15563:15743   */\n    tag_343:\n        /* \"#utility.yul\":15611:15688   */\n      0x4e487b7100000000000000000000000000000000000000000000000000000000\n        /* \"#utility.yul\":15608:15609   */\n      0x00\n        /* \"#utility.yul\":15601:15689   */\n      mstore\n        /* \"#utility.yul\":15708:15712   */\n      0x22\n        /* \"#utility.yul\":15705:15706   */\n      0x04\n        /* \"#utility.yul\":15698:15713   */\n      mstore\n        /* \"#utility.yul\":15732:15736   */\n      0x24\n        /* \"#utility.yul\":15729:15730   */\n      0x00\n        /* \"#utility.yul\":15722:15737   */\n      revert\n        /* \"#utility.yul\":15749:16069   */\n    tag_199:\n        /* \"#utility.yul\":15793:15799   */\n      0x00\n        /* \"#utility.yul\":15830:15831   */\n      0x02\n        /* \"#utility.yul\":15824:15828   */\n      dup3\n        /* \"#utility.yul\":15820:15832   */\n      div\n        /* \"#utility.yul\":15810:15832   */\n      swap1\n      pop\n        /* \"#utility.yul\":15877:15878   */\n      0x01\n        /* \"#utility.yul\":15871:15875   */\n      dup3\n        /* \"#utility.yul\":15867:15879   */\n      and\n        /* \"#utility.yul\":15898:15916   */\n      dup1\n        /* \"#utility.yul\":15888:15969   */\n      tag_530\n      jumpi\n        /* \"#utility.yul\":15954:15958   */\n      0x7f\n        /* \"#utility.yul\":15946:15952   */\n      dup3\n        /* \"#utility.yul\":15942:15959   */\n      and\n        /* \"#utility.yul\":15932:15959   */\n      swap2\n      pop\n        /* \"#utility.yul\":15888:15969   */\n    tag_530:\n        /* \"#utility.yul\":16016:16018   */\n      0x20\n        /* \"#utility.yul\":16008:16014   */\n      dup3\n        /* \"#utility.yul\":16005:16019   */\n      lt\n        /* \"#utility.yul\":15985:16003   */\n      dup2\n        /* \"#utility.yul\":15982:16020   */\n      sub\n        /* \"#utility.yul\":15979:16063   */\n      tag_531\n      jumpi\n        /* \"#utility.yul\":16035:16053   */\n      tag_532\n      tag_343\n      jump\t// in\n    tag_532:\n        /* \"#utility.yul\":15979:16063   */\n    tag_531:\n        /* \"#utility.yul\":15800:16069   */\n      pop\n        /* \"#utility.yul\":15749:16069   */\n      swap2\n      swap1\n      pop\n      jump\t// out\n        /* \"#utility.yul\":16075:16247   */\n    tag_344:\n        /* \"#utility.yul\":16215:16239   */\n      0x4d7573742062652070726f706f736564206f776e657200000000000000000000\n        /* \"#utility.yul\":16211:16212   */\n      0x00\n        /* \"#utility.yul\":16203:16209   */\n      dup3\n        /* \"#utility.yul\":16199:16213   */\n      add\n        /* \"#utility.yul\":16192:16240   */\n      mstore\n        /* \"#utility.yul\":16075:16247   */\n      pop\n      jump\t// out\n        /* \"#utility.yul\":16253:16619   */\n    tag_345:\n        /* \"#utility.yul\":16395:16398   */\n      0x00\n        /* \"#utility.yul\":16416:16483   */\n      tag_535\n        /* \"#utility.yul\":16480:16482   */\n      0x16\n        /* \"#utility.yul\":16475:16478   */\n      dup4\n        /* \"#utility.yul\":16416:16483   */\n      tag_293\n      jump\t// in\n    tag_535:\n        /* \"#utility.yul\":16409:16483   */\n      swap2\n      pop\n        /* \"#utility.yul\":16492:16585   */\n      tag_536\n        /* \"#utility.yul\":16581:16584   */\n      dup3\n        /* \"#utility.yul\":16492:16585   */\n      tag_344\n      jump\t// in\n    tag_536:\n        /* \"#utility.yul\":16610:16612   */\n      0x20\n        /* \"#utility.yul\":16605:16608   */\n      dup3\n        /* \"#utility.yul\":16601:16613   */\n      add\n        /* \"#utility.yul\":16594:16613   */\n      swap1\n      pop\n        /* \"#utility.yul\":16253:16619   */\n      swap2\n      swap1\n      pop\n      jump\t// out\n        /* \"#utility.yul\":16625:17044   */\n    tag_207:\n        /* \"#utility.yul\":16791:16795   */\n      0x00\n        /* \"#utility.yul\":16829:16831   */\n      0x20\n        /* \"#utility.yul\":16818:16827   */\n      dup3\n        /* \"#utility.yul\":16814:16832   */\n      add\n        /* \"#utility.yul\":16806:16832   */\n      swap1\n      pop\n        /* \"#utility.yul\":16878:16887   */\n      dup2\n        /* \"#utility.yul\":16872:16876   */\n      dup2\n        /* \"#utility.yul\":16868:16888   */\n      sub\n        /* \"#utility.yul\":16864:16865   */\n      0x00\n        /* \"#utility.yul\":16853:16862   */\n      dup4\n        /* \"#utility.yul\":16849:16866   */\n      add\n        /* \"#utility.yul\":16842:16889   */\n      mstore\n        /* \"#utility.yul\":16906:17037   */\n      tag_538\n        /* \"#utility.yul\":17032:17036   */\n      dup2\n        /* \"#utility.yul\":16906:17037   */\n      tag_345\n      jump\t// in\n    tag_538:\n        /* \"#utility.yul\":16898:17037   */\n      swap1\n      pop\n        /* \"#utility.yul\":16625:17044   */\n      swap2\n      swap1\n      pop\n      jump\t// out\n        /* \"#utility.yul\":17050:17492   */\n    tag_215:\n        /* \"#utility.yul\":17199:17203   */\n      0x00\n        /* \"#utility.yul\":17237:17239   */\n      0x60\n        /* \"#utility.yul\":17226:17235   */\n      dup3\n        /* \"#utility.yul\":17222:17240   */\n      add\n        /* \"#utility.yul\":17214:17240   */\n      swap1\n      pop\n        /* \"#utility.yul\":17250:17321   */\n      tag_540\n        /* \"#utility.yul\":17318:17319   */\n      0x00\n        /* \"#utility.yul\":17307:17316   */\n      dup4\n        /* \"#utility.yul\":17303:17320   */\n      add\n        /* \"#utility.yul\":17294:17300   */\n      dup7\n        /* \"#utility.yul\":17250:17321   */\n      tag_332\n      jump\t// in\n    tag_540:\n        /* \"#utility.yul\":17331:17403   */\n      tag_541\n        /* \"#utility.yul\":17399:17401   */\n      0x20\n        /* \"#utility.yul\":17388:17397   */\n      dup4\n        /* \"#utility.yul\":17384:17402   */\n      add\n        /* \"#utility.yul\":17375:17381   */\n      dup6\n        /* \"#utility.yul\":17331:17403   */\n      tag_332\n      jump\t// in\n    tag_541:\n        /* \"#utility.yul\":17413:17485   */\n      tag_542\n        /* \"#utility.yul\":17481:17483   */\n      0x40\n        /* \"#utility.yul\":17470:17479   */\n      dup4\n        /* \"#utility.yul\":17466:17484   */\n      add\n        /* \"#utility.yul\":17457:17463   */\n      dup5\n        /* \"#utility.yul\":17413:17485   */\n      tag_332\n      jump\t// in\n    tag_542:\n        /* \"#utility.yul\":17050:17492   */\n      swap5\n      swap4\n      pop\n      pop\n      pop\n      pop\n      jump\t// out\n        /* \"#utility.yul\":17498:17679   */\n    tag_346:\n        /* \"#utility.yul\":17638:17671   */\n      0x52616e646f6d206e756d62657220616c72656164792067656e65726174656400\n        /* \"#utility.yul\":17634:17635   */\n      0x00\n        /* \"#utility.yul\":17626:17632   */\n      dup3\n        /* \"#utility.yul\":17622:17636   */\n      add\n        /* \"#utility.yul\":17615:17672   */\n      mstore\n        /* \"#utility.yul\":17498:17679   */\n      pop\n      jump\t// out\n        /* \"#utility.yul\":17685:18051   */\n    tag_347:\n        /* \"#utility.yul\":17827:17830   */\n      0x00\n        /* \"#utility.yul\":17848:17915   */\n      tag_545\n        /* \"#utility.yul\":17912:17914   */\n      0x1f\n        /* \"#utility.yul\":17907:17910   */\n      dup4\n        /* \"#utility.yul\":17848:17915   */\n      tag_293\n      jump\t// in\n    tag_545:\n        /* \"#utility.yul\":17841:17915   */\n      swap2\n      pop\n        /* \"#utility.yul\":17924:18017   */\n      tag_546\n        /* \"#utility.yul\":18013:18016   */\n      dup3\n        /* \"#utility.yul\":17924:18017   */\n      tag_346\n      jump\t// in\n    tag_546:\n        /* \"#utility.yul\":18042:18044   */\n      0x20\n        /* \"#utility.yul\":18037:18040   */\n      dup3\n        /* \"#utility.yul\":18033:18045   */\n      add\n        /* \"#utility.yul\":18026:18045   */\n      swap1\n      pop\n        /* \"#utility.yul\":17685:18051   */\n      swap2\n      swap1\n      pop\n      jump\t// out\n        /* \"#utility.yul\":18057:18476   */\n    tag_225:\n        /* \"#utility.yul\":18223:18227   */\n      0x00\n        /* \"#utility.yul\":18261:18263   */\n      0x20\n        /* \"#utility.yul\":18250:18259   */\n      dup3\n        /* \"#utility.yul\":18246:18264   */\n      add\n        /* \"#utility.yul\":18238:18264   */\n      swap1\n      pop\n        /* \"#utility.yul\":18310:18319   */\n      dup2\n        /* \"#utility.yul\":18304:18308   */\n      dup2\n        /* \"#utility.yul\":18300:18320   */\n      sub\n        /* \"#utility.yul\":18296:18297   */\n      0x00\n        /* \"#utility.yul\":18285:18294   */\n      dup4\n        /* \"#utility.yul\":18281:18298   */\n      add\n        /* \"#utility.yul\":18274:18321   */\n      mstore\n        /* \"#utility.yul\":18338:18469   */\n      tag_548\n        /* \"#utility.yul\":18464:18468   */\n      dup2\n        /* \"#utility.yul\":18338:18469   */\n      tag_347\n      jump\t// in\n    tag_548:\n        /* \"#utility.yul\":18330:18469   */\n      swap1\n      pop\n        /* \"#utility.yul\":18057:18476   */\n      swap2\n      swap1\n      pop\n      jump\t// out\n        /* \"#utility.yul\":18482:18664   */\n    tag_348:\n        /* \"#utility.yul\":18622:18656   */\n      0x4d61782072616e6765206d7573742062652067726561746572207468616e2030\n        /* \"#utility.yul\":18618:18619   */\n      0x00\n        /* \"#utility.yul\":18610:18616   */\n      dup3\n        /* \"#utility.yul\":18606:18620   */\n      add\n        /* \"#utility.yul\":18599:18657   */\n      mstore\n        /* \"#utility.yul\":18482:18664   */\n      pop\n      jump\t// out\n        /* \"#utility.yul\":18670:19036   */\n    tag_349:\n        /* \"#utility.yul\":18812:18815   */\n      0x00\n        /* \"#utility.yul\":18833:18900   */\n      tag_551\n        /* \"#utility.yul\":18897:18899   */\n      0x20\n        /* \"#utility.yul\":18892:18895   */\n      dup4\n        /* \"#utility.yul\":18833:18900   */\n      tag_293\n      jump\t// in\n    tag_551:\n        /* \"#utility.yul\":18826:18900   */\n      swap2\n      pop\n        /* \"#utility.yul\":18909:19002   */\n      tag_552\n        /* \"#utility.yul\":18998:19001   */\n      dup3\n        /* \"#utility.yul\":18909:19002   */\n      tag_348\n      jump\t// in\n    tag_552:\n        /* \"#utility.yul\":19027:19029   */\n      0x20\n        /* \"#utility.yul\":19022:19025   */\n      dup3\n        /* \"#utility.yul\":19018:19030   */\n      add\n        /* \"#utility.yul\":19011:19030   */\n      swap1\n      pop\n        /* \"#utility.yul\":18670:19036   */\n      swap2\n      swap1\n      pop\n      jump\t// out\n        /* \"#utility.yul\":19042:19461   */\n    tag_228:\n        /* \"#utility.yul\":19208:19212   */\n      0x00\n        /* \"#utility.yul\":19246:19248   */\n      0x20\n        /* \"#utility.yul\":19235:19244   */\n      dup3\n        /* \"#utility.yul\":19231:19249   */\n      add\n        /* \"#utility.yul\":19223:19249   */\n      swap1\n      pop\n        /* \"#utility.yul\":19295:19304   */\n      dup2\n        /* \"#utility.yul\":19289:19293   */\n      dup2\n        /* \"#utility.yul\":19285:19305   */\n      sub\n        /* \"#utility.yul\":19281:19282   */\n      0x00\n        /* \"#utility.yul\":19270:19279   */\n      dup4\n        /* \"#utility.yul\":19266:19283   */\n      add\n        /* \"#utility.yul\":19259:19306   */\n      mstore\n        /* \"#utility.yul\":19323:19454   */\n      tag_554\n        /* \"#utility.yul\":19449:19453   */\n      dup2\n        /* \"#utility.yul\":19323:19454   */\n      tag_349\n      jump\t// in\n    tag_554:\n        /* \"#utility.yul\":19315:19454   */\n      swap1\n      pop\n        /* \"#utility.yul\":19042:19461   */\n      swap2\n      swap1\n      pop\n      jump\t// out\n        /* \"#utility.yul\":19467:19575   */\n    tag_350:\n        /* \"#utility.yul\":19544:19568   */\n      tag_556\n        /* \"#utility.yul\":19562:19567   */\n      dup2\n        /* \"#utility.yul\":19544:19568   */\n      tag_319\n      jump\t// in\n    tag_556:\n        /* \"#utility.yul\":19539:19542   */\n      dup3\n        /* \"#utility.yul\":19532:19569   */\n      mstore\n        /* \"#utility.yul\":19467:19575   */\n      pop\n      pop\n      jump\t// out\n        /* \"#utility.yul\":19581:19689   */\n    tag_351:\n        /* \"#utility.yul\":19658:19682   */\n      tag_558\n        /* \"#utility.yul\":19676:19681   */\n      dup2\n        /* \"#utility.yul\":19658:19682   */\n      tag_301\n      jump\t// in\n    tag_558:\n        /* \"#utility.yul\":19653:19656   */\n      dup3\n        /* \"#utility.yul\":19646:19683   */\n      mstore\n        /* \"#utility.yul\":19581:19689   */\n      pop\n      pop\n      jump\t// out\n        /* \"#utility.yul\":19695:19800   */\n    tag_352:\n        /* \"#utility.yul\":19770:19793   */\n      tag_560\n        /* \"#utility.yul\":19787:19792   */\n      dup2\n        /* \"#utility.yul\":19770:19793   */\n      tag_321\n      jump\t// in\n    tag_560:\n        /* \"#utility.yul\":19765:19768   */\n      dup3\n        /* \"#utility.yul\":19758:19794   */\n      mstore\n        /* \"#utility.yul\":19695:19800   */\n      pop\n      pop\n      jump\t// out\n        /* \"#utility.yul\":19806:19911   */\n    tag_353:\n        /* \"#utility.yul\":19881:19904   */\n      tag_562\n        /* \"#utility.yul\":19898:19903   */\n      dup2\n        /* \"#utility.yul\":19881:19904   */\n      tag_317\n      jump\t// in\n    tag_562:\n        /* \"#utility.yul\":19876:19879   */\n      dup3\n        /* \"#utility.yul\":19869:19905   */\n      mstore\n        /* \"#utility.yul\":19806:19911   */\n      pop\n      pop\n      jump\t// out\n        /* \"#utility.yul\":19917:20075   */\n    tag_354:\n        /* \"#utility.yul\":19990:20001   */\n      0x00\n        /* \"#utility.yul\":20024:20030   */\n      dup3\n        /* \"#utility.yul\":20019:20022   */\n      dup3\n        /* \"#utility.yul\":20012:20031   */\n      mstore\n        /* \"#utility.yul\":20064:20068   */\n      0x20\n        /* \"#utility.yul\":20059:20062   */\n      dup3\n        /* \"#utility.yul\":20055:20069   */\n      add\n        /* \"#utility.yul\":20040:20069   */\n      swap1\n      pop\n        /* \"#utility.yul\":19917:20075   */\n      swap3\n      swap2\n      pop\n      pop\n      jump\t// out\n        /* \"#utility.yul\":20081:20434   */\n    tag_355:\n        /* \"#utility.yul\":20157:20160   */\n      0x00\n        /* \"#utility.yul\":20185:20223   */\n      tag_565\n        /* \"#utility.yul\":20217:20222   */\n      dup3\n        /* \"#utility.yul\":20185:20223   */\n      tag_323\n      jump\t// in\n    tag_565:\n        /* \"#utility.yul\":20239:20299   */\n      tag_566\n        /* \"#utility.yul\":20292:20298   */\n      dup2\n        /* \"#utility.yul\":20287:20290   */\n      dup6\n        /* \"#utility.yul\":20239:20299   */\n      tag_354\n      jump\t// in\n    tag_566:\n        /* \"#utility.yul\":20232:20299   */\n      swap4\n      pop\n        /* \"#utility.yul\":20308:20373   */\n      tag_567\n        /* \"#utility.yul\":20366:20372   */\n      dup2\n        /* \"#utility.yul\":20361:20364   */\n      dup6\n        /* \"#utility.yul\":20354:20358   */\n      0x20\n        /* \"#utility.yul\":20347:20352   */\n      dup7\n        /* \"#utility.yul\":20343:20359   */\n      add\n        /* \"#utility.yul\":20308:20373   */\n      tag_325\n      jump\t// in\n    tag_567:\n        /* \"#utility.yul\":20398:20427   */\n      tag_568\n        /* \"#utility.yul\":20420:20426   */\n      dup2\n        /* \"#utility.yul\":20398:20427   */\n      tag_326\n      jump\t// in\n    tag_568:\n        /* \"#utility.yul\":20393:20396   */\n      dup5\n        /* \"#utility.yul\":20389:20428   */\n      add\n        /* \"#utility.yul\":20382:20428   */\n      swap2\n      pop\n        /* \"#utility.yul\":20161:20434   */\n      pop\n        /* \"#utility.yul\":20081:20434   */\n      swap3\n      swap2\n      pop\n      pop\n      jump\t// out\n        /* \"#utility.yul\":20534:21891   */\n    tag_356:\n        /* \"#utility.yul\":20675:20678   */\n      0x00\n        /* \"#utility.yul\":20711:20715   */\n      0xc0\n        /* \"#utility.yul\":20706:20709   */\n      dup4\n        /* \"#utility.yul\":20702:20716   */\n      add\n        /* \"#utility.yul\":20801:20805   */\n      0x00\n        /* \"#utility.yul\":20794:20799   */\n      dup4\n        /* \"#utility.yul\":20790:20806   */\n      add\n        /* \"#utility.yul\":20784:20807   */\n      mload\n        /* \"#utility.yul\":20820:20883   */\n      tag_570\n        /* \"#utility.yul\":20877:20881   */\n      0x00\n        /* \"#utility.yul\":20872:20875   */\n      dup7\n        /* \"#utility.yul\":20868:20882   */\n      add\n        /* \"#utility.yul\":20854:20866   */\n      dup3\n        /* \"#utility.yul\":20820:20883   */\n      tag_350\n      jump\t// in\n    tag_570:\n        /* \"#utility.yul\":20726:20893   */\n      pop\n        /* \"#utility.yul\":20976:20980   */\n      0x20\n        /* \"#utility.yul\":20969:20974   */\n      dup4\n        /* \"#utility.yul\":20965:20981   */\n      add\n        /* \"#utility.yul\":20959:20982   */\n      mload\n        /* \"#utility.yul\":20995:21058   */\n      tag_571\n        /* \"#utility.yul\":21052:21056   */\n      0x20\n        /* \"#utility.yul\":21047:21050   */\n      dup7\n        /* \"#utility.yul\":21043:21057   */\n      add\n        /* \"#utility.yul\":21029:21041   */\n      dup3\n        /* \"#utility.yul\":20995:21058   */\n      tag_351\n      jump\t// in\n    tag_571:\n        /* \"#utility.yul\":20903:21068   */\n      pop\n        /* \"#utility.yul\":21166:21170   */\n      0x40\n        /* \"#utility.yul\":21159:21164   */\n      dup4\n        /* \"#utility.yul\":21155:21171   */\n      add\n        /* \"#utility.yul\":21149:21172   */\n      mload\n        /* \"#utility.yul\":21185:21246   */\n      tag_572\n        /* \"#utility.yul\":21240:21244   */\n      0x40\n        /* \"#utility.yul\":21235:21238   */\n      dup7\n        /* \"#utility.yul\":21231:21245   */\n      add\n        /* \"#utility.yul\":21217:21229   */\n      dup3\n        /* \"#utility.yul\":21185:21246   */\n      tag_352\n      jump\t// in\n    tag_572:\n        /* \"#utility.yul\":21078:21256   */\n      pop\n        /* \"#utility.yul\":21350:21354   */\n      0x60\n        /* \"#utility.yul\":21343:21348   */\n      dup4\n        /* \"#utility.yul\":21339:21355   */\n      add\n        /* \"#utility.yul\":21333:21356   */\n      mload\n        /* \"#utility.yul\":21369:21430   */\n      tag_573\n        /* \"#utility.yul\":21424:21428   */\n      0x60\n        /* \"#utility.yul\":21419:21422   */\n      dup7\n        /* \"#utility.yul\":21415:21429   */\n      add\n        /* \"#utility.yul\":21401:21413   */\n      dup3\n        /* \"#utility.yul\":21369:21430   */\n      tag_353\n      jump\t// in\n    tag_573:\n        /* \"#utility.yul\":21266:21440   */\n      pop\n        /* \"#utility.yul\":21526:21530   */\n      0x80\n        /* \"#utility.yul\":21519:21524   */\n      dup4\n        /* \"#utility.yul\":21515:21531   */\n      add\n        /* \"#utility.yul\":21509:21532   */\n      mload\n        /* \"#utility.yul\":21545:21606   */\n      tag_574\n        /* \"#utility.yul\":21600:21604   */\n      0x80\n        /* \"#utility.yul\":21595:21598   */\n      dup7\n        /* \"#utility.yul\":21591:21605   */\n      add\n        /* \"#utility.yul\":21577:21589   */\n      dup3\n        /* \"#utility.yul\":21545:21606   */\n      tag_353\n      jump\t// in\n    tag_574:\n        /* \"#utility.yul\":21450:21616   */\n      pop\n        /* \"#utility.yul\":21703:21707   */\n      0xa0\n        /* \"#utility.yul\":21696:21701   */\n      dup4\n        /* \"#utility.yul\":21692:21708   */\n      add\n        /* \"#utility.yul\":21686:21709   */\n      mload\n        /* \"#utility.yul\":21756:21759   */\n      dup5\n        /* \"#utility.yul\":21750:21754   */\n      dup3\n        /* \"#utility.yul\":21746:21760   */\n      sub\n        /* \"#utility.yul\":21739:21743   */\n      0xa0\n        /* \"#utility.yul\":21734:21737   */\n      dup7\n        /* \"#utility.yul\":21730:21744   */\n      add\n        /* \"#utility.yul\":21723:21761   */\n      mstore\n        /* \"#utility.yul\":21782:21853   */\n      tag_575\n        /* \"#utility.yul\":21848:21852   */\n      dup3\n        /* \"#utility.yul\":21834:21846   */\n      dup3\n        /* \"#utility.yul\":21782:21853   */\n      tag_355\n      jump\t// in\n    tag_575:\n        /* \"#utility.yul\":21774:21853   */\n      swap2\n      pop\n        /* \"#utility.yul\":21626:21864   */\n      pop\n        /* \"#utility.yul\":21881:21885   */\n      dup1\n        /* \"#utility.yul\":21874:21885   */\n      swap2\n      pop\n        /* \"#utility.yul\":20680:21891   */\n      pop\n        /* \"#utility.yul\":20534:21891   */\n      swap3\n      swap2\n      pop\n      pop\n      jump\t// out\n        /* \"#utility.yul\":21897:22314   */\n    tag_232:\n        /* \"#utility.yul\":22062:22066   */\n      0x00\n        /* \"#utility.yul\":22100:22102   */\n      0x20\n        /* \"#utility.yul\":22089:22098   */\n      dup3\n        /* \"#utility.yul\":22085:22103   */\n      add\n        /* \"#utility.yul\":22077:22103   */\n      swap1\n      pop\n        /* \"#utility.yul\":22149:22158   */\n      dup2\n        /* \"#utility.yul\":22143:22147   */\n      dup2\n        /* \"#utility.yul\":22139:22159   */\n      sub\n        /* \"#utility.yul\":22135:22136   */\n      0x00\n        /* \"#utility.yul\":22124:22133   */\n      dup4\n        /* \"#utility.yul\":22120:22137   */\n      add\n        /* \"#utility.yul\":22113:22160   */\n      mstore\n        /* \"#utility.yul\":22177:22307   */\n      tag_577\n        /* \"#utility.yul\":22302:22306   */\n      dup2\n        /* \"#utility.yul\":22293:22299   */\n      dup5\n        /* \"#utility.yul\":22177:22307   */\n      tag_356\n      jump\t// in\n    tag_577:\n        /* \"#utility.yul\":22169:22307   */\n      swap1\n      pop\n        /* \"#utility.yul\":21897:22314   */\n      swap3\n      swap2\n      pop\n      pop\n      jump\t// out\n        /* \"#utility.yul\":22320:22463   */\n    tag_357:\n        /* \"#utility.yul\":22377:22382   */\n      0x00\n        /* \"#utility.yul\":22408:22414   */\n      dup2\n        /* \"#utility.yul\":22402:22415   */\n      mload\n        /* \"#utility.yul\":22393:22415   */\n      swap1\n      pop\n        /* \"#utility.yul\":22424:22457   */\n      tag_579\n        /* \"#utility.yul\":22451:22456   */\n      dup2\n        /* \"#utility.yul\":22424:22457   */\n      tag_311\n      jump\t// in\n    tag_579:\n        /* \"#utility.yul\":22320:22463   */\n      swap3\n      swap2\n      pop\n      pop\n      jump\t// out\n        /* \"#utility.yul\":22469:22820   */\n    tag_236:\n        /* \"#utility.yul\":22539:22545   */\n      0x00\n        /* \"#utility.yul\":22588:22590   */\n      0x20\n        /* \"#utility.yul\":22576:22585   */\n      dup3\n        /* \"#utility.yul\":22567:22574   */\n      dup5\n        /* \"#utility.yul\":22563:22586   */\n      sub\n        /* \"#utility.yul\":22559:22591   */\n      slt\n        /* \"#utility.yul\":22556:22675   */\n      iszero\n      tag_581\n      jumpi\n        /* \"#utility.yul\":22594:22673   */\n      tag_582\n      tag_309\n      jump\t// in\n    tag_582:\n        /* \"#utility.yul\":22556:22675   */\n    tag_581:\n        /* \"#utility.yul\":22714:22715   */\n      0x00\n        /* \"#utility.yul\":22739:22803   */\n      tag_583\n        /* \"#utility.yul\":22795:22802   */\n      dup5\n        /* \"#utility.yul\":22786:22792   */\n      dup3\n        /* \"#utility.yul\":22775:22784   */\n      dup6\n        /* \"#utility.yul\":22771:22793   */\n      add\n        /* \"#utility.yul\":22739:22803   */\n      tag_357\n      jump\t// in\n    tag_583:\n        /* \"#utility.yul\":22729:22803   */\n      swap2\n      pop\n        /* \"#utility.yul\":22685:22813   */\n      pop\n        /* \"#utility.yul\":22469:22820   */\n      swap3\n      swap2\n      pop\n      pop\n      jump\t// out\n        /* \"#utility.yul\":22826:23060   */\n    tag_358:\n        /* \"#utility.yul\":22966:23000   */\n      0x6163616f206e616f207065726d697469646120616e7465732064612064617461\n        /* \"#utility.yul\":22962:22963   */\n      0x00\n        /* \"#utility.yul\":22954:22960   */\n      dup3\n        /* \"#utility.yul\":22950:22964   */\n      add\n        /* \"#utility.yul\":22943:23001   */\n      mstore\n        /* \"#utility.yul\":23035:23052   */\n      0x20646520646573626c6f717565696f0000000000000000000000000000000000\n        /* \"#utility.yul\":23030:23032   */\n      0x20\n        /* \"#utility.yul\":23022:23028   */\n      dup3\n        /* \"#utility.yul\":23018:23033   */\n      add\n        /* \"#utility.yul\":23011:23053   */\n      mstore\n        /* \"#utility.yul\":22826:23060   */\n      pop\n      jump\t// out\n        /* \"#utility.yul\":23066:23432   */\n    tag_359:\n        /* \"#utility.yul\":23208:23211   */\n      0x00\n        /* \"#utility.yul\":23229:23296   */\n      tag_586\n        /* \"#utility.yul\":23293:23295   */\n      0x2f\n        /* \"#utility.yul\":23288:23291   */\n      dup4\n        /* \"#utility.yul\":23229:23296   */\n      tag_293\n      jump\t// in\n    tag_586:\n        /* \"#utility.yul\":23222:23296   */\n      swap2\n      pop\n        /* \"#utility.yul\":23305:23398   */\n      tag_587\n        /* \"#utility.yul\":23394:23397   */\n      dup3\n        /* \"#utility.yul\":23305:23398   */\n      tag_358\n      jump\t// in\n    tag_587:\n        /* \"#utility.yul\":23423:23425   */\n      0x40\n        /* \"#utility.yul\":23418:23421   */\n      dup3\n        /* \"#utility.yul\":23414:23426   */\n      add\n        /* \"#utility.yul\":23407:23426   */\n      swap1\n      pop\n        /* \"#utility.yul\":23066:23432   */\n      swap2\n      swap1\n      pop\n      jump\t// out\n        /* \"#utility.yul\":23438:23857   */\n    tag_253:\n        /* \"#utility.yul\":23604:23608   */\n      0x00\n        /* \"#utility.yul\":23642:23644   */\n      0x20\n        /* \"#utility.yul\":23631:23640   */\n      dup3\n        /* \"#utility.yul\":23627:23645   */\n      add\n        /* \"#utility.yul\":23619:23645   */\n      swap1\n      pop\n        /* \"#utility.yul\":23691:23700   */\n      dup2\n        /* \"#utility.yul\":23685:23689   */\n      dup2\n        /* \"#utility.yul\":23681:23701   */\n      sub\n        /* \"#utility.yul\":23677:23678   */\n      0x00\n        /* \"#utility.yul\":23666:23675   */\n      dup4\n        /* \"#utility.yul\":23662:23679   */\n      add\n        /* \"#utility.yul\":23655:23702   */\n      mstore\n        /* \"#utility.yul\":23719:23850   */\n      tag_589\n        /* \"#utility.yul\":23845:23849   */\n      dup2\n        /* \"#utility.yul\":23719:23850   */\n      tag_359\n      jump\t// in\n    tag_589:\n        /* \"#utility.yul\":23711:23850   */\n      swap1\n      pop\n        /* \"#utility.yul\":23438:23857   */\n      swap2\n      swap1\n      pop\n      jump\t// out\n        /* \"#utility.yul\":23863:24031   */\n    tag_360:\n        /* \"#utility.yul\":24003:24023   */\n      0x53616c646f20696e737566696369656e74650000000000000000000000000000\n        /* \"#utility.yul\":23999:24000   */\n      0x00\n        /* \"#utility.yul\":23991:23997   */\n      dup3\n        /* \"#utility.yul\":23987:24001   */\n      add\n        /* \"#utility.yul\":23980:24024   */\n      mstore\n        /* \"#utility.yul\":23863:24031   */\n      pop\n      jump\t// out\n        /* \"#utility.yul\":24037:24403   */\n    tag_361:\n        /* \"#utility.yul\":24179:24182   */\n      0x00\n        /* \"#utility.yul\":24200:24267   */\n      tag_592\n        /* \"#utility.yul\":24264:24266   */\n      0x12\n        /* \"#utility.yul\":24259:24262   */\n      dup4\n        /* \"#utility.yul\":24200:24267   */\n      tag_293\n      jump\t// in\n    tag_592:\n        /* \"#utility.yul\":24193:24267   */\n      swap2\n      pop\n        /* \"#utility.yul\":24276:24369   */\n      tag_593\n        /* \"#utility.yul\":24365:24368   */\n      dup3\n        /* \"#utility.yul\":24276:24369   */\n      tag_360\n      jump\t// in\n    tag_593:\n        /* \"#utility.yul\":24394:24396   */\n      0x20\n        /* \"#utility.yul\":24389:24392   */\n      dup3\n        /* \"#utility.yul\":24385:24397   */\n      add\n        /* \"#utility.yul\":24378:24397   */\n      swap1\n      pop\n        /* \"#utility.yul\":24037:24403   */\n      swap2\n      swap1\n      pop\n      jump\t// out\n        /* \"#utility.yul\":24409:24828   */\n    tag_257:\n        /* \"#utility.yul\":24575:24579   */\n      0x00\n        /* \"#utility.yul\":24613:24615   */\n      0x20\n        /* \"#utility.yul\":24602:24611   */\n      dup3\n        /* \"#utility.yul\":24598:24616   */\n      add\n        /* \"#utility.yul\":24590:24616   */\n      swap1\n      pop\n        /* \"#utility.yul\":24662:24671   */\n      dup2\n        /* \"#utility.yul\":24656:24660   */\n      dup2\n        /* \"#utility.yul\":24652:24672   */\n      sub\n        /* \"#utility.yul\":24648:24649   */\n      0x00\n        /* \"#utility.yul\":24637:24646   */\n      dup4\n        /* \"#utility.yul\":24633:24650   */\n      add\n        /* \"#utility.yul\":24626:24673   */\n      mstore\n        /* \"#utility.yul\":24690:24821   */\n      tag_595\n        /* \"#utility.yul\":24816:24820   */\n      dup2\n        /* \"#utility.yul\":24690:24821   */\n      tag_361\n      jump\t// in\n    tag_595:\n        /* \"#utility.yul\":24682:24821   */\n      swap1\n      pop\n        /* \"#utility.yul\":24409:24828   */\n      swap2\n      swap1\n      pop\n      jump\t// out\n        /* \"#utility.yul\":24834:25001   */\n    tag_362:\n        /* \"#utility.yul\":24974:24993   */\n      0x46616c6861206e61207265746972616461000000000000000000000000000000\n        /* \"#utility.yul\":24970:24971   */\n      0x00\n        /* \"#utility.yul\":24962:24968   */\n      dup3\n        /* \"#utility.yul\":24958:24972   */\n      add\n        /* \"#utility.yul\":24951:24994   */\n      mstore\n        /* \"#utility.yul\":24834:25001   */\n      pop\n      jump\t// out\n        /* \"#utility.yul\":25007:25373   */\n    tag_363:\n        /* \"#utility.yul\":25149:25152   */\n      0x00\n        /* \"#utility.yul\":25170:25237   */\n      tag_598\n        /* \"#utility.yul\":25234:25236   */\n      0x11\n        /* \"#utility.yul\":25229:25232   */\n      dup4\n        /* \"#utility.yul\":25170:25237   */\n      tag_293\n      jump\t// in\n    tag_598:\n        /* \"#utility.yul\":25163:25237   */\n      swap2\n      pop\n        /* \"#utility.yul\":25246:25339   */\n      tag_599\n        /* \"#utility.yul\":25335:25338   */\n      dup3\n        /* \"#utility.yul\":25246:25339   */\n      tag_362\n      jump\t// in\n    tag_599:\n        /* \"#utility.yul\":25364:25366   */\n      0x20\n        /* \"#utility.yul\":25359:25362   */\n      dup3\n        /* \"#utility.yul\":25355:25367   */\n      add\n        /* \"#utility.yul\":25348:25367   */\n      swap1\n      pop\n        /* \"#utility.yul\":25007:25373   */\n      swap2\n      swap1\n      pop\n      jump\t// out\n        /* \"#utility.yul\":25379:25798   */\n    tag_264:\n        /* \"#utility.yul\":25545:25549   */\n      0x00\n        /* \"#utility.yul\":25583:25585   */\n      0x20\n        /* \"#utility.yul\":25572:25581   */\n      dup3\n        /* \"#utility.yul\":25568:25586   */\n      add\n        /* \"#utility.yul\":25560:25586   */\n      swap1\n      pop\n        /* \"#utility.yul\":25632:25641   */\n      dup2\n        /* \"#utility.yul\":25626:25630   */\n      dup2\n        /* \"#utility.yul\":25622:25642   */\n      sub\n        /* \"#utility.yul\":25618:25619   */\n      0x00\n        /* \"#utility.yul\":25607:25616   */\n      dup4\n        /* \"#utility.yul\":25603:25620   */\n      add\n        /* \"#utility.yul\":25596:25643   */\n      mstore\n        /* \"#utility.yul\":25660:25791   */\n      tag_601\n        /* \"#utility.yul\":25786:25790   */\n      dup2\n        /* \"#utility.yul\":25660:25791   */\n      tag_363\n      jump\t// in\n    tag_601:\n        /* \"#utility.yul\":25652:25791   */\n      swap1\n      pop\n        /* \"#utility.yul\":25379:25798   */\n      swap2\n      swap1\n      pop\n      jump\t// out\n        /* \"#utility.yul\":25804:25959   */\n    tag_364:\n        /* \"#utility.yul\":25944:25951   */\n      0x4574686572000000000000000000000000000000000000000000000000000000\n        /* \"#utility.yul\":25940:25941   */\n      0x00\n        /* \"#utility.yul\":25932:25938   */\n      dup3\n        /* \"#utility.yul\":25928:25942   */\n      add\n        /* \"#utility.yul\":25921:25952   */\n      mstore\n        /* \"#utility.yul\":25804:25959   */\n      pop\n      jump\t// out\n        /* \"#utility.yul\":25965:26330   */\n    tag_365:\n        /* \"#utility.yul\":26107:26110   */\n      0x00\n        /* \"#utility.yul\":26128:26194   */\n      tag_604\n        /* \"#utility.yul\":26192:26193   */\n      0x05\n        /* \"#utility.yul\":26187:26190   */\n      dup4\n        /* \"#utility.yul\":26128:26194   */\n      tag_293\n      jump\t// in\n    tag_604:\n        /* \"#utility.yul\":26121:26194   */\n      swap2\n      pop\n        /* \"#utility.yul\":26203:26296   */\n      tag_605\n        /* \"#utility.yul\":26292:26295   */\n      dup3\n        /* \"#utility.yul\":26203:26296   */\n      tag_364\n      jump\t// in\n    tag_605:\n        /* \"#utility.yul\":26321:26323   */\n      0x20\n        /* \"#utility.yul\":26316:26319   */\n      dup3\n        /* \"#utility.yul\":26312:26324   */\n      add\n        /* \"#utility.yul\":26305:26324   */\n      swap1\n      pop\n        /* \"#utility.yul\":25965:26330   */\n      swap2\n      swap1\n      pop\n      jump\t// out\n        /* \"#utility.yul\":26336:26865   */\n    tag_266:\n        /* \"#utility.yul\":26530:26534   */\n      0x00\n        /* \"#utility.yul\":26568:26570   */\n      0x40\n        /* \"#utility.yul\":26557:26566   */\n      dup3\n        /* \"#utility.yul\":26553:26571   */\n      add\n        /* \"#utility.yul\":26545:26571   */\n      swap1\n      pop\n        /* \"#utility.yul\":26581:26652   */\n      tag_607\n        /* \"#utility.yul\":26649:26650   */\n      0x00\n        /* \"#utility.yul\":26638:26647   */\n      dup4\n        /* \"#utility.yul\":26634:26651   */\n      add\n        /* \"#utility.yul\":26625:26631   */\n      dup5\n        /* \"#utility.yul\":26581:26652   */\n      tag_302\n      jump\t// in\n    tag_607:\n        /* \"#utility.yul\":26699:26708   */\n      dup2\n        /* \"#utility.yul\":26693:26697   */\n      dup2\n        /* \"#utility.yul\":26689:26709   */\n      sub\n        /* \"#utility.yul\":26684:26686   */\n      0x20\n        /* \"#utility.yul\":26673:26682   */\n      dup4\n        /* \"#utility.yul\":26669:26687   */\n      add\n        /* \"#utility.yul\":26662:26710   */\n      mstore\n        /* \"#utility.yul\":26727:26858   */\n      tag_608\n        /* \"#utility.yul\":26853:26857   */\n      dup2\n        /* \"#utility.yul\":26727:26858   */\n      tag_365\n      jump\t// in\n    tag_608:\n        /* \"#utility.yul\":26719:26858   */\n      swap1\n      pop\n        /* \"#utility.yul\":26336:26865   */\n      swap3\n      swap2\n      pop\n      pop\n      jump\t// out\n        /* \"#utility.yul\":26871:27051   */\n    tag_272:\n        /* \"#utility.yul\":26919:26996   */\n      0x4e487b7100000000000000000000000000000000000000000000000000000000\n        /* \"#utility.yul\":26916:26917   */\n      0x00\n        /* \"#utility.yul\":26909:26997   */\n      mstore\n        /* \"#utility.yul\":27016:27020   */\n      0x32\n        /* \"#utility.yul\":27013:27014   */\n      0x04\n        /* \"#utility.yul\":27006:27021   */\n      mstore\n        /* \"#utility.yul\":27040:27044   */\n      0x24\n        /* \"#utility.yul\":27037:27038   */\n      0x00\n        /* \"#utility.yul\":27030:27045   */\n      revert\n        /* \"#utility.yul\":27057:27237   */\n    tag_366:\n        /* \"#utility.yul\":27105:27182   */\n      0x4e487b7100000000000000000000000000000000000000000000000000000000\n        /* \"#utility.yul\":27102:27103   */\n      0x00\n        /* \"#utility.yul\":27095:27183   */\n      mstore\n        /* \"#utility.yul\":27202:27206   */\n      0x12\n        /* \"#utility.yul\":27199:27200   */\n      0x04\n        /* \"#utility.yul\":27192:27207   */\n      mstore\n        /* \"#utility.yul\":27226:27230   */\n      0x24\n        /* \"#utility.yul\":27223:27224   */\n      0x00\n        /* \"#utility.yul\":27216:27231   */\n      revert\n        /* \"#utility.yul\":27243:27419   */\n    tag_274:\n        /* \"#utility.yul\":27275:27276   */\n      0x00\n        /* \"#utility.yul\":27292:27312   */\n      tag_612\n        /* \"#utility.yul\":27310:27311   */\n      dup3\n        /* \"#utility.yul\":27292:27312   */\n      tag_301\n      jump\t// in\n    tag_612:\n        /* \"#utility.yul\":27287:27312   */\n      swap2\n      pop\n        /* \"#utility.yul\":27326:27346   */\n      tag_613\n        /* \"#utility.yul\":27344:27345   */\n      dup4\n        /* \"#utility.yul\":27326:27346   */\n      tag_301\n      jump\t// in\n    tag_613:\n        /* \"#utility.yul\":27321:27346   */\n      swap3\n      pop\n        /* \"#utility.yul\":27365:27366   */\n      dup3\n        /* \"#utility.yul\":27355:27390   */\n      tag_614\n      jumpi\n        /* \"#utility.yul\":27370:27388   */\n      tag_615\n      tag_366\n      jump\t// in\n    tag_615:\n        /* \"#utility.yul\":27355:27390   */\n    tag_614:\n        /* \"#utility.yul\":27411:27412   */\n      dup3\n        /* \"#utility.yul\":27408:27409   */\n      dup3\n        /* \"#utility.yul\":27404:27413   */\n      mod\n        /* \"#utility.yul\":27399:27413   */\n      swap1\n      pop\n        /* \"#utility.yul\":27243:27419   */\n      swap3\n      swap2\n      pop\n      pop\n      jump\t// out\n        /* \"#utility.yul\":27425:27597   */\n    tag_367:\n        /* \"#utility.yul\":27565:27589   */\n      0x4f6e6c792063616c6c61626c65206279206f776e657200000000000000000000\n        /* \"#utility.yul\":27561:27562   */\n      0x00\n        /* \"#utility.yul\":27553:27559   */\n      dup3\n        /* \"#utility.yul\":27549:27563   */\n      add\n        /* \"#utility.yul\":27542:27590   */\n      mstore\n        /* \"#utility.yul\":27425:27597   */\n      pop\n      jump\t// out\n        /* \"#utility.yul\":27603:27969   */\n    tag_368:\n        /* \"#utility.yul\":27745:27748   */\n      0x00\n        /* \"#utility.yul\":27766:27833   */\n      tag_618\n        /* \"#utility.yul\":27830:27832   */\n      0x16\n        /* \"#utility.yul\":27825:27828   */\n      dup4\n        /* \"#utility.yul\":27766:27833   */\n      tag_293\n      jump\t// in\n    tag_618:\n        /* \"#utility.yul\":27759:27833   */\n      swap2\n      pop\n        /* \"#utility.yul\":27842:27935   */\n      tag_619\n        /* \"#utility.yul\":27931:27934   */\n      dup3\n        /* \"#utility.yul\":27842:27935   */\n      tag_367\n      jump\t// in\n    tag_619:\n        /* \"#utility.yul\":27960:27962   */\n      0x20\n        /* \"#utility.yul\":27955:27958   */\n      dup3\n        /* \"#utility.yul\":27951:27963   */\n      add\n        /* \"#utility.yul\":27944:27963   */\n      swap1\n      pop\n        /* \"#utility.yul\":27603:27969   */\n      swap2\n      swap1\n      pop\n      jump\t// out\n        /* \"#utility.yul\":27975:28394   */\n    tag_280:\n        /* \"#utility.yul\":28141:28145   */\n      0x00\n        /* \"#utility.yul\":28179:28181   */\n      0x20\n        /* \"#utility.yul\":28168:28177   */\n      dup3\n        /* \"#utility.yul\":28164:28182   */\n      add\n        /* \"#utility.yul\":28156:28182   */\n      swap1\n      pop\n        /* \"#utility.yul\":28228:28237   */\n      dup2\n        /* \"#utility.yul\":28222:28226   */\n      dup2\n        /* \"#utility.yul\":28218:28238   */\n      sub\n        /* \"#utility.yul\":28214:28215   */\n      0x00\n        /* \"#utility.yul\":28203:28212   */\n      dup4\n        /* \"#utility.yul\":28199:28216   */\n      add\n        /* \"#utility.yul\":28192:28239   */\n      mstore\n        /* \"#utility.yul\":28256:28387   */\n      tag_621\n        /* \"#utility.yul\":28382:28386   */\n      dup2\n        /* \"#utility.yul\":28256:28387   */\n      tag_368\n      jump\t// in\n    tag_621:\n        /* \"#utility.yul\":28248:28387   */\n      swap1\n      pop\n        /* \"#utility.yul\":27975:28394   */\n      swap2\n      swap1\n      pop\n      jump\t// out\n        /* \"#utility.yul\":28400:28499   */\n    tag_369:\n        /* \"#utility.yul\":28471:28492   */\n      tag_623\n        /* \"#utility.yul\":28486:28491   */\n      dup2\n        /* \"#utility.yul\":28471:28492   */\n      tag_328\n      jump\t// in\n    tag_623:\n        /* \"#utility.yul\":28466:28469   */\n      dup3\n        /* \"#utility.yul\":28459:28493   */\n      mstore\n        /* \"#utility.yul\":28400:28499   */\n      pop\n      pop\n      jump\t// out\n        /* \"#utility.yul\":28585:28929   */\n    tag_370:\n        /* \"#utility.yul\":28740:28744   */\n      0x20\n        /* \"#utility.yul\":28735:28738   */\n      dup3\n        /* \"#utility.yul\":28731:28745   */\n      add\n        /* \"#utility.yul\":28836:28840   */\n      0x00\n        /* \"#utility.yul\":28829:28834   */\n      dup3\n        /* \"#utility.yul\":28825:28841   */\n      add\n        /* \"#utility.yul\":28819:28842   */\n      mload\n        /* \"#utility.yul\":28855:28912   */\n      tag_625\n        /* \"#utility.yul\":28906:28910   */\n      0x00\n        /* \"#utility.yul\":28901:28904   */\n      dup6\n        /* \"#utility.yul\":28897:28911   */\n      add\n        /* \"#utility.yul\":28883:28895   */\n      dup3\n        /* \"#utility.yul\":28855:28912   */\n      tag_369\n      jump\t// in\n    tag_625:\n        /* \"#utility.yul\":28755:28922   */\n      pop\n        /* \"#utility.yul\":28709:28929   */\n      pop\n        /* \"#utility.yul\":28585:28929   */\n      pop\n      pop\n      jump\t// out\n        /* \"#utility.yul\":28935:29273   */\n    tag_283:\n        /* \"#utility.yul\":29086:29090   */\n      0x00\n        /* \"#utility.yul\":29124:29126   */\n      0x20\n        /* \"#utility.yul\":29113:29122   */\n      dup3\n        /* \"#utility.yul\":29109:29127   */\n      add\n        /* \"#utility.yul\":29101:29127   */\n      swap1\n      pop\n        /* \"#utility.yul\":29137:29266   */\n      tag_627\n        /* \"#utility.yul\":29263:29264   */\n      0x00\n        /* \"#utility.yul\":29252:29261   */\n      dup4\n        /* \"#utility.yul\":29248:29265   */\n      add\n        /* \"#utility.yul\":29239:29245   */\n      dup5\n        /* \"#utility.yul\":29137:29266   */\n      tag_370\n      jump\t// in\n    tag_627:\n        /* \"#utility.yul\":28935:29273   */\n      swap3\n      swap2\n      pop\n      pop\n      jump\t// out\n        /* \"#utility.yul\":29279:29452   */\n    tag_371:\n        /* \"#utility.yul\":29419:29444   */\n      0x43616e6e6f74207472616e7366657220746f2073656c66000000000000000000\n        /* \"#utility.yul\":29415:29416   */\n      0x00\n        /* \"#utility.yul\":29407:29413   */\n      dup3\n        /* \"#utility.yul\":29403:29417   */\n      add\n        /* \"#utility.yul\":29396:29445   */\n      mstore\n        /* \"#utility.yul\":29279:29452   */\n      pop\n      jump\t// out\n        /* \"#utility.yul\":29458:29824   */\n    tag_372:\n        /* \"#utility.yul\":29600:29603   */\n      0x00\n        /* \"#utility.yul\":29621:29688   */\n      tag_630\n        /* \"#utility.yul\":29685:29687   */\n      0x17\n        /* \"#utility.yul\":29680:29683   */\n      dup4\n        /* \"#utility.yul\":29621:29688   */\n      tag_293\n      jump\t// in\n    tag_630:\n        /* \"#utility.yul\":29614:29688   */\n      swap2\n      pop\n        /* \"#utility.yul\":29697:29790   */\n      tag_631\n        /* \"#utility.yul\":29786:29789   */\n      dup3\n        /* \"#utility.yul\":29697:29790   */\n      tag_371\n      jump\t// in\n    tag_631:\n        /* \"#utility.yul\":29815:29817   */\n      0x20\n        /* \"#utility.yul\":29810:29813   */\n      dup3\n        /* \"#utility.yul\":29806:29818   */\n      add\n        /* \"#utility.yul\":29799:29818   */\n      swap1\n      pop\n        /* \"#utility.yul\":29458:29824   */\n      swap2\n      swap1\n      pop\n      jump\t// out\n        /* \"#utility.yul\":29830:30249   */\n    tag_287:\n        /* \"#utility.yul\":29996:30000   */\n      0x00\n        /* \"#utility.yul\":30034:30036   */\n      0x20\n        /* \"#utility.yul\":30023:30032   */\n      dup3\n        /* \"#utility.yul\":30019:30037   */\n      add\n        /* \"#utility.yul\":30011:30037   */\n      swap1\n      pop\n        /* \"#utility.yul\":30083:30092   */\n      dup2\n        /* \"#utility.yul\":30077:30081   */\n      dup2\n        /* \"#utility.yul\":30073:30093   */\n      sub\n        /* \"#utility.yul\":30069:30070   */\n      0x00\n        /* \"#utility.yul\":30058:30067   */\n      dup4\n        /* \"#utility.yul\":30054:30071   */\n      add\n        /* \"#utility.yul\":30047:30094   */\n      mstore\n        /* \"#utility.yul\":30111:30242   */\n      tag_633\n        /* \"#utility.yul\":30237:30241   */\n      dup2\n        /* \"#utility.yul\":30111:30242   */\n      tag_372\n      jump\t// in\n    tag_633:\n        /* \"#utility.yul\":30103:30242   */\n      swap1\n      pop\n        /* \"#utility.yul\":29830:30249   */\n      swap2\n      swap1\n      pop\n      jump\t// out\n        /* \"#utility.yul\":30255:30436   */\n    tag_373:\n        /* \"#utility.yul\":30395:30428   */\n      0x5265656e7472616e637947756172643a207265656e7472616e742063616c6c00\n        /* \"#utility.yul\":30391:30392   */\n      0x00\n        /* \"#utility.yul\":30383:30389   */\n      dup3\n        /* \"#utility.yul\":30379:30393   */\n      add\n        /* \"#utility.yul\":30372:30429   */\n      mstore\n        /* \"#utility.yul\":30255:30436   */\n      pop\n      jump\t// out\n        /* \"#utility.yul\":30442:30808   */\n    tag_374:\n        /* \"#utility.yul\":30584:30587   */\n      0x00\n        /* \"#utility.yul\":30605:30672   */\n      tag_636\n        /* \"#utility.yul\":30669:30671   */\n      0x1f\n        /* \"#utility.yul\":30664:30667   */\n      dup4\n        /* \"#utility.yul\":30605:30672   */\n      tag_293\n      jump\t// in\n    tag_636:\n        /* \"#utility.yul\":30598:30672   */\n      swap2\n      pop\n        /* \"#utility.yul\":30681:30774   */\n      tag_637\n        /* \"#utility.yul\":30770:30773   */\n      dup3\n        /* \"#utility.yul\":30681:30774   */\n      tag_373\n      jump\t// in\n    tag_637:\n        /* \"#utility.yul\":30799:30801   */\n      0x20\n        /* \"#utility.yul\":30794:30797   */\n      dup3\n        /* \"#utility.yul\":30790:30802   */\n      add\n        /* \"#utility.yul\":30783:30802   */\n      swap1\n      pop\n        /* \"#utility.yul\":30442:30808   */\n      swap2\n      swap1\n      pop\n      jump\t// out\n        /* \"#utility.yul\":30814:31233   */\n    tag_291:\n        /* \"#utility.yul\":30980:30984   */\n      0x00\n        /* \"#utility.yul\":31018:31020   */\n      0x20\n        /* \"#utility.yul\":31007:31016   */\n      dup3\n        /* \"#utility.yul\":31003:31021   */\n      add\n        /* \"#utility.yul\":30995:31021   */\n      swap1\n      pop\n        /* \"#utility.yul\":31067:31076   */\n      dup2\n        /* \"#utility.yul\":31061:31065   */\n      dup2\n        /* \"#utility.yul\":31057:31077   */\n      sub\n        /* \"#utility.yul\":31053:31054   */\n      0x00\n        /* \"#utility.yul\":31042:31051   */\n      dup4\n        /* \"#utility.yul\":31038:31055   */\n      add\n        /* \"#utility.yul\":31031:31078   */\n      mstore\n        /* \"#utility.yul\":31095:31226   */\n      tag_639\n        /* \"#utility.yul\":31221:31225   */\n      dup2\n        /* \"#utility.yul\":31095:31226   */\n      tag_374\n      jump\t// in\n    tag_639:\n        /* \"#utility.yul\":31087:31226   */\n      swap1\n      pop\n        /* \"#utility.yul\":30814:31233   */\n      swap2\n      swap1\n      pop\n      jump\t// out\n\n    auxdata: 0xa26469706673582212204b0960764a6a41c5d344a179cf87a50d5f766503a454de291d99c68e499b5a5464736f6c634300081a0033\n}\n",
				"bytecode": {
					"linkReferences": {},
					"object": "6080604052620151806007556207a12060135f6101000a81548163ffffffff021916908363ffffffff1602179055506003601360046101000a81548161ffff021916908361ffff1602179055506001601360066101000a81548163ffffffff021916908363ffffffff160217905550348015610079575f80fd5b50604051612cb0380380612cb0833981810160405281019061009b91906104b6565b8233805f8073ffffffffffffffffffffffffffffffffffffffff168273ffffffffffffffffffffffffffffffffffffffff160361010d576040517f08c379a000000000000000000000000000000000000000000000000000000000815260040161010490610599565b60405180910390fd5b815f806101000a81548173ffffffffffffffffffffffffffffffffffffffff021916908373ffffffffffffffffffffffffffffffffffffffff1602179055505f73ffffffffffffffffffffffffffffffffffffffff168173ffffffffffffffffffffffffffffffffffffffff161461018f5761018e816102c860201b60201c565b5b5050505f73ffffffffffffffffffffffffffffffffffffffff168173ffffffffffffffffffffffffffffffffffffffff16036101f7576040517fd92e233d00000000000000000000000000000000000000000000000000000000815260040160405180910390fd5b8060025f6101000a81548173ffffffffffffffffffffffffffffffffffffffff021916908373ffffffffffffffffffffffffffffffffffffffff160217905550506001600381905550826013600a6101000a81548173ffffffffffffffffffffffffffffffffffffffff021916908373ffffffffffffffffffffffffffffffffffffffff16021790555085600481905550846005819055508360098190555080600f81905550816012819055505f600a5f6101000a81548160ff02191690831515021790555050505050505061061f565b3373ffffffffffffffffffffffffffffffffffffffff168173ffffffffffffffffffffffffffffffffffffffff1603610336576040517f08c379a000000000000000000000000000000000000000000000000000000000815260040161032d90610601565b60405180910390fd5b8060015f6101000a81548173ffffffffffffffffffffffffffffffffffffffff021916908373ffffffffffffffffffffffffffffffffffffffff1602179055508073ffffffffffffffffffffffffffffffffffffffff165f8054906101000a900473ffffffffffffffffffffffffffffffffffffffff1673ffffffffffffffffffffffffffffffffffffffff167fed8889f560326eb138920d842192f0eb3dd22b4f139c87a2c57538e05bae127860405160405180910390a350565b5f80fd5b5f819050919050565b610408816103f6565b8114610412575f80fd5b50565b5f81519050610423816103ff565b92915050565b5f73ffffffffffffffffffffffffffffffffffffffff82169050919050565b5f61045282610429565b9050919050565b61046281610448565b811461046c575f80fd5b50565b5f8151905061047d81610459565b92915050565b5f819050919050565b61049581610483565b811461049f575f80fd5b50565b5f815190506104b08161048c565b92915050565b5f805f805f8060c087890312156104d0576104cf6103f2565b5b5f6104dd89828a01610415565b96505060206104ee89828a01610415565b95505060406104ff89828a01610415565b945050606061051089828a0161046f565b935050608061052189828a016104a2565b92505060a061053289828a01610415565b9150509295509295509295565b5f82825260208201905092915050565b7f43616e6e6f7420736574206f776e657220746f207a65726f00000000000000005f82015250565b5f61058360188361053f565b915061058e8261054f565b602082019050919050565b5f6020820190508181035f8301526105b081610577565b9050919050565b7f43616e6e6f74207472616e7366657220746f2073656c660000000000000000005f82015250565b5f6105eb60178361053f565b91506105f6826105b7565b602082019050919050565b5f6020820190508181035f830152610618816105df565b9050919050565b6126848061062c5f395ff3fe608060405260043610610184575f3560e01c80638da5cb5b116100d0578063d6c89c6011610089578063f2fde38b11610063578063f2fde38b14610860578063f3fef3a314610888578063fc7e286d146108b0578063ff50abdc146108ec5761047a565b8063d6c89c60146107be578063e4b2fb79146107e8578063f2c16e6f146108245761047a565b80638da5cb5b146106c65780638ea98117146106f05780639eccacf614610718578063a36298c714610742578063b0fb162f1461076c578063b1eb96c9146107965761047a565b806342619f661161013d57806379ba50971161011757806379ba5097146106325780637ccfd7fc146106485780638246a16e1461067257806389ce16cc1461069c5761047a565b806342619f66146105b457806361728f39146105de57806369ac5721146106085761047a565b806309c1ba2e146104b55780631fe543e3146104df57806324f7469714610507578063261a9ac91461053157806334a014dc1461055b5780633e23b145146105855761047a565b3661047a575f34116101cb576040517f08c379a00000000000000000000000000000000000000000000000000000000081526004016101c290611873565b60405180910390fd5b60165f3373ffffffffffffffffffffffffffffffffffffffff1673ffffffffffffffffffffffffffffffffffffffff1681526020019081526020015f205f9054906101000a900460ff1615610316575f3373ffffffffffffffffffffffffffffffffffffffff163460405161023f906118be565b5f6040518083038185875af1925050503d805f8114610279576040519150601f19603f3d011682016040523d82523d5f602084013e61027e565b606091505b50509050806102c2576040517f08c379a00000000000000000000000000000000000000000000000000000000081526004016102b99061191c565b60405180910390fd5b3373ffffffffffffffffffffffffffffffffffffffff167fbb28353e4598c3b9199101a66e0989549b659a59a54d2c27fbb183f1932c8e6d346040516103089190611952565b60405180910390a250610478565b600454341461041b575f3373ffffffffffffffffffffffffffffffffffffffff1634604051610344906118be565b5f6040518083038185875af1925050503d805f811461037e576040519150601f19603f3d011682016040523d82523d5f602084013e610383565b606091505b50509050806103c7576040517f08c379a00000000000000000000000000000000000000000000000000000000081526004016103be9061191c565b60405180910390fd5b3373ffffffffffffffffffffffffffffffffffffffff167fbb28353e4598c3b9199101a66e0989549b659a59a54d2c27fbb183f1932c8e6d3460405161040d9190611952565b60405180910390a250610478565b6005543460065461042c9190611998565b111561046d576040517f08c379a000000000000000000000000000000000000000000000000000000000815260040161046490611a3b565b60405180910390fd5b6104773334610916565b5b005b6040517f08c379a00000000000000000000000000000000000000000000000000000000081526004016104ac90611aa3565b60405180910390fd5b3480156104c0575f80fd5b506104c9610acd565b6040516104d69190611952565b60405180910390f35b3480156104ea575f80fd5b5061050560048036038101906105009190611b54565b610ad3565b005b348015610512575f80fd5b5061051b610b97565b6040516105289190611bcf565b60405180910390f35b34801561053c575f80fd5b50610545610bac565b6040516105529190611952565b60405180910390f35b348015610566575f80fd5b5061056f610bb2565b60405161057c9190611952565b60405180910390f35b348015610590575f80fd5b50610599610bb8565b6040516105ab96959493929190611c8c565b60405180910390f35b3480156105bf575f80fd5b506105c8610c94565b6040516105d59190611952565b60405180910390f35b3480156105e9575f80fd5b506105f2610c9a565b6040516105ff9190611cf2565b60405180910390f35b348015610613575f80fd5b5061061c610ca0565b6040516106299190611952565b60405180910390f35b34801561063d575f80fd5b50610646610ca6565b005b348015610653575f80fd5b5061065c610e35565b6040516106699190611bcf565b60405180910390f35b34801561067d575f80fd5b50610686610e4b565b6040516106939190611d25565b60405180910390f35b3480156106a7575f80fd5b506106b0610e5d565b6040516106bd9190611952565b60405180910390f35b3480156106d1575f80fd5b506106da610e63565b6040516106e79190611d7d565b60405180910390f35b3480156106fb575f80fd5b5061071660048036038101906107119190611dc0565b610e8a565b005b348015610723575f80fd5b5061072c611067565b6040516107399190611e46565b60405180910390f35b34801561074d575f80fd5b5061075661108c565b6040516107639190611952565b60405180910390f35b348015610777575f80fd5b50610780611092565b60405161078d9190611e5f565b60405180910390f35b3480156107a1575f80fd5b506107bc60048036038101906107b79190611e78565b6110a6565b005b3480156107c9575f80fd5b506107d26112c9565b6040516107df9190611952565b60405180910390f35b3480156107f3575f80fd5b5061080e60048036038101906108099190611e78565b6112cf565b60405161081b9190611d7d565b60405180910390f35b34801561082f575f80fd5b5061084a60048036038101906108459190611dc0565b61130a565b6040516108579190611d25565b60405180910390f35b34801561086b575f80fd5b5061088660048036038101906108819190611dc0565b611327565b005b348015610893575f80fd5b506108ae60048036038101906108a99190611ede565b61133b565b005b3480156108bb575f80fd5b506108d660048036038101906108d19190611dc0565b6114dd565b6040516108e39190611952565b60405180910390f35b3480156108f7575f80fd5b506109006114f2565b60405161090d9190611952565b60405180910390f35b5f60145f8473ffffffffffffffffffffffffffffffffffffffff1673ffffffffffffffffffffffffffffffffffffffff1681526020019081526020015f2054036109bb57601582908060018154018082558091505060019003905f5260205f20015f9091909190916101000a81548173ffffffffffffffffffffffffffffffffffffffff021916908373ffffffffffffffffffffffffffffffffffffffff1602179055505b600160165f8473ffffffffffffffffffffffffffffffffffffffff1673ffffffffffffffffffffffffffffffffffffffff1681526020019081526020015f205f6101000a81548160ff0219169083151502179055508060145f8473ffffffffffffffffffffffffffffffffffffffff1673ffffffffffffffffffffffffffffffffffffffff1681526020019081526020015f205f828254610a5c9190611998565b925050819055508060065f828254610a749190611998565b925050819055508173ffffffffffffffffffffffffffffffffffffffff167fe1fffcc4923d04b559f4d29a8bfc6cda04eb5b0d3c460751c2402c5c5cc9109c82604051610ac19190611952565b60405180910390a25050565b600f5481565b60025f9054906101000a900473ffffffffffffffffffffffffffffffffffffffff1673ffffffffffffffffffffffffffffffffffffffff163373ffffffffffffffffffffffffffffffffffffffff1614610b87573360025f9054906101000a900473ffffffffffffffffffffffffffffffffffffffff166040517f1cf993f4000000000000000000000000000000000000000000000000000000008152600401610b7e929190611f1c565b60405180910390fd5b610b928383836114f8565b505050565b60135f9054906101000a900463ffffffff1681565b60045481565b60085481565b600b805f015490806001015490806002015f9054906101000a900461ffff16908060020160029054906101000a900463ffffffff16908060020160069054906101000a900463ffffffff1690806003018054610c1390611f70565b80601f0160208091040260200160405190810160405280929190818152602001828054610c3f90611f70565b8015610c8a5780601f10610c6157610100808354040283529160200191610c8a565b820191905f5260205f20905b815481529060010190602001808311610c6d57829003601f168201915b5050505050905086565b60105481565b60125481565b60095481565b60015f9054906101000a900473ffffffffffffffffffffffffffffffffffffffff1673ffffffffffffffffffffffffffffffffffffffff163373ffffffffffffffffffffffffffffffffffffffff1614610d35576040517f08c379a0000000000000000000000000000000000000000000000000000000008152600401610d2c90611fea565b60405180910390fd5b5f805f9054906101000a900473ffffffffffffffffffffffffffffffffffffffff169050335f806101000a81548173ffffffffffffffffffffffffffffffffffffffff021916908373ffffffffffffffffffffffffffffffffffffffff1602179055505f60015f6101000a81548173ffffffffffffffffffffffffffffffffffffffff021916908373ffffffffffffffffffffffffffffffffffffffff1602179055503373ffffffffffffffffffffffffffffffffffffffff168173ffffffffffffffffffffffffffffffffffffffff167f8be0079c531659141344cd1fd0a4f28419497f9722a3daafe3b4186f6b6457e060405160405180910390a350565b601360069054906101000a900463ffffffff1681565b600a5f9054906101000a900460ff1681565b60115481565b5f805f9054906101000a900473ffffffffffffffffffffffffffffffffffffffff16905090565b610e92610e63565b73ffffffffffffffffffffffffffffffffffffffff163373ffffffffffffffffffffffffffffffffffffffff1614158015610f1a575060025f9054906101000a900473ffffffffffffffffffffffffffffffffffffffff1673ffffffffffffffffffffffffffffffffffffffff163373ffffffffffffffffffffffffffffffffffffffff1614155b15610f885733610f28610e63565b60025f9054906101000a900473ffffffffffffffffffffffffffffffffffffffff166040517f061db9c1000000000000000000000000000000000000000000000000000000008152600401610f7f93929190612008565b60405180910390fd5b5f73ffffffffffffffffffffffffffffffffffffffff168173ffffffffffffffffffffffffffffffffffffffff1603610fed576040517fd92e233d00000000000000000000000000000000000000000000000000000000815260040160405180910390fd5b8060025f6101000a81548173ffffffffffffffffffffffffffffffffffffffff021916908373ffffffffffffffffffffffffffffffffffffffff1602179055507fd1a6a14209a385a964d036e404cb5cfb71f4000cdb03c9366292430787261be68160405161105c9190611d7d565b60405180910390a150565b60025f9054906101000a900473ffffffffffffffffffffffffffffffffffffffff1681565b60055481565b601360049054906101000a900461ffff1681565b6110ae61156f565b600a5f9054906101000a900460ff16156110fd576040517f08c379a00000000000000000000000000000000000000000000000000000000081526004016110f490612087565b60405180910390fd5b5f811161113f576040517f08c379a0000000000000000000000000000000000000000000000000000000008152600401611136906120ef565b60405180910390fd5b806011819055505f6040518060c001604052806012548152602001600f548152602001601360049054906101000a900461ffff1661ffff16815260200160135f9054906101000a900463ffffffff1663ffffffff168152602001601360069054906101000a900463ffffffff1663ffffffff1681526020016111d060405180602001604052805f15158152506115fe565b81525090505f6013600a9054906101000a900473ffffffffffffffffffffffffffffffffffffffff1673ffffffffffffffffffffffffffffffffffffffff16639b1c385e836040518263ffffffff1660e01b81526004016112319190612217565b6020604051808303815f875af115801561124d573d5f803e3d5ffd5b505050506040513d601f19601f82011682018060405250810190611271919061224b565b90506001600a5f6101000a81548160ff0219169083151502179055507f5a82a565b8cc97bc62f2041e057e918f6b3b7b4185104d7d4a52ed5c711e7232816040516112bc9190611952565b60405180910390a1505050565b60075481565b601581815481106112de575f80fd5b905f5260205f20015f915054906101000a900473ffffffffffffffffffffffffffffffffffffffff1681565b6016602052805f5260405f205f915054906101000a900460ff1681565b61132f61156f565b61133881611696565b50565b61134361156f565b61134b6117c0565b600954421015611390576040517f08c379a0000000000000000000000000000000000000000000000000000000008152600401611387906122e6565b60405180910390fd5b478111156113d3576040517f08c379a00000000000000000000000000000000000000000000000000000000081526004016113ca9061234e565b60405180910390fd5b426008819055505f8273ffffffffffffffffffffffffffffffffffffffff16826040516113ff906118be565b5f6040518083038185875af1925050503d805f8114611439576040519150601f19603f3d011682016040523d82523d5f602084013e61143e565b606091505b5050905080611482576040517f08c379a0000000000000000000000000000000000000000000000000000000008152600401611479906123b6565b60405180910390fd5b8273ffffffffffffffffffffffffffffffffffffffff167fecb269d89bfded20a4f5e6e51b509df1e3309a995946c9be8d6a8e2ddfa6b89c836040516114c8919061241e565b60405180910390a2506114d961180f565b5050565b6014602052805f5260405f205f915090505481565b60065481565b600160115483835f8181106115105761150f61244a565b5b9050602002013561152191906124a4565b61152b9190611998565b6010819055507facb85192b17e57cdd6ffdc2af021cc70c3a2269771b37b82dd36695fec903af56010546040516115629190611952565b60405180910390a1505050565b5f8054906101000a900473ffffffffffffffffffffffffffffffffffffffff1673ffffffffffffffffffffffffffffffffffffffff163373ffffffffffffffffffffffffffffffffffffffff16146115fc576040517f08c379a00000000000000000000000000000000000000000000000000000000081526004016115f39061251e565b60405180910390fd5b565b60607f92fd13387c7fe7befbc38d303d6468778fb9731bc4583f17d92989c6fcfdeaaa826040516024016116329190612565565b604051602081830303815290604052907bffffffffffffffffffffffffffffffffffffffffffffffffffffffff19166020820180517bffffffffffffffffffffffffffffffffffffffffffffffffffffffff83818316178352505050509050919050565b3373ffffffffffffffffffffffffffffffffffffffff168173ffffffffffffffffffffffffffffffffffffffff1603611704576040517f08c379a00000000000000000000000000000000000000000000000000000000081526004016116fb906125c8565b60405180910390fd5b8060015f6101000a81548173ffffffffffffffffffffffffffffffffffffffff021916908373ffffffffffffffffffffffffffffffffffffffff1602179055508073ffffffffffffffffffffffffffffffffffffffff165f8054906101000a900473ffffffffffffffffffffffffffffffffffffffff1673ffffffffffffffffffffffffffffffffffffffff167fed8889f560326eb138920d842192f0eb3dd22b4f139c87a2c57538e05bae127860405160405180910390a350565b600260035403611805576040517f08c379a00000000000000000000000000000000000000000000000000000000081526004016117fc90612630565b60405180910390fd5b6002600381905550565b6001600381905550565b5f82825260208201905092915050565b7f4f2076616c6f72206465766520736572206d61696f7220717565207a65726f005f82015250565b5f61185d601f83611819565b915061186882611829565b602082019050919050565b5f6020820190508181035f83015261188a81611851565b9050919050565b5f81905092915050565b50565b5f6118a95f83611891565b91506118b48261189b565b5f82019050919050565b5f6118c88261189e565b9150819050919050565b7f5265656d626f6c736f2066616c686f75000000000000000000000000000000005f82015250565b5f611906601083611819565b9150611911826118d2565b602082019050919050565b5f6020820190508181035f830152611933816118fa565b9050919050565b5f819050919050565b61194c8161193a565b82525050565b5f6020820190506119655f830184611943565b92915050565b7f4e487b71000000000000000000000000000000000000000000000000000000005f52601160045260245ffd5b5f6119a28261193a565b91506119ad8361193a565b92508282019050808211156119c5576119c461196b565b5b92915050565b7f4c696d69746520746f74616c206465206465706f7369746f206174696e6769645f8201527f6f00000000000000000000000000000000000000000000000000000000000000602082015250565b5f611a25602183611819565b9150611a30826119cb565b604082019050919050565b5f6020820190508181035f830152611a5281611a19565b9050919050565b7f4170656e61732045544820652061636569746f000000000000000000000000005f82015250565b5f611a8d601383611819565b9150611a9882611a59565b602082019050919050565b5f6020820190508181035f830152611aba81611a81565b9050919050565b5f80fd5b5f80fd5b611ad28161193a565b8114611adc575f80fd5b50565b5f81359050611aed81611ac9565b92915050565b5f80fd5b5f80fd5b5f80fd5b5f8083601f840112611b1457611b13611af3565b5b8235905067ffffffffffffffff811115611b3157611b30611af7565b5b602083019150836020820283011115611b4d57611b4c611afb565b5b9250929050565b5f805f60408486031215611b6b57611b6a611ac1565b5b5f611b7886828701611adf565b935050602084013567ffffffffffffffff811115611b9957611b98611ac5565b5b611ba586828701611aff565b92509250509250925092565b5f63ffffffff82169050919050565b611bc981611bb1565b82525050565b5f602082019050611be25f830184611bc0565b92915050565b5f819050919050565b611bfa81611be8565b82525050565b5f61ffff82169050919050565b611c1681611c00565b82525050565b5f81519050919050565b5f82825260208201905092915050565b8281835e5f83830152505050565b5f601f19601f8301169050919050565b5f611c5e82611c1c565b611c688185611c26565b9350611c78818560208601611c36565b611c8181611c44565b840191505092915050565b5f60c082019050611c9f5f830189611bf1565b611cac6020830188611943565b611cb96040830187611c0d565b611cc66060830186611bc0565b611cd36080830185611bc0565b81810360a0830152611ce58184611c54565b9050979650505050505050565b5f602082019050611d055f830184611bf1565b92915050565b5f8115159050919050565b611d1f81611d0b565b82525050565b5f602082019050611d385f830184611d16565b92915050565b5f73ffffffffffffffffffffffffffffffffffffffff82169050919050565b5f611d6782611d3e565b9050919050565b611d7781611d5d565b82525050565b5f602082019050611d905f830184611d6e565b92915050565b611d9f81611d5d565b8114611da9575f80fd5b50565b5f81359050611dba81611d96565b92915050565b5f60208284031215611dd557611dd4611ac1565b5b5f611de284828501611dac565b91505092915050565b5f819050919050565b5f611e0e611e09611e0484611d3e565b611deb565b611d3e565b9050919050565b5f611e1f82611df4565b9050919050565b5f611e3082611e15565b9050919050565b611e4081611e26565b82525050565b5f602082019050611e595f830184611e37565b92915050565b5f602082019050611e725f830184611c0d565b92915050565b5f60208284031215611e8d57611e8c611ac1565b5b5f611e9a84828501611adf565b91505092915050565b5f611ead82611d3e565b9050919050565b611ebd81611ea3565b8114611ec7575f80fd5b50565b5f81359050611ed881611eb4565b92915050565b5f8060408385031215611ef457611ef3611ac1565b5b5f611f0185828601611eca565b9250506020611f1285828601611adf565b9150509250929050565b5f604082019050611f2f5f830185611d6e565b611f3c6020830184611d6e565b9392505050565b7f4e487b71000000000000000000000000000000000000000000000000000000005f52602260045260245ffd5b5f6002820490506001821680611f8757607f821691505b602082108103611f9a57611f99611f43565b5b50919050565b7f4d7573742062652070726f706f736564206f776e6572000000000000000000005f82015250565b5f611fd4601683611819565b9150611fdf82611fa0565b602082019050919050565b5f6020820190508181035f83015261200181611fc8565b9050919050565b5f60608201905061201b5f830186611d6e565b6120286020830185611d6e565b6120356040830184611d6e565b949350505050565b7f52616e646f6d206e756d62657220616c72656164792067656e657261746564005f82015250565b5f612071601f83611819565b915061207c8261203d565b602082019050919050565b5f6020820190508181035f83015261209e81612065565b9050919050565b7f4d61782072616e6765206d7573742062652067726561746572207468616e20305f82015250565b5f6120d9602083611819565b91506120e4826120a5565b602082019050919050565b5f6020820190508181035f830152612106816120cd565b9050919050565b61211681611be8565b82525050565b6121258161193a565b82525050565b61213481611c00565b82525050565b61214381611bb1565b82525050565b5f82825260208201905092915050565b5f61216382611c1c565b61216d8185612149565b935061217d818560208601611c36565b61218681611c44565b840191505092915050565b5f60c083015f8301516121a65f86018261210d565b5060208301516121b9602086018261211c565b5060408301516121cc604086018261212b565b5060608301516121df606086018261213a565b5060808301516121f2608086018261213a565b5060a083015184820360a086015261220a8282612159565b9150508091505092915050565b5f6020820190508181035f83015261222f8184612191565b905092915050565b5f8151905061224581611ac9565b92915050565b5f602082840312156122605761225f611ac1565b5b5f61226d84828501612237565b91505092915050565b7f6163616f206e616f207065726d697469646120616e74657320646120646174615f8201527f20646520646573626c6f717565696f0000000000000000000000000000000000602082015250565b5f6122d0602f83611819565b91506122db82612276565b604082019050919050565b5f6020820190508181035f8301526122fd816122c4565b9050919050565b7f53616c646f20696e737566696369656e746500000000000000000000000000005f82015250565b5f612338601283611819565b915061234382612304565b602082019050919050565b5f6020820190508181035f8301526123658161232c565b9050919050565b7f46616c6861206e612072657469726164610000000000000000000000000000005f82015250565b5f6123a0601183611819565b91506123ab8261236c565b602082019050919050565b5f6020820190508181035f8301526123cd81612394565b9050919050565b7f45746865720000000000000000000000000000000000000000000000000000005f82015250565b5f612408600583611819565b9150612413826123d4565b602082019050919050565b5f6040820190506124315f830184611943565b8181036020830152612442816123fc565b905092915050565b7f4e487b71000000000000000000000000000000000000000000000000000000005f52603260045260245ffd5b7f4e487b71000000000000000000000000000000000000000000000000000000005f52601260045260245ffd5b5f6124ae8261193a565b91506124b98361193a565b9250826124c9576124c8612477565b5b828206905092915050565b7f4f6e6c792063616c6c61626c65206279206f776e6572000000000000000000005f82015250565b5f612508601683611819565b9150612513826124d4565b602082019050919050565b5f6020820190508181035f830152612535816124fc565b9050919050565b61254581611d0b565b82525050565b602082015f82015161255f5f85018261253c565b50505050565b5f6020820190506125785f83018461254b565b92915050565b7f43616e6e6f74207472616e7366657220746f2073656c660000000000000000005f82015250565b5f6125b2601783611819565b91506125bd8261257e565b602082019050919050565b5f6020820190508181035f8301526125df816125a6565b9050919050565b7f5265656e7472616e637947756172643a207265656e7472616e742063616c6c005f82015250565b5f61261a601f83611819565b9150612625826125e6565b602082019050919050565b5f6020820190508181035f8301526126478161260e565b905091905056fea26469706673582212204b0960764a6a41c5d344a179cf87a50d5f766503a454de291d99c68e499b5a5464736f6c634300081a0033",
					"opcodes": "PUSH1 0x80 PUSH1 0x40 MSTORE PUSH3 0x15180 PUSH1 0x7 SSTORE PUSH3 0x7A120 PUSH1 0x13 PUSH0 PUSH2 0x100 EXP DUP2 SLOAD DUP2 PUSH4 0xFFFFFFFF MUL NOT AND SWAP1 DUP4 PUSH4 0xFFFFFFFF AND MUL OR SWAP1 SSTORE POP PUSH1 0x3 PUSH1 0x13 PUSH1 0x4 PUSH2 0x100 EXP DUP2 SLOAD DUP2 PUSH2 0xFFFF MUL NOT AND SWAP1 DUP4 PUSH2 0xFFFF AND MUL OR SWAP1 SSTORE POP PUSH1 0x1 PUSH1 0x13 PUSH1 0x6 PUSH2 0x100 EXP DUP2 SLOAD DUP2 PUSH4 0xFFFFFFFF MUL NOT AND SWAP1 DUP4 PUSH4 0xFFFFFFFF AND MUL OR SWAP1 SSTORE POP CALLVALUE DUP1 ISZERO PUSH2 0x79 JUMPI PUSH0 DUP1 REVERT JUMPDEST POP PUSH1 0x40 MLOAD PUSH2 0x2CB0 CODESIZE SUB DUP1 PUSH2 0x2CB0 DUP4 CODECOPY DUP2 DUP2 ADD PUSH1 0x40 MSTORE DUP2 ADD SWAP1 PUSH2 0x9B SWAP2 SWAP1 PUSH2 0x4B6 JUMP JUMPDEST DUP3 CALLER DUP1 PUSH0 DUP1 PUSH20 0xFFFFFFFFFFFFFFFFFFFFFFFFFFFFFFFFFFFFFFFF AND DUP3 PUSH20 0xFFFFFFFFFFFFFFFFFFFFFFFFFFFFFFFFFFFFFFFF AND SUB PUSH2 0x10D JUMPI PUSH1 0x40 MLOAD PUSH32 0x8C379A000000000000000000000000000000000000000000000000000000000 DUP2 MSTORE PUSH1 0x4 ADD PUSH2 0x104 SWAP1 PUSH2 0x599 JUMP JUMPDEST PUSH1 0x40 MLOAD DUP1 SWAP2 SUB SWAP1 REVERT JUMPDEST DUP2 PUSH0 DUP1 PUSH2 0x100 EXP DUP2 SLOAD DUP2 PUSH20 0xFFFFFFFFFFFFFFFFFFFFFFFFFFFFFFFFFFFFFFFF MUL NOT AND SWAP1 DUP4 PUSH20 0xFFFFFFFFFFFFFFFFFFFFFFFFFFFFFFFFFFFFFFFF AND MUL OR SWAP1 SSTORE POP PUSH0 PUSH20 0xFFFFFFFFFFFFFFFFFFFFFFFFFFFFFFFFFFFFFFFF AND DUP2 PUSH20 0xFFFFFFFFFFFFFFFFFFFFFFFFFFFFFFFFFFFFFFFF AND EQ PUSH2 0x18F JUMPI PUSH2 0x18E DUP2 PUSH2 0x2C8 PUSH1 0x20 SHL PUSH1 0x20 SHR JUMP JUMPDEST JUMPDEST POP POP POP PUSH0 PUSH20 0xFFFFFFFFFFFFFFFFFFFFFFFFFFFFFFFFFFFFFFFF AND DUP2 PUSH20 0xFFFFFFFFFFFFFFFFFFFFFFFFFFFFFFFFFFFFFFFF AND SUB PUSH2 0x1F7 JUMPI PUSH1 0x40 MLOAD PUSH32 0xD92E233D00000000000000000000000000000000000000000000000000000000 DUP2 MSTORE PUSH1 0x4 ADD PUSH1 0x40 MLOAD DUP1 SWAP2 SUB SWAP1 REVERT JUMPDEST DUP1 PUSH1 0x2 PUSH0 PUSH2 0x100 EXP DUP2 SLOAD DUP2 PUSH20 0xFFFFFFFFFFFFFFFFFFFFFFFFFFFFFFFFFFFFFFFF MUL NOT AND SWAP1 DUP4 PUSH20 0xFFFFFFFFFFFFFFFFFFFFFFFFFFFFFFFFFFFFFFFF AND MUL OR SWAP1 SSTORE POP POP PUSH1 0x1 PUSH1 0x3 DUP2 SWAP1 SSTORE POP DUP3 PUSH1 0x13 PUSH1 0xA PUSH2 0x100 EXP DUP2 SLOAD DUP2 PUSH20 0xFFFFFFFFFFFFFFFFFFFFFFFFFFFFFFFFFFFFFFFF MUL NOT AND SWAP1 DUP4 PUSH20 0xFFFFFFFFFFFFFFFFFFFFFFFFFFFFFFFFFFFFFFFF AND MUL OR SWAP1 SSTORE POP DUP6 PUSH1 0x4 DUP2 SWAP1 SSTORE POP DUP5 PUSH1 0x5 DUP2 SWAP1 SSTORE POP DUP4 PUSH1 0x9 DUP2 SWAP1 SSTORE POP DUP1 PUSH1 0xF DUP2 SWAP1 SSTORE POP DUP2 PUSH1 0x12 DUP2 SWAP1 SSTORE POP PUSH0 PUSH1 0xA PUSH0 PUSH2 0x100 EXP DUP2 SLOAD DUP2 PUSH1 0xFF MUL NOT AND SWAP1 DUP4 ISZERO ISZERO MUL OR SWAP1 SSTORE POP POP POP POP POP POP POP PUSH2 0x61F JUMP JUMPDEST CALLER PUSH20 0xFFFFFFFFFFFFFFFFFFFFFFFFFFFFFFFFFFFFFFFF AND DUP2 PUSH20 0xFFFFFFFFFFFFFFFFFFFFFFFFFFFFFFFFFFFFFFFF AND SUB PUSH2 0x336 JUMPI PUSH1 0x40 MLOAD PUSH32 0x8C379A000000000000000000000000000000000000000000000000000000000 DUP2 MSTORE PUSH1 0x4 ADD PUSH2 0x32D SWAP1 PUSH2 0x601 JUMP JUMPDEST PUSH1 0x40 MLOAD DUP1 SWAP2 SUB SWAP1 REVERT JUMPDEST DUP1 PUSH1 0x1 PUSH0 PUSH2 0x100 EXP DUP2 SLOAD DUP2 PUSH20 0xFFFFFFFFFFFFFFFFFFFFFFFFFFFFFFFFFFFFFFFF MUL NOT AND SWAP1 DUP4 PUSH20 0xFFFFFFFFFFFFFFFFFFFFFFFFFFFFFFFFFFFFFFFF AND MUL OR SWAP1 SSTORE POP DUP1 PUSH20 0xFFFFFFFFFFFFFFFFFFFFFFFFFFFFFFFFFFFFFFFF AND PUSH0 DUP1 SLOAD SWAP1 PUSH2 0x100 EXP SWAP1 DIV PUSH20 0xFFFFFFFFFFFFFFFFFFFFFFFFFFFFFFFFFFFFFFFF AND PUSH20 0xFFFFFFFFFFFFFFFFFFFFFFFFFFFFFFFFFFFFFFFF AND PUSH32 0xED8889F560326EB138920D842192F0EB3DD22B4F139C87A2C57538E05BAE1278 PUSH1 0x40 MLOAD PUSH1 0x40 MLOAD DUP1 SWAP2 SUB SWAP1 LOG3 POP JUMP JUMPDEST PUSH0 DUP1 REVERT JUMPDEST PUSH0 DUP2 SWAP1 POP SWAP2 SWAP1 POP JUMP JUMPDEST PUSH2 0x408 DUP2 PUSH2 0x3F6 JUMP JUMPDEST DUP2 EQ PUSH2 0x412 JUMPI PUSH0 DUP1 REVERT JUMPDEST POP JUMP JUMPDEST PUSH0 DUP2 MLOAD SWAP1 POP PUSH2 0x423 DUP2 PUSH2 0x3FF JUMP JUMPDEST SWAP3 SWAP2 POP POP JUMP JUMPDEST PUSH0 PUSH20 0xFFFFFFFFFFFFFFFFFFFFFFFFFFFFFFFFFFFFFFFF DUP3 AND SWAP1 POP SWAP2 SWAP1 POP JUMP JUMPDEST PUSH0 PUSH2 0x452 DUP3 PUSH2 0x429 JUMP JUMPDEST SWAP1 POP SWAP2 SWAP1 POP JUMP JUMPDEST PUSH2 0x462 DUP2 PUSH2 0x448 JUMP JUMPDEST DUP2 EQ PUSH2 0x46C JUMPI PUSH0 DUP1 REVERT JUMPDEST POP JUMP JUMPDEST PUSH0 DUP2 MLOAD SWAP1 POP PUSH2 0x47D DUP2 PUSH2 0x459 JUMP JUMPDEST SWAP3 SWAP2 POP POP JUMP JUMPDEST PUSH0 DUP2 SWAP1 POP SWAP2 SWAP1 POP JUMP JUMPDEST PUSH2 0x495 DUP2 PUSH2 0x483 JUMP JUMPDEST DUP2 EQ PUSH2 0x49F JUMPI PUSH0 DUP1 REVERT JUMPDEST POP JUMP JUMPDEST PUSH0 DUP2 MLOAD SWAP1 POP PUSH2 0x4B0 DUP2 PUSH2 0x48C JUMP JUMPDEST SWAP3 SWAP2 POP POP JUMP JUMPDEST PUSH0 DUP1 PUSH0 DUP1 PUSH0 DUP1 PUSH1 0xC0 DUP8 DUP10 SUB SLT ISZERO PUSH2 0x4D0 JUMPI PUSH2 0x4CF PUSH2 0x3F2 JUMP JUMPDEST JUMPDEST PUSH0 PUSH2 0x4DD DUP10 DUP3 DUP11 ADD PUSH2 0x415 JUMP JUMPDEST SWAP7 POP POP PUSH1 0x20 PUSH2 0x4EE DUP10 DUP3 DUP11 ADD PUSH2 0x415 JUMP JUMPDEST SWAP6 POP POP PUSH1 0x40 PUSH2 0x4FF DUP10 DUP3 DUP11 ADD PUSH2 0x415 JUMP JUMPDEST SWAP5 POP POP PUSH1 0x60 PUSH2 0x510 DUP10 DUP3 DUP11 ADD PUSH2 0x46F JUMP JUMPDEST SWAP4 POP POP PUSH1 0x80 PUSH2 0x521 DUP10 DUP3 DUP11 ADD PUSH2 0x4A2 JUMP JUMPDEST SWAP3 POP POP PUSH1 0xA0 PUSH2 0x532 DUP10 DUP3 DUP11 ADD PUSH2 0x415 JUMP JUMPDEST SWAP2 POP POP SWAP3 SWAP6 POP SWAP3 SWAP6 POP SWAP3 SWAP6 JUMP JUMPDEST PUSH0 DUP3 DUP3 MSTORE PUSH1 0x20 DUP3 ADD SWAP1 POP SWAP3 SWAP2 POP POP JUMP JUMPDEST PUSH32 0x43616E6E6F7420736574206F776E657220746F207A65726F0000000000000000 PUSH0 DUP3 ADD MSTORE POP JUMP JUMPDEST PUSH0 PUSH2 0x583 PUSH1 0x18 DUP4 PUSH2 0x53F JUMP JUMPDEST SWAP2 POP PUSH2 0x58E DUP3 PUSH2 0x54F JUMP JUMPDEST PUSH1 0x20 DUP3 ADD SWAP1 POP SWAP2 SWAP1 POP JUMP JUMPDEST PUSH0 PUSH1 0x20 DUP3 ADD SWAP1 POP DUP2 DUP2 SUB PUSH0 DUP4 ADD MSTORE PUSH2 0x5B0 DUP2 PUSH2 0x577 JUMP JUMPDEST SWAP1 POP SWAP2 SWAP1 POP JUMP JUMPDEST PUSH32 0x43616E6E6F74207472616E7366657220746F2073656C66000000000000000000 PUSH0 DUP3 ADD MSTORE POP JUMP JUMPDEST PUSH0 PUSH2 0x5EB PUSH1 0x17 DUP4 PUSH2 0x53F JUMP JUMPDEST SWAP2 POP PUSH2 0x5F6 DUP3 PUSH2 0x5B7 JUMP JUMPDEST PUSH1 0x20 DUP3 ADD SWAP1 POP SWAP2 SWAP1 POP JUMP JUMPDEST PUSH0 PUSH1 0x20 DUP3 ADD SWAP1 POP DUP2 DUP2 SUB PUSH0 DUP4 ADD MSTORE PUSH2 0x618 DUP2 PUSH2 0x5DF JUMP JUMPDEST SWAP1 POP SWAP2 SWAP1 POP JUMP JUMPDEST PUSH2 0x2684 DUP1 PUSH2 0x62C PUSH0 CODECOPY PUSH0 RETURN INVALID PUSH1 0x80 PUSH1 0x40 MSTORE PUSH1 0x4 CALLDATASIZE LT PUSH2 0x184 JUMPI PUSH0 CALLDATALOAD PUSH1 0xE0 SHR DUP1 PUSH4 0x8DA5CB5B GT PUSH2 0xD0 JUMPI DUP1 PUSH4 0xD6C89C60 GT PUSH2 0x89 JUMPI DUP1 PUSH4 0xF2FDE38B GT PUSH2 0x63 JUMPI DUP1 PUSH4 0xF2FDE38B EQ PUSH2 0x860 JUMPI DUP1 PUSH4 0xF3FEF3A3 EQ PUSH2 0x888 JUMPI DUP1 PUSH4 0xFC7E286D EQ PUSH2 0x8B0 JUMPI DUP1 PUSH4 0xFF50ABDC EQ PUSH2 0x8EC JUMPI PUSH2 0x47A JUMP JUMPDEST DUP1 PUSH4 0xD6C89C60 EQ PUSH2 0x7BE JUMPI DUP1 PUSH4 0xE4B2FB79 EQ PUSH2 0x7E8 JUMPI DUP1 PUSH4 0xF2C16E6F EQ PUSH2 0x824 JUMPI PUSH2 0x47A JUMP JUMPDEST DUP1 PUSH4 0x8DA5CB5B EQ PUSH2 0x6C6 JUMPI DUP1 PUSH4 0x8EA98117 EQ PUSH2 0x6F0 JUMPI DUP1 PUSH4 0x9ECCACF6 EQ PUSH2 0x718 JUMPI DUP1 PUSH4 0xA36298C7 EQ PUSH2 0x742 JUMPI DUP1 PUSH4 0xB0FB162F EQ PUSH2 0x76C JUMPI DUP1 PUSH4 0xB1EB96C9 EQ PUSH2 0x796 JUMPI PUSH2 0x47A JUMP JUMPDEST DUP1 PUSH4 0x42619F66 GT PUSH2 0x13D JUMPI DUP1 PUSH4 0x79BA5097 GT PUSH2 0x117 JUMPI DUP1 PUSH4 0x79BA5097 EQ PUSH2 0x632 JUMPI DUP1 PUSH4 0x7CCFD7FC EQ PUSH2 0x648 JUMPI DUP1 PUSH4 0x8246A16E EQ PUSH2 0x672 JUMPI DUP1 PUSH4 0x89CE16CC EQ PUSH2 0x69C JUMPI PUSH2 0x47A JUMP JUMPDEST DUP1 PUSH4 0x42619F66 EQ PUSH2 0x5B4 JUMPI DUP1 PUSH4 0x61728F39 EQ PUSH2 0x5DE JUMPI DUP1 PUSH4 0x69AC5721 EQ PUSH2 0x608 JUMPI PUSH2 0x47A JUMP JUMPDEST DUP1 PUSH4 0x9C1BA2E EQ PUSH2 0x4B5 JUMPI DUP1 PUSH4 0x1FE543E3 EQ PUSH2 0x4DF JUMPI DUP1 PUSH4 0x24F74697 EQ PUSH2 0x507 JUMPI DUP1 PUSH4 0x261A9AC9 EQ PUSH2 0x531 JUMPI DUP1 PUSH4 0x34A014DC EQ PUSH2 0x55B JUMPI DUP1 PUSH4 0x3E23B145 EQ PUSH2 0x585 JUMPI PUSH2 0x47A JUMP JUMPDEST CALLDATASIZE PUSH2 0x47A JUMPI PUSH0 CALLVALUE GT PUSH2 0x1CB JUMPI PUSH1 0x40 MLOAD PUSH32 0x8C379A000000000000000000000000000000000000000000000000000000000 DUP2 MSTORE PUSH1 0x4 ADD PUSH2 0x1C2 SWAP1 PUSH2 0x1873 JUMP JUMPDEST PUSH1 0x40 MLOAD DUP1 SWAP2 SUB SWAP1 REVERT JUMPDEST PUSH1 0x16 PUSH0 CALLER PUSH20 0xFFFFFFFFFFFFFFFFFFFFFFFFFFFFFFFFFFFFFFFF AND PUSH20 0xFFFFFFFFFFFFFFFFFFFFFFFFFFFFFFFFFFFFFFFF AND DUP2 MSTORE PUSH1 0x20 ADD SWAP1 DUP2 MSTORE PUSH1 0x20 ADD PUSH0 KECCAK256 PUSH0 SWAP1 SLOAD SWAP1 PUSH2 0x100 EXP SWAP1 DIV PUSH1 0xFF AND ISZERO PUSH2 0x316 JUMPI PUSH0 CALLER PUSH20 0xFFFFFFFFFFFFFFFFFFFFFFFFFFFFFFFFFFFFFFFF AND CALLVALUE PUSH1 0x40 MLOAD PUSH2 0x23F SWAP1 PUSH2 0x18BE JUMP JUMPDEST PUSH0 PUSH1 0x40 MLOAD DUP1 DUP4 SUB DUP2 DUP6 DUP8 GAS CALL SWAP3 POP POP POP RETURNDATASIZE DUP1 PUSH0 DUP2 EQ PUSH2 0x279 JUMPI PUSH1 0x40 MLOAD SWAP2 POP PUSH1 0x1F NOT PUSH1 0x3F RETURNDATASIZE ADD AND DUP3 ADD PUSH1 0x40 MSTORE RETURNDATASIZE DUP3 MSTORE RETURNDATASIZE PUSH0 PUSH1 0x20 DUP5 ADD RETURNDATACOPY PUSH2 0x27E JUMP JUMPDEST PUSH1 0x60 SWAP2 POP JUMPDEST POP POP SWAP1 POP DUP1 PUSH2 0x2C2 JUMPI PUSH1 0x40 MLOAD PUSH32 0x8C379A000000000000000000000000000000000000000000000000000000000 DUP2 MSTORE PUSH1 0x4 ADD PUSH2 0x2B9 SWAP1 PUSH2 0x191C JUMP JUMPDEST PUSH1 0x40 MLOAD DUP1 SWAP2 SUB SWAP1 REVERT JUMPDEST CALLER PUSH20 0xFFFFFFFFFFFFFFFFFFFFFFFFFFFFFFFFFFFFFFFF AND PUSH32 0xBB28353E4598C3B9199101A66E0989549B659A59A54D2C27FBB183F1932C8E6D CALLVALUE PUSH1 0x40 MLOAD PUSH2 0x308 SWAP2 SWAP1 PUSH2 0x1952 JUMP JUMPDEST PUSH1 0x40 MLOAD DUP1 SWAP2 SUB SWAP1 LOG2 POP PUSH2 0x478 JUMP JUMPDEST PUSH1 0x4 SLOAD CALLVALUE EQ PUSH2 0x41B JUMPI PUSH0 CALLER PUSH20 0xFFFFFFFFFFFFFFFFFFFFFFFFFFFFFFFFFFFFFFFF AND CALLVALUE PUSH1 0x40 MLOAD PUSH2 0x344 SWAP1 PUSH2 0x18BE JUMP JUMPDEST PUSH0 PUSH1 0x40 MLOAD DUP1 DUP4 SUB DUP2 DUP6 DUP8 GAS CALL SWAP3 POP POP POP RETURNDATASIZE DUP1 PUSH0 DUP2 EQ PUSH2 0x37E JUMPI PUSH1 0x40 MLOAD SWAP2 POP PUSH1 0x1F NOT PUSH1 0x3F RETURNDATASIZE ADD AND DUP3 ADD PUSH1 0x40 MSTORE RETURNDATASIZE DUP3 MSTORE RETURNDATASIZE PUSH0 PUSH1 0x20 DUP5 ADD RETURNDATACOPY PUSH2 0x383 JUMP JUMPDEST PUSH1 0x60 SWAP2 POP JUMPDEST POP POP SWAP1 POP DUP1 PUSH2 0x3C7 JUMPI PUSH1 0x40 MLOAD PUSH32 0x8C379A000000000000000000000000000000000000000000000000000000000 DUP2 MSTORE PUSH1 0x4 ADD PUSH2 0x3BE SWAP1 PUSH2 0x191C JUMP JUMPDEST PUSH1 0x40 MLOAD DUP1 SWAP2 SUB SWAP1 REVERT JUMPDEST CALLER PUSH20 0xFFFFFFFFFFFFFFFFFFFFFFFFFFFFFFFFFFFFFFFF AND PUSH32 0xBB28353E4598C3B9199101A66E0989549B659A59A54D2C27FBB183F1932C8E6D CALLVALUE PUSH1 0x40 MLOAD PUSH2 0x40D SWAP2 SWAP1 PUSH2 0x1952 JUMP JUMPDEST PUSH1 0x40 MLOAD DUP1 SWAP2 SUB SWAP1 LOG2 POP PUSH2 0x478 JUMP JUMPDEST PUSH1 0x5 SLOAD CALLVALUE PUSH1 0x6 SLOAD PUSH2 0x42C SWAP2 SWAP1 PUSH2 0x1998 JUMP JUMPDEST GT ISZERO PUSH2 0x46D JUMPI PUSH1 0x40 MLOAD PUSH32 0x8C379A000000000000000000000000000000000000000000000000000000000 DUP2 MSTORE PUSH1 0x4 ADD PUSH2 0x464 SWAP1 PUSH2 0x1A3B JUMP JUMPDEST PUSH1 0x40 MLOAD DUP1 SWAP2 SUB SWAP1 REVERT JUMPDEST PUSH2 0x477 CALLER CALLVALUE PUSH2 0x916 JUMP JUMPDEST JUMPDEST STOP JUMPDEST PUSH1 0x40 MLOAD PUSH32 0x8C379A000000000000000000000000000000000000000000000000000000000 DUP2 MSTORE PUSH1 0x4 ADD PUSH2 0x4AC SWAP1 PUSH2 0x1AA3 JUMP JUMPDEST PUSH1 0x40 MLOAD DUP1 SWAP2 SUB SWAP1 REVERT JUMPDEST CALLVALUE DUP1 ISZERO PUSH2 0x4C0 JUMPI PUSH0 DUP1 REVERT JUMPDEST POP PUSH2 0x4C9 PUSH2 0xACD JUMP JUMPDEST PUSH1 0x40 MLOAD PUSH2 0x4D6 SWAP2 SWAP1 PUSH2 0x1952 JUMP JUMPDEST PUSH1 0x40 MLOAD DUP1 SWAP2 SUB SWAP1 RETURN JUMPDEST CALLVALUE DUP1 ISZERO PUSH2 0x4EA JUMPI PUSH0 DUP1 REVERT JUMPDEST POP PUSH2 0x505 PUSH1 0x4 DUP1 CALLDATASIZE SUB DUP2 ADD SWAP1 PUSH2 0x500 SWAP2 SWAP1 PUSH2 0x1B54 JUMP JUMPDEST PUSH2 0xAD3 JUMP JUMPDEST STOP JUMPDEST CALLVALUE DUP1 ISZERO PUSH2 0x512 JUMPI PUSH0 DUP1 REVERT JUMPDEST POP PUSH2 0x51B PUSH2 0xB97 JUMP JUMPDEST PUSH1 0x40 MLOAD PUSH2 0x528 SWAP2 SWAP1 PUSH2 0x1BCF JUMP JUMPDEST PUSH1 0x40 MLOAD DUP1 SWAP2 SUB SWAP1 RETURN JUMPDEST CALLVALUE DUP1 ISZERO PUSH2 0x53C JUMPI PUSH0 DUP1 REVERT JUMPDEST POP PUSH2 0x545 PUSH2 0xBAC JUMP JUMPDEST PUSH1 0x40 MLOAD PUSH2 0x552 SWAP2 SWAP1 PUSH2 0x1952 JUMP JUMPDEST PUSH1 0x40 MLOAD DUP1 SWAP2 SUB SWAP1 RETURN JUMPDEST CALLVALUE DUP1 ISZERO PUSH2 0x566 JUMPI PUSH0 DUP1 REVERT JUMPDEST POP PUSH2 0x56F PUSH2 0xBB2 JUMP JUMPDEST PUSH1 0x40 MLOAD PUSH2 0x57C SWAP2 SWAP1 PUSH2 0x1952 JUMP JUMPDEST PUSH1 0x40 MLOAD DUP1 SWAP2 SUB SWAP1 RETURN JUMPDEST CALLVALUE DUP1 ISZERO PUSH2 0x590 JUMPI PUSH0 DUP1 REVERT JUMPDEST POP PUSH2 0x599 PUSH2 0xBB8 JUMP JUMPDEST PUSH1 0x40 MLOAD PUSH2 0x5AB SWAP7 SWAP6 SWAP5 SWAP4 SWAP3 SWAP2 SWAP1 PUSH2 0x1C8C JUMP JUMPDEST PUSH1 0x40 MLOAD DUP1 SWAP2 SUB SWAP1 RETURN JUMPDEST CALLVALUE DUP1 ISZERO PUSH2 0x5BF JUMPI PUSH0 DUP1 REVERT JUMPDEST POP PUSH2 0x5C8 PUSH2 0xC94 JUMP JUMPDEST PUSH1 0x40 MLOAD PUSH2 0x5D5 SWAP2 SWAP1 PUSH2 0x1952 JUMP JUMPDEST PUSH1 0x40 MLOAD DUP1 SWAP2 SUB SWAP1 RETURN JUMPDEST CALLVALUE DUP1 ISZERO PUSH2 0x5E9 JUMPI PUSH0 DUP1 REVERT JUMPDEST POP PUSH2 0x5F2 PUSH2 0xC9A JUMP JUMPDEST PUSH1 0x40 MLOAD PUSH2 0x5FF SWAP2 SWAP1 PUSH2 0x1CF2 JUMP JUMPDEST PUSH1 0x40 MLOAD DUP1 SWAP2 SUB SWAP1 RETURN JUMPDEST CALLVALUE DUP1 ISZERO PUSH2 0x613 JUMPI PUSH0 DUP1 REVERT JUMPDEST POP PUSH2 0x61C PUSH2 0xCA0 JUMP JUMPDEST PUSH1 0x40 MLOAD PUSH2 0x629 SWAP2 SWAP1 PUSH2 0x1952 JUMP JUMPDEST PUSH1 0x40 MLOAD DUP1 SWAP2 SUB SWAP1 RETURN JUMPDEST CALLVALUE DUP1 ISZERO PUSH2 0x63D JUMPI PUSH0 DUP1 REVERT JUMPDEST POP PUSH2 0x646 PUSH2 0xCA6 JUMP JUMPDEST STOP JUMPDEST CALLVALUE DUP1 ISZERO PUSH2 0x653 JUMPI PUSH0 DUP1 REVERT JUMPDEST POP PUSH2 0x65C PUSH2 0xE35 JUMP JUMPDEST PUSH1 0x40 MLOAD PUSH2 0x669 SWAP2 SWAP1 PUSH2 0x1BCF JUMP JUMPDEST PUSH1 0x40 MLOAD DUP1 SWAP2 SUB SWAP1 RETURN JUMPDEST CALLVALUE DUP1 ISZERO PUSH2 0x67D JUMPI PUSH0 DUP1 REVERT JUMPDEST POP PUSH2 0x686 PUSH2 0xE4B JUMP JUMPDEST PUSH1 0x40 MLOAD PUSH2 0x693 SWAP2 SWAP1 PUSH2 0x1D25 JUMP JUMPDEST PUSH1 0x40 MLOAD DUP1 SWAP2 SUB SWAP1 RETURN JUMPDEST CALLVALUE DUP1 ISZERO PUSH2 0x6A7 JUMPI PUSH0 DUP1 REVERT JUMPDEST POP PUSH2 0x6B0 PUSH2 0xE5D JUMP JUMPDEST PUSH1 0x40 MLOAD PUSH2 0x6BD SWAP2 SWAP1 PUSH2 0x1952 JUMP JUMPDEST PUSH1 0x40 MLOAD DUP1 SWAP2 SUB SWAP1 RETURN JUMPDEST CALLVALUE DUP1 ISZERO PUSH2 0x6D1 JUMPI PUSH0 DUP1 REVERT JUMPDEST POP PUSH2 0x6DA PUSH2 0xE63 JUMP JUMPDEST PUSH1 0x40 MLOAD PUSH2 0x6E7 SWAP2 SWAP1 PUSH2 0x1D7D JUMP JUMPDEST PUSH1 0x40 MLOAD DUP1 SWAP2 SUB SWAP1 RETURN JUMPDEST CALLVALUE DUP1 ISZERO PUSH2 0x6FB JUMPI PUSH0 DUP1 REVERT JUMPDEST POP PUSH2 0x716 PUSH1 0x4 DUP1 CALLDATASIZE SUB DUP2 ADD SWAP1 PUSH2 0x711 SWAP2 SWAP1 PUSH2 0x1DC0 JUMP JUMPDEST PUSH2 0xE8A JUMP JUMPDEST STOP JUMPDEST CALLVALUE DUP1 ISZERO PUSH2 0x723 JUMPI PUSH0 DUP1 REVERT JUMPDEST POP PUSH2 0x72C PUSH2 0x1067 JUMP JUMPDEST PUSH1 0x40 MLOAD PUSH2 0x739 SWAP2 SWAP1 PUSH2 0x1E46 JUMP JUMPDEST PUSH1 0x40 MLOAD DUP1 SWAP2 SUB SWAP1 RETURN JUMPDEST CALLVALUE DUP1 ISZERO PUSH2 0x74D JUMPI PUSH0 DUP1 REVERT JUMPDEST POP PUSH2 0x756 PUSH2 0x108C JUMP JUMPDEST PUSH1 0x40 MLOAD PUSH2 0x763 SWAP2 SWAP1 PUSH2 0x1952 JUMP JUMPDEST PUSH1 0x40 MLOAD DUP1 SWAP2 SUB SWAP1 RETURN JUMPDEST CALLVALUE DUP1 ISZERO PUSH2 0x777 JUMPI PUSH0 DUP1 REVERT JUMPDEST POP PUSH2 0x780 PUSH2 0x1092 JUMP JUMPDEST PUSH1 0x40 MLOAD PUSH2 0x78D SWAP2 SWAP1 PUSH2 0x1E5F JUMP JUMPDEST PUSH1 0x40 MLOAD DUP1 SWAP2 SUB SWAP1 RETURN JUMPDEST CALLVALUE DUP1 ISZERO PUSH2 0x7A1 JUMPI PUSH0 DUP1 REVERT JUMPDEST POP PUSH2 0x7BC PUSH1 0x4 DUP1 CALLDATASIZE SUB DUP2 ADD SWAP1 PUSH2 0x7B7 SWAP2 SWAP1 PUSH2 0x1E78 JUMP JUMPDEST PUSH2 0x10A6 JUMP JUMPDEST STOP JUMPDEST CALLVALUE DUP1 ISZERO PUSH2 0x7C9 JUMPI PUSH0 DUP1 REVERT JUMPDEST POP PUSH2 0x7D2 PUSH2 0x12C9 JUMP JUMPDEST PUSH1 0x40 MLOAD PUSH2 0x7DF SWAP2 SWAP1 PUSH2 0x1952 JUMP JUMPDEST PUSH1 0x40 MLOAD DUP1 SWAP2 SUB SWAP1 RETURN JUMPDEST CALLVALUE DUP1 ISZERO PUSH2 0x7F3 JUMPI PUSH0 DUP1 REVERT JUMPDEST POP PUSH2 0x80E PUSH1 0x4 DUP1 CALLDATASIZE SUB DUP2 ADD SWAP1 PUSH2 0x809 SWAP2 SWAP1 PUSH2 0x1E78 JUMP JUMPDEST PUSH2 0x12CF JUMP JUMPDEST PUSH1 0x40 MLOAD PUSH2 0x81B SWAP2 SWAP1 PUSH2 0x1D7D JUMP JUMPDEST PUSH1 0x40 MLOAD DUP1 SWAP2 SUB SWAP1 RETURN JUMPDEST CALLVALUE DUP1 ISZERO PUSH2 0x82F JUMPI PUSH0 DUP1 REVERT JUMPDEST POP PUSH2 0x84A PUSH1 0x4 DUP1 CALLDATASIZE SUB DUP2 ADD SWAP1 PUSH2 0x845 SWAP2 SWAP1 PUSH2 0x1DC0 JUMP JUMPDEST PUSH2 0x130A JUMP JUMPDEST PUSH1 0x40 MLOAD PUSH2 0x857 SWAP2 SWAP1 PUSH2 0x1D25 JUMP JUMPDEST PUSH1 0x40 MLOAD DUP1 SWAP2 SUB SWAP1 RETURN JUMPDEST CALLVALUE DUP1 ISZERO PUSH2 0x86B JUMPI PUSH0 DUP1 REVERT JUMPDEST POP PUSH2 0x886 PUSH1 0x4 DUP1 CALLDATASIZE SUB DUP2 ADD SWAP1 PUSH2 0x881 SWAP2 SWAP1 PUSH2 0x1DC0 JUMP JUMPDEST PUSH2 0x1327 JUMP JUMPDEST STOP JUMPDEST CALLVALUE DUP1 ISZERO PUSH2 0x893 JUMPI PUSH0 DUP1 REVERT JUMPDEST POP PUSH2 0x8AE PUSH1 0x4 DUP1 CALLDATASIZE SUB DUP2 ADD SWAP1 PUSH2 0x8A9 SWAP2 SWAP1 PUSH2 0x1EDE JUMP JUMPDEST PUSH2 0x133B JUMP JUMPDEST STOP JUMPDEST CALLVALUE DUP1 ISZERO PUSH2 0x8BB JUMPI PUSH0 DUP1 REVERT JUMPDEST POP PUSH2 0x8D6 PUSH1 0x4 DUP1 CALLDATASIZE SUB DUP2 ADD SWAP1 PUSH2 0x8D1 SWAP2 SWAP1 PUSH2 0x1DC0 JUMP JUMPDEST PUSH2 0x14DD JUMP JUMPDEST PUSH1 0x40 MLOAD PUSH2 0x8E3 SWAP2 SWAP1 PUSH2 0x1952 JUMP JUMPDEST PUSH1 0x40 MLOAD DUP1 SWAP2 SUB SWAP1 RETURN JUMPDEST CALLVALUE DUP1 ISZERO PUSH2 0x8F7 JUMPI PUSH0 DUP1 REVERT JUMPDEST POP PUSH2 0x900 PUSH2 0x14F2 JUMP JUMPDEST PUSH1 0x40 MLOAD PUSH2 0x90D SWAP2 SWAP1 PUSH2 0x1952 JUMP JUMPDEST PUSH1 0x40 MLOAD DUP1 SWAP2 SUB SWAP1 RETURN JUMPDEST PUSH0 PUSH1 0x14 PUSH0 DUP5 PUSH20 0xFFFFFFFFFFFFFFFFFFFFFFFFFFFFFFFFFFFFFFFF AND PUSH20 0xFFFFFFFFFFFFFFFFFFFFFFFFFFFFFFFFFFFFFFFF AND DUP2 MSTORE PUSH1 0x20 ADD SWAP1 DUP2 MSTORE PUSH1 0x20 ADD PUSH0 KECCAK256 SLOAD SUB PUSH2 0x9BB JUMPI PUSH1 0x15 DUP3 SWAP1 DUP1 PUSH1 0x1 DUP2 SLOAD ADD DUP1 DUP3 SSTORE DUP1 SWAP2 POP POP PUSH1 0x1 SWAP1 SUB SWAP1 PUSH0 MSTORE PUSH1 0x20 PUSH0 KECCAK256 ADD PUSH0 SWAP1 SWAP2 SWAP1 SWAP2 SWAP1 SWAP2 PUSH2 0x100 EXP DUP2 SLOAD DUP2 PUSH20 0xFFFFFFFFFFFFFFFFFFFFFFFFFFFFFFFFFFFFFFFF MUL NOT AND SWAP1 DUP4 PUSH20 0xFFFFFFFFFFFFFFFFFFFFFFFFFFFFFFFFFFFFFFFF AND MUL OR SWAP1 SSTORE POP JUMPDEST PUSH1 0x1 PUSH1 0x16 PUSH0 DUP5 PUSH20 0xFFFFFFFFFFFFFFFFFFFFFFFFFFFFFFFFFFFFFFFF AND PUSH20 0xFFFFFFFFFFFFFFFFFFFFFFFFFFFFFFFFFFFFFFFF AND DUP2 MSTORE PUSH1 0x20 ADD SWAP1 DUP2 MSTORE PUSH1 0x20 ADD PUSH0 KECCAK256 PUSH0 PUSH2 0x100 EXP DUP2 SLOAD DUP2 PUSH1 0xFF MUL NOT AND SWAP1 DUP4 ISZERO ISZERO MUL OR SWAP1 SSTORE POP DUP1 PUSH1 0x14 PUSH0 DUP5 PUSH20 0xFFFFFFFFFFFFFFFFFFFFFFFFFFFFFFFFFFFFFFFF AND PUSH20 0xFFFFFFFFFFFFFFFFFFFFFFFFFFFFFFFFFFFFFFFF AND DUP2 MSTORE PUSH1 0x20 ADD SWAP1 DUP2 MSTORE PUSH1 0x20 ADD PUSH0 KECCAK256 PUSH0 DUP3 DUP3 SLOAD PUSH2 0xA5C SWAP2 SWAP1 PUSH2 0x1998 JUMP JUMPDEST SWAP3 POP POP DUP2 SWAP1 SSTORE POP DUP1 PUSH1 0x6 PUSH0 DUP3 DUP3 SLOAD PUSH2 0xA74 SWAP2 SWAP1 PUSH2 0x1998 JUMP JUMPDEST SWAP3 POP POP DUP2 SWAP1 SSTORE POP DUP2 PUSH20 0xFFFFFFFFFFFFFFFFFFFFFFFFFFFFFFFFFFFFFFFF AND PUSH32 0xE1FFFCC4923D04B559F4D29A8BFC6CDA04EB5B0D3C460751C2402C5C5CC9109C DUP3 PUSH1 0x40 MLOAD PUSH2 0xAC1 SWAP2 SWAP1 PUSH2 0x1952 JUMP JUMPDEST PUSH1 0x40 MLOAD DUP1 SWAP2 SUB SWAP1 LOG2 POP POP JUMP JUMPDEST PUSH1 0xF SLOAD DUP2 JUMP JUMPDEST PUSH1 0x2 PUSH0 SWAP1 SLOAD SWAP1 PUSH2 0x100 EXP SWAP1 DIV PUSH20 0xFFFFFFFFFFFFFFFFFFFFFFFFFFFFFFFFFFFFFFFF AND PUSH20 0xFFFFFFFFFFFFFFFFFFFFFFFFFFFFFFFFFFFFFFFF AND CALLER PUSH20 0xFFFFFFFFFFFFFFFFFFFFFFFFFFFFFFFFFFFFFFFF AND EQ PUSH2 0xB87 JUMPI CALLER PUSH1 0x2 PUSH0 SWAP1 SLOAD SWAP1 PUSH2 0x100 EXP SWAP1 DIV PUSH20 0xFFFFFFFFFFFFFFFFFFFFFFFFFFFFFFFFFFFFFFFF AND PUSH1 0x40 MLOAD PUSH32 0x1CF993F400000000000000000000000000000000000000000000000000000000 DUP2 MSTORE PUSH1 0x4 ADD PUSH2 0xB7E SWAP3 SWAP2 SWAP1 PUSH2 0x1F1C JUMP JUMPDEST PUSH1 0x40 MLOAD DUP1 SWAP2 SUB SWAP1 REVERT JUMPDEST PUSH2 0xB92 DUP4 DUP4 DUP4 PUSH2 0x14F8 JUMP JUMPDEST POP POP POP JUMP JUMPDEST PUSH1 0x13 PUSH0 SWAP1 SLOAD SWAP1 PUSH2 0x100 EXP SWAP1 DIV PUSH4 0xFFFFFFFF AND DUP2 JUMP JUMPDEST PUSH1 0x4 SLOAD DUP2 JUMP JUMPDEST PUSH1 0x8 SLOAD DUP2 JUMP JUMPDEST PUSH1 0xB DUP1 PUSH0 ADD SLOAD SWAP1 DUP1 PUSH1 0x1 ADD SLOAD SWAP1 DUP1 PUSH1 0x2 ADD PUSH0 SWAP1 SLOAD SWAP1 PUSH2 0x100 EXP SWAP1 DIV PUSH2 0xFFFF AND SWAP1 DUP1 PUSH1 0x2 ADD PUSH1 0x2 SWAP1 SLOAD SWAP1 PUSH2 0x100 EXP SWAP1 DIV PUSH4 0xFFFFFFFF AND SWAP1 DUP1 PUSH1 0x2 ADD PUSH1 0x6 SWAP1 SLOAD SWAP1 PUSH2 0x100 EXP SWAP1 DIV PUSH4 0xFFFFFFFF AND SWAP1 DUP1 PUSH1 0x3 ADD DUP1 SLOAD PUSH2 0xC13 SWAP1 PUSH2 0x1F70 JUMP JUMPDEST DUP1 PUSH1 0x1F ADD PUSH1 0x20 DUP1 SWAP2 DIV MUL PUSH1 0x20 ADD PUSH1 0x40 MLOAD SWAP1 DUP2 ADD PUSH1 0x40 MSTORE DUP1 SWAP3 SWAP2 SWAP1 DUP2 DUP2 MSTORE PUSH1 0x20 ADD DUP3 DUP1 SLOAD PUSH2 0xC3F SWAP1 PUSH2 0x1F70 JUMP JUMPDEST DUP1 ISZERO PUSH2 0xC8A JUMPI DUP1 PUSH1 0x1F LT PUSH2 0xC61 JUMPI PUSH2 0x100 DUP1 DUP4 SLOAD DIV MUL DUP4 MSTORE SWAP2 PUSH1 0x20 ADD SWAP2 PUSH2 0xC8A JUMP JUMPDEST DUP3 ADD SWAP2 SWAP1 PUSH0 MSTORE PUSH1 0x20 PUSH0 KECCAK256 SWAP1 JUMPDEST DUP2 SLOAD DUP2 MSTORE SWAP1 PUSH1 0x1 ADD SWAP1 PUSH1 0x20 ADD DUP1 DUP4 GT PUSH2 0xC6D JUMPI DUP3 SWAP1 SUB PUSH1 0x1F AND DUP3 ADD SWAP2 JUMPDEST POP POP POP POP POP SWAP1 POP DUP7 JUMP JUMPDEST PUSH1 0x10 SLOAD DUP2 JUMP JUMPDEST PUSH1 0x12 SLOAD DUP2 JUMP JUMPDEST PUSH1 0x9 SLOAD DUP2 JUMP JUMPDEST PUSH1 0x1 PUSH0 SWAP1 SLOAD SWAP1 PUSH2 0x100 EXP SWAP1 DIV PUSH20 0xFFFFFFFFFFFFFFFFFFFFFFFFFFFFFFFFFFFFFFFF AND PUSH20 0xFFFFFFFFFFFFFFFFFFFFFFFFFFFFFFFFFFFFFFFF AND CALLER PUSH20 0xFFFFFFFFFFFFFFFFFFFFFFFFFFFFFFFFFFFFFFFF AND EQ PUSH2 0xD35 JUMPI PUSH1 0x40 MLOAD PUSH32 0x8C379A000000000000000000000000000000000000000000000000000000000 DUP2 MSTORE PUSH1 0x4 ADD PUSH2 0xD2C SWAP1 PUSH2 0x1FEA JUMP JUMPDEST PUSH1 0x40 MLOAD DUP1 SWAP2 SUB SWAP1 REVERT JUMPDEST PUSH0 DUP1 PUSH0 SWAP1 SLOAD SWAP1 PUSH2 0x100 EXP SWAP1 DIV PUSH20 0xFFFFFFFFFFFFFFFFFFFFFFFFFFFFFFFFFFFFFFFF AND SWAP1 POP CALLER PUSH0 DUP1 PUSH2 0x100 EXP DUP2 SLOAD DUP2 PUSH20 0xFFFFFFFFFFFFFFFFFFFFFFFFFFFFFFFFFFFFFFFF MUL NOT AND SWAP1 DUP4 PUSH20 0xFFFFFFFFFFFFFFFFFFFFFFFFFFFFFFFFFFFFFFFF AND MUL OR SWAP1 SSTORE POP PUSH0 PUSH1 0x1 PUSH0 PUSH2 0x100 EXP DUP2 SLOAD DUP2 PUSH20 0xFFFFFFFFFFFFFFFFFFFFFFFFFFFFFFFFFFFFFFFF MUL NOT AND SWAP1 DUP4 PUSH20 0xFFFFFFFFFFFFFFFFFFFFFFFFFFFFFFFFFFFFFFFF AND MUL OR SWAP1 SSTORE POP CALLER PUSH20 0xFFFFFFFFFFFFFFFFFFFFFFFFFFFFFFFFFFFFFFFF AND DUP2 PUSH20 0xFFFFFFFFFFFFFFFFFFFFFFFFFFFFFFFFFFFFFFFF AND PUSH32 0x8BE0079C531659141344CD1FD0A4F28419497F9722A3DAAFE3B4186F6B6457E0 PUSH1 0x40 MLOAD PUSH1 0x40 MLOAD DUP1 SWAP2 SUB SWAP1 LOG3 POP JUMP JUMPDEST PUSH1 0x13 PUSH1 0x6 SWAP1 SLOAD SWAP1 PUSH2 0x100 EXP SWAP1 DIV PUSH4 0xFFFFFFFF AND DUP2 JUMP JUMPDEST PUSH1 0xA PUSH0 SWAP1 SLOAD SWAP1 PUSH2 0x100 EXP SWAP1 DIV PUSH1 0xFF AND DUP2 JUMP JUMPDEST PUSH1 0x11 SLOAD DUP2 JUMP JUMPDEST PUSH0 DUP1 PUSH0 SWAP1 SLOAD SWAP1 PUSH2 0x100 EXP SWAP1 DIV PUSH20 0xFFFFFFFFFFFFFFFFFFFFFFFFFFFFFFFFFFFFFFFF AND SWAP1 POP SWAP1 JUMP JUMPDEST PUSH2 0xE92 PUSH2 0xE63 JUMP JUMPDEST PUSH20 0xFFFFFFFFFFFFFFFFFFFFFFFFFFFFFFFFFFFFFFFF AND CALLER PUSH20 0xFFFFFFFFFFFFFFFFFFFFFFFFFFFFFFFFFFFFFFFF AND EQ ISZERO DUP1 ISZERO PUSH2 0xF1A JUMPI POP PUSH1 0x2 PUSH0 SWAP1 SLOAD SWAP1 PUSH2 0x100 EXP SWAP1 DIV PUSH20 0xFFFFFFFFFFFFFFFFFFFFFFFFFFFFFFFFFFFFFFFF AND PUSH20 0xFFFFFFFFFFFFFFFFFFFFFFFFFFFFFFFFFFFFFFFF AND CALLER PUSH20 0xFFFFFFFFFFFFFFFFFFFFFFFFFFFFFFFFFFFFFFFF AND EQ ISZERO JUMPDEST ISZERO PUSH2 0xF88 JUMPI CALLER PUSH2 0xF28 PUSH2 0xE63 JUMP JUMPDEST PUSH1 0x2 PUSH0 SWAP1 SLOAD SWAP1 PUSH2 0x100 EXP SWAP1 DIV PUSH20 0xFFFFFFFFFFFFFFFFFFFFFFFFFFFFFFFFFFFFFFFF AND PUSH1 0x40 MLOAD PUSH32 0x61DB9C100000000000000000000000000000000000000000000000000000000 DUP2 MSTORE PUSH1 0x4 ADD PUSH2 0xF7F SWAP4 SWAP3 SWAP2 SWAP1 PUSH2 0x2008 JUMP JUMPDEST PUSH1 0x40 MLOAD DUP1 SWAP2 SUB SWAP1 REVERT JUMPDEST PUSH0 PUSH20 0xFFFFFFFFFFFFFFFFFFFFFFFFFFFFFFFFFFFFFFFF AND DUP2 PUSH20 0xFFFFFFFFFFFFFFFFFFFFFFFFFFFFFFFFFFFFFFFF AND SUB PUSH2 0xFED JUMPI PUSH1 0x40 MLOAD PUSH32 0xD92E233D00000000000000000000000000000000000000000000000000000000 DUP2 MSTORE PUSH1 0x4 ADD PUSH1 0x40 MLOAD DUP1 SWAP2 SUB SWAP1 REVERT JUMPDEST DUP1 PUSH1 0x2 PUSH0 PUSH2 0x100 EXP DUP2 SLOAD DUP2 PUSH20 0xFFFFFFFFFFFFFFFFFFFFFFFFFFFFFFFFFFFFFFFF MUL NOT AND SWAP1 DUP4 PUSH20 0xFFFFFFFFFFFFFFFFFFFFFFFFFFFFFFFFFFFFFFFF AND MUL OR SWAP1 SSTORE POP PUSH32 0xD1A6A14209A385A964D036E404CB5CFB71F4000CDB03C9366292430787261BE6 DUP2 PUSH1 0x40 MLOAD PUSH2 0x105C SWAP2 SWAP1 PUSH2 0x1D7D JUMP JUMPDEST PUSH1 0x40 MLOAD DUP1 SWAP2 SUB SWAP1 LOG1 POP JUMP JUMPDEST PUSH1 0x2 PUSH0 SWAP1 SLOAD SWAP1 PUSH2 0x100 EXP SWAP1 DIV PUSH20 0xFFFFFFFFFFFFFFFFFFFFFFFFFFFFFFFFFFFFFFFF AND DUP2 JUMP JUMPDEST PUSH1 0x5 SLOAD DUP2 JUMP JUMPDEST PUSH1 0x13 PUSH1 0x4 SWAP1 SLOAD SWAP1 PUSH2 0x100 EXP SWAP1 DIV PUSH2 0xFFFF AND DUP2 JUMP JUMPDEST PUSH2 0x10AE PUSH2 0x156F JUMP JUMPDEST PUSH1 0xA PUSH0 SWAP1 SLOAD SWAP1 PUSH2 0x100 EXP SWAP1 DIV PUSH1 0xFF AND ISZERO PUSH2 0x10FD JUMPI PUSH1 0x40 MLOAD PUSH32 0x8C379A000000000000000000000000000000000000000000000000000000000 DUP2 MSTORE PUSH1 0x4 ADD PUSH2 0x10F4 SWAP1 PUSH2 0x2087 JUMP JUMPDEST PUSH1 0x40 MLOAD DUP1 SWAP2 SUB SWAP1 REVERT JUMPDEST PUSH0 DUP2 GT PUSH2 0x113F JUMPI PUSH1 0x40 MLOAD PUSH32 0x8C379A000000000000000000000000000000000000000000000000000000000 DUP2 MSTORE PUSH1 0x4 ADD PUSH2 0x1136 SWAP1 PUSH2 0x20EF JUMP JUMPDEST PUSH1 0x40 MLOAD DUP1 SWAP2 SUB SWAP1 REVERT JUMPDEST DUP1 PUSH1 0x11 DUP2 SWAP1 SSTORE POP PUSH0 PUSH1 0x40 MLOAD DUP1 PUSH1 0xC0 ADD PUSH1 0x40 MSTORE DUP1 PUSH1 0x12 SLOAD DUP2 MSTORE PUSH1 0x20 ADD PUSH1 0xF SLOAD DUP2 MSTORE PUSH1 0x20 ADD PUSH1 0x13 PUSH1 0x4 SWAP1 SLOAD SWAP1 PUSH2 0x100 EXP SWAP1 DIV PUSH2 0xFFFF AND PUSH2 0xFFFF AND DUP2 MSTORE PUSH1 0x20 ADD PUSH1 0x13 PUSH0 SWAP1 SLOAD SWAP1 PUSH2 0x100 EXP SWAP1 DIV PUSH4 0xFFFFFFFF AND PUSH4 0xFFFFFFFF AND DUP2 MSTORE PUSH1 0x20 ADD PUSH1 0x13 PUSH1 0x6 SWAP1 SLOAD SWAP1 PUSH2 0x100 EXP SWAP1 DIV PUSH4 0xFFFFFFFF AND PUSH4 0xFFFFFFFF AND DUP2 MSTORE PUSH1 0x20 ADD PUSH2 0x11D0 PUSH1 0x40 MLOAD DUP1 PUSH1 0x20 ADD PUSH1 0x40 MSTORE DUP1 PUSH0 ISZERO ISZERO DUP2 MSTORE POP PUSH2 0x15FE JUMP JUMPDEST DUP2 MSTORE POP SWAP1 POP PUSH0 PUSH1 0x13 PUSH1 0xA SWAP1 SLOAD SWAP1 PUSH2 0x100 EXP SWAP1 DIV PUSH20 0xFFFFFFFFFFFFFFFFFFFFFFFFFFFFFFFFFFFFFFFF AND PUSH20 0xFFFFFFFFFFFFFFFFFFFFFFFFFFFFFFFFFFFFFFFF AND PUSH4 0x9B1C385E DUP4 PUSH1 0x40 MLOAD DUP3 PUSH4 0xFFFFFFFF AND PUSH1 0xE0 SHL DUP2 MSTORE PUSH1 0x4 ADD PUSH2 0x1231 SWAP2 SWAP1 PUSH2 0x2217 JUMP JUMPDEST PUSH1 0x20 PUSH1 0x40 MLOAD DUP1 DUP4 SUB DUP2 PUSH0 DUP8 GAS CALL ISZERO DUP1 ISZERO PUSH2 0x124D JUMPI RETURNDATASIZE PUSH0 DUP1 RETURNDATACOPY RETURNDATASIZE PUSH0 REVERT JUMPDEST POP POP POP POP PUSH1 0x40 MLOAD RETURNDATASIZE PUSH1 0x1F NOT PUSH1 0x1F DUP3 ADD AND DUP3 ADD DUP1 PUSH1 0x40 MSTORE POP DUP2 ADD SWAP1 PUSH2 0x1271 SWAP2 SWAP1 PUSH2 0x224B JUMP JUMPDEST SWAP1 POP PUSH1 0x1 PUSH1 0xA PUSH0 PUSH2 0x100 EXP DUP2 SLOAD DUP2 PUSH1 0xFF MUL NOT AND SWAP1 DUP4 ISZERO ISZERO MUL OR SWAP1 SSTORE POP PUSH32 0x5A82A565B8CC97BC62F2041E057E918F6B3B7B4185104D7D4A52ED5C711E7232 DUP2 PUSH1 0x40 MLOAD PUSH2 0x12BC SWAP2 SWAP1 PUSH2 0x1952 JUMP JUMPDEST PUSH1 0x40 MLOAD DUP1 SWAP2 SUB SWAP1 LOG1 POP POP POP JUMP JUMPDEST PUSH1 0x7 SLOAD DUP2 JUMP JUMPDEST PUSH1 0x15 DUP2 DUP2 SLOAD DUP2 LT PUSH2 0x12DE JUMPI PUSH0 DUP1 REVERT JUMPDEST SWAP1 PUSH0 MSTORE PUSH1 0x20 PUSH0 KECCAK256 ADD PUSH0 SWAP2 POP SLOAD SWAP1 PUSH2 0x100 EXP SWAP1 DIV PUSH20 0xFFFFFFFFFFFFFFFFFFFFFFFFFFFFFFFFFFFFFFFF AND DUP2 JUMP JUMPDEST PUSH1 0x16 PUSH1 0x20 MSTORE DUP1 PUSH0 MSTORE PUSH1 0x40 PUSH0 KECCAK256 PUSH0 SWAP2 POP SLOAD SWAP1 PUSH2 0x100 EXP SWAP1 DIV PUSH1 0xFF AND DUP2 JUMP JUMPDEST PUSH2 0x132F PUSH2 0x156F JUMP JUMPDEST PUSH2 0x1338 DUP2 PUSH2 0x1696 JUMP JUMPDEST POP JUMP JUMPDEST PUSH2 0x1343 PUSH2 0x156F JUMP JUMPDEST PUSH2 0x134B PUSH2 0x17C0 JUMP JUMPDEST PUSH1 0x9 SLOAD TIMESTAMP LT ISZERO PUSH2 0x1390 JUMPI PUSH1 0x40 MLOAD PUSH32 0x8C379A000000000000000000000000000000000000000000000000000000000 DUP2 MSTORE PUSH1 0x4 ADD PUSH2 0x1387 SWAP1 PUSH2 0x22E6 JUMP JUMPDEST PUSH1 0x40 MLOAD DUP1 SWAP2 SUB SWAP1 REVERT JUMPDEST SELFBALANCE DUP2 GT ISZERO PUSH2 0x13D3 JUMPI PUSH1 0x40 MLOAD PUSH32 0x8C379A000000000000000000000000000000000000000000000000000000000 DUP2 MSTORE PUSH1 0x4 ADD PUSH2 0x13CA SWAP1 PUSH2 0x234E JUMP JUMPDEST PUSH1 0x40 MLOAD DUP1 SWAP2 SUB SWAP1 REVERT JUMPDEST TIMESTAMP PUSH1 0x8 DUP2 SWAP1 SSTORE POP PUSH0 DUP3 PUSH20 0xFFFFFFFFFFFFFFFFFFFFFFFFFFFFFFFFFFFFFFFF AND DUP3 PUSH1 0x40 MLOAD PUSH2 0x13FF SWAP1 PUSH2 0x18BE JUMP JUMPDEST PUSH0 PUSH1 0x40 MLOAD DUP1 DUP4 SUB DUP2 DUP6 DUP8 GAS CALL SWAP3 POP POP POP RETURNDATASIZE DUP1 PUSH0 DUP2 EQ PUSH2 0x1439 JUMPI PUSH1 0x40 MLOAD SWAP2 POP PUSH1 0x1F NOT PUSH1 0x3F RETURNDATASIZE ADD AND DUP3 ADD PUSH1 0x40 MSTORE RETURNDATASIZE DUP3 MSTORE RETURNDATASIZE PUSH0 PUSH1 0x20 DUP5 ADD RETURNDATACOPY PUSH2 0x143E JUMP JUMPDEST PUSH1 0x60 SWAP2 POP JUMPDEST POP POP SWAP1 POP DUP1 PUSH2 0x1482 JUMPI PUSH1 0x40 MLOAD PUSH32 0x8C379A000000000000000000000000000000000000000000000000000000000 DUP2 MSTORE PUSH1 0x4 ADD PUSH2 0x1479 SWAP1 PUSH2 0x23B6 JUMP JUMPDEST PUSH1 0x40 MLOAD DUP1 SWAP2 SUB SWAP1 REVERT JUMPDEST DUP3 PUSH20 0xFFFFFFFFFFFFFFFFFFFFFFFFFFFFFFFFFFFFFFFF AND PUSH32 0xECB269D89BFDED20A4F5E6E51B509DF1E3309A995946C9BE8D6A8E2DDFA6B89C DUP4 PUSH1 0x40 MLOAD PUSH2 0x14C8 SWAP2 SWAP1 PUSH2 0x241E JUMP JUMPDEST PUSH1 0x40 MLOAD DUP1 SWAP2 SUB SWAP1 LOG2 POP PUSH2 0x14D9 PUSH2 0x180F JUMP JUMPDEST POP POP JUMP JUMPDEST PUSH1 0x14 PUSH1 0x20 MSTORE DUP1 PUSH0 MSTORE PUSH1 0x40 PUSH0 KECCAK256 PUSH0 SWAP2 POP SWAP1 POP SLOAD DUP2 JUMP JUMPDEST PUSH1 0x6 SLOAD DUP2 JUMP JUMPDEST PUSH1 0x1 PUSH1 0x11 SLOAD DUP4 DUP4 PUSH0 DUP2 DUP2 LT PUSH2 0x1510 JUMPI PUSH2 0x150F PUSH2 0x244A JUMP JUMPDEST JUMPDEST SWAP1 POP PUSH1 0x20 MUL ADD CALLDATALOAD PUSH2 0x1521 SWAP2 SWAP1 PUSH2 0x24A4 JUMP JUMPDEST PUSH2 0x152B SWAP2 SWAP1 PUSH2 0x1998 JUMP JUMPDEST PUSH1 0x10 DUP2 SWAP1 SSTORE POP PUSH32 0xACB85192B17E57CDD6FFDC2AF021CC70C3A2269771B37B82DD36695FEC903AF5 PUSH1 0x10 SLOAD PUSH1 0x40 MLOAD PUSH2 0x1562 SWAP2 SWAP1 PUSH2 0x1952 JUMP JUMPDEST PUSH1 0x40 MLOAD DUP1 SWAP2 SUB SWAP1 LOG1 POP POP POP JUMP JUMPDEST PUSH0 DUP1 SLOAD SWAP1 PUSH2 0x100 EXP SWAP1 DIV PUSH20 0xFFFFFFFFFFFFFFFFFFFFFFFFFFFFFFFFFFFFFFFF AND PUSH20 0xFFFFFFFFFFFFFFFFFFFFFFFFFFFFFFFFFFFFFFFF AND CALLER PUSH20 0xFFFFFFFFFFFFFFFFFFFFFFFFFFFFFFFFFFFFFFFF AND EQ PUSH2 0x15FC JUMPI PUSH1 0x40 MLOAD PUSH32 0x8C379A000000000000000000000000000000000000000000000000000000000 DUP2 MSTORE PUSH1 0x4 ADD PUSH2 0x15F3 SWAP1 PUSH2 0x251E JUMP JUMPDEST PUSH1 0x40 MLOAD DUP1 SWAP2 SUB SWAP1 REVERT JUMPDEST JUMP JUMPDEST PUSH1 0x60 PUSH32 0x92FD13387C7FE7BEFBC38D303D6468778FB9731BC4583F17D92989C6FCFDEAAA DUP3 PUSH1 0x40 MLOAD PUSH1 0x24 ADD PUSH2 0x1632 SWAP2 SWAP1 PUSH2 0x2565 JUMP JUMPDEST PUSH1 0x40 MLOAD PUSH1 0x20 DUP2 DUP4 SUB SUB DUP2 MSTORE SWAP1 PUSH1 0x40 MSTORE SWAP1 PUSH28 0xFFFFFFFFFFFFFFFFFFFFFFFFFFFFFFFFFFFFFFFFFFFFFFFFFFFFFFFF NOT AND PUSH1 0x20 DUP3 ADD DUP1 MLOAD PUSH28 0xFFFFFFFFFFFFFFFFFFFFFFFFFFFFFFFFFFFFFFFFFFFFFFFFFFFFFFFF DUP4 DUP2 DUP4 AND OR DUP4 MSTORE POP POP POP POP SWAP1 POP SWAP2 SWAP1 POP JUMP JUMPDEST CALLER PUSH20 0xFFFFFFFFFFFFFFFFFFFFFFFFFFFFFFFFFFFFFFFF AND DUP2 PUSH20 0xFFFFFFFFFFFFFFFFFFFFFFFFFFFFFFFFFFFFFFFF AND SUB PUSH2 0x1704 JUMPI PUSH1 0x40 MLOAD PUSH32 0x8C379A000000000000000000000000000000000000000000000000000000000 DUP2 MSTORE PUSH1 0x4 ADD PUSH2 0x16FB SWAP1 PUSH2 0x25C8 JUMP JUMPDEST PUSH1 0x40 MLOAD DUP1 SWAP2 SUB SWAP1 REVERT JUMPDEST DUP1 PUSH1 0x1 PUSH0 PUSH2 0x100 EXP DUP2 SLOAD DUP2 PUSH20 0xFFFFFFFFFFFFFFFFFFFFFFFFFFFFFFFFFFFFFFFF MUL NOT AND SWAP1 DUP4 PUSH20 0xFFFFFFFFFFFFFFFFFFFFFFFFFFFFFFFFFFFFFFFF AND MUL OR SWAP1 SSTORE POP DUP1 PUSH20 0xFFFFFFFFFFFFFFFFFFFFFFFFFFFFFFFFFFFFFFFF AND PUSH0 DUP1 SLOAD SWAP1 PUSH2 0x100 EXP SWAP1 DIV PUSH20 0xFFFFFFFFFFFFFFFFFFFFFFFFFFFFFFFFFFFFFFFF AND PUSH20 0xFFFFFFFFFFFFFFFFFFFFFFFFFFFFFFFFFFFFFFFF AND PUSH32 0xED8889F560326EB138920D842192F0EB3DD22B4F139C87A2C57538E05BAE1278 PUSH1 0x40 MLOAD PUSH1 0x40 MLOAD DUP1 SWAP2 SUB SWAP1 LOG3 POP JUMP JUMPDEST PUSH1 0x2 PUSH1 0x3 SLOAD SUB PUSH2 0x1805 JUMPI PUSH1 0x40 MLOAD PUSH32 0x8C379A000000000000000000000000000000000000000000000000000000000 DUP2 MSTORE PUSH1 0x4 ADD PUSH2 0x17FC SWAP1 PUSH2 0x2630 JUMP JUMPDEST PUSH1 0x40 MLOAD DUP1 SWAP2 SUB SWAP1 REVERT JUMPDEST PUSH1 0x2 PUSH1 0x3 DUP2 SWAP1 SSTORE POP JUMP JUMPDEST PUSH1 0x1 PUSH1 0x3 DUP2 SWAP1 SSTORE POP JUMP JUMPDEST PUSH0 DUP3 DUP3 MSTORE PUSH1 0x20 DUP3 ADD SWAP1 POP SWAP3 SWAP2 POP POP JUMP JUMPDEST PUSH32 0x4F2076616C6F72206465766520736572206D61696F7220717565207A65726F00 PUSH0 DUP3 ADD MSTORE POP JUMP JUMPDEST PUSH0 PUSH2 0x185D PUSH1 0x1F DUP4 PUSH2 0x1819 JUMP JUMPDEST SWAP2 POP PUSH2 0x1868 DUP3 PUSH2 0x1829 JUMP JUMPDEST PUSH1 0x20 DUP3 ADD SWAP1 POP SWAP2 SWAP1 POP JUMP JUMPDEST PUSH0 PUSH1 0x20 DUP3 ADD SWAP1 POP DUP2 DUP2 SUB PUSH0 DUP4 ADD MSTORE PUSH2 0x188A DUP2 PUSH2 0x1851 JUMP JUMPDEST SWAP1 POP SWAP2 SWAP1 POP JUMP JUMPDEST PUSH0 DUP2 SWAP1 POP SWAP3 SWAP2 POP POP JUMP JUMPDEST POP JUMP JUMPDEST PUSH0 PUSH2 0x18A9 PUSH0 DUP4 PUSH2 0x1891 JUMP JUMPDEST SWAP2 POP PUSH2 0x18B4 DUP3 PUSH2 0x189B JUMP JUMPDEST PUSH0 DUP3 ADD SWAP1 POP SWAP2 SWAP1 POP JUMP JUMPDEST PUSH0 PUSH2 0x18C8 DUP3 PUSH2 0x189E JUMP JUMPDEST SWAP2 POP DUP2 SWAP1 POP SWAP2 SWAP1 POP JUMP JUMPDEST PUSH32 0x5265656D626F6C736F2066616C686F7500000000000000000000000000000000 PUSH0 DUP3 ADD MSTORE POP JUMP JUMPDEST PUSH0 PUSH2 0x1906 PUSH1 0x10 DUP4 PUSH2 0x1819 JUMP JUMPDEST SWAP2 POP PUSH2 0x1911 DUP3 PUSH2 0x18D2 JUMP JUMPDEST PUSH1 0x20 DUP3 ADD SWAP1 POP SWAP2 SWAP1 POP JUMP JUMPDEST PUSH0 PUSH1 0x20 DUP3 ADD SWAP1 POP DUP2 DUP2 SUB PUSH0 DUP4 ADD MSTORE PUSH2 0x1933 DUP2 PUSH2 0x18FA JUMP JUMPDEST SWAP1 POP SWAP2 SWAP1 POP JUMP JUMPDEST PUSH0 DUP2 SWAP1 POP SWAP2 SWAP1 POP JUMP JUMPDEST PUSH2 0x194C DUP2 PUSH2 0x193A JUMP JUMPDEST DUP3 MSTORE POP POP JUMP JUMPDEST PUSH0 PUSH1 0x20 DUP3 ADD SWAP1 POP PUSH2 0x1965 PUSH0 DUP4 ADD DUP5 PUSH2 0x1943 JUMP JUMPDEST SWAP3 SWAP2 POP POP JUMP JUMPDEST PUSH32 0x4E487B7100000000000000000000000000000000000000000000000000000000 PUSH0 MSTORE PUSH1 0x11 PUSH1 0x4 MSTORE PUSH1 0x24 PUSH0 REVERT JUMPDEST PUSH0 PUSH2 0x19A2 DUP3 PUSH2 0x193A JUMP JUMPDEST SWAP2 POP PUSH2 0x19AD DUP4 PUSH2 0x193A JUMP JUMPDEST SWAP3 POP DUP3 DUP3 ADD SWAP1 POP DUP1 DUP3 GT ISZERO PUSH2 0x19C5 JUMPI PUSH2 0x19C4 PUSH2 0x196B JUMP JUMPDEST JUMPDEST SWAP3 SWAP2 POP POP JUMP JUMPDEST PUSH32 0x4C696D69746520746F74616C206465206465706F7369746F206174696E676964 PUSH0 DUP3 ADD MSTORE PUSH32 0x6F00000000000000000000000000000000000000000000000000000000000000 PUSH1 0x20 DUP3 ADD MSTORE POP JUMP JUMPDEST PUSH0 PUSH2 0x1A25 PUSH1 0x21 DUP4 PUSH2 0x1819 JUMP JUMPDEST SWAP2 POP PUSH2 0x1A30 DUP3 PUSH2 0x19CB JUMP JUMPDEST PUSH1 0x40 DUP3 ADD SWAP1 POP SWAP2 SWAP1 POP JUMP JUMPDEST PUSH0 PUSH1 0x20 DUP3 ADD SWAP1 POP DUP2 DUP2 SUB PUSH0 DUP4 ADD MSTORE PUSH2 0x1A52 DUP2 PUSH2 0x1A19 JUMP JUMPDEST SWAP1 POP SWAP2 SWAP1 POP JUMP JUMPDEST PUSH32 0x4170656E61732045544820652061636569746F00000000000000000000000000 PUSH0 DUP3 ADD MSTORE POP JUMP JUMPDEST PUSH0 PUSH2 0x1A8D PUSH1 0x13 DUP4 PUSH2 0x1819 JUMP JUMPDEST SWAP2 POP PUSH2 0x1A98 DUP3 PUSH2 0x1A59 JUMP JUMPDEST PUSH1 0x20 DUP3 ADD SWAP1 POP SWAP2 SWAP1 POP JUMP JUMPDEST PUSH0 PUSH1 0x20 DUP3 ADD SWAP1 POP DUP2 DUP2 SUB PUSH0 DUP4 ADD MSTORE PUSH2 0x1ABA DUP2 PUSH2 0x1A81 JUMP JUMPDEST SWAP1 POP SWAP2 SWAP1 POP JUMP JUMPDEST PUSH0 DUP1 REVERT JUMPDEST PUSH0 DUP1 REVERT JUMPDEST PUSH2 0x1AD2 DUP2 PUSH2 0x193A JUMP JUMPDEST DUP2 EQ PUSH2 0x1ADC JUMPI PUSH0 DUP1 REVERT JUMPDEST POP JUMP JUMPDEST PUSH0 DUP2 CALLDATALOAD SWAP1 POP PUSH2 0x1AED DUP2 PUSH2 0x1AC9 JUMP JUMPDEST SWAP3 SWAP2 POP POP JUMP JUMPDEST PUSH0 DUP1 REVERT JUMPDEST PUSH0 DUP1 REVERT JUMPDEST PUSH0 DUP1 REVERT JUMPDEST PUSH0 DUP1 DUP4 PUSH1 0x1F DUP5 ADD SLT PUSH2 0x1B14 JUMPI PUSH2 0x1B13 PUSH2 0x1AF3 JUMP JUMPDEST JUMPDEST DUP3 CALLDATALOAD SWAP1 POP PUSH8 0xFFFFFFFFFFFFFFFF DUP2 GT ISZERO PUSH2 0x1B31 JUMPI PUSH2 0x1B30 PUSH2 0x1AF7 JUMP JUMPDEST JUMPDEST PUSH1 0x20 DUP4 ADD SWAP2 POP DUP4 PUSH1 0x20 DUP3 MUL DUP4 ADD GT ISZERO PUSH2 0x1B4D JUMPI PUSH2 0x1B4C PUSH2 0x1AFB JUMP JUMPDEST JUMPDEST SWAP3 POP SWAP3 SWAP1 POP JUMP JUMPDEST PUSH0 DUP1 PUSH0 PUSH1 0x40 DUP5 DUP7 SUB SLT ISZERO PUSH2 0x1B6B JUMPI PUSH2 0x1B6A PUSH2 0x1AC1 JUMP JUMPDEST JUMPDEST PUSH0 PUSH2 0x1B78 DUP7 DUP3 DUP8 ADD PUSH2 0x1ADF JUMP JUMPDEST SWAP4 POP POP PUSH1 0x20 DUP5 ADD CALLDATALOAD PUSH8 0xFFFFFFFFFFFFFFFF DUP2 GT ISZERO PUSH2 0x1B99 JUMPI PUSH2 0x1B98 PUSH2 0x1AC5 JUMP JUMPDEST JUMPDEST PUSH2 0x1BA5 DUP7 DUP3 DUP8 ADD PUSH2 0x1AFF JUMP JUMPDEST SWAP3 POP SWAP3 POP POP SWAP3 POP SWAP3 POP SWAP3 JUMP JUMPDEST PUSH0 PUSH4 0xFFFFFFFF DUP3 AND SWAP1 POP SWAP2 SWAP1 POP JUMP JUMPDEST PUSH2 0x1BC9 DUP2 PUSH2 0x1BB1 JUMP JUMPDEST DUP3 MSTORE POP POP JUMP JUMPDEST PUSH0 PUSH1 0x20 DUP3 ADD SWAP1 POP PUSH2 0x1BE2 PUSH0 DUP4 ADD DUP5 PUSH2 0x1BC0 JUMP JUMPDEST SWAP3 SWAP2 POP POP JUMP JUMPDEST PUSH0 DUP2 SWAP1 POP SWAP2 SWAP1 POP JUMP JUMPDEST PUSH2 0x1BFA DUP2 PUSH2 0x1BE8 JUMP JUMPDEST DUP3 MSTORE POP POP JUMP JUMPDEST PUSH0 PUSH2 0xFFFF DUP3 AND SWAP1 POP SWAP2 SWAP1 POP JUMP JUMPDEST PUSH2 0x1C16 DUP2 PUSH2 0x1C00 JUMP JUMPDEST DUP3 MSTORE POP POP JUMP JUMPDEST PUSH0 DUP2 MLOAD SWAP1 POP SWAP2 SWAP1 POP JUMP JUMPDEST PUSH0 DUP3 DUP3 MSTORE PUSH1 0x20 DUP3 ADD SWAP1 POP SWAP3 SWAP2 POP POP JUMP JUMPDEST DUP3 DUP2 DUP4 MCOPY PUSH0 DUP4 DUP4 ADD MSTORE POP POP POP JUMP JUMPDEST PUSH0 PUSH1 0x1F NOT PUSH1 0x1F DUP4 ADD AND SWAP1 POP SWAP2 SWAP1 POP JUMP JUMPDEST PUSH0 PUSH2 0x1C5E DUP3 PUSH2 0x1C1C JUMP JUMPDEST PUSH2 0x1C68 DUP2 DUP6 PUSH2 0x1C26 JUMP JUMPDEST SWAP4 POP PUSH2 0x1C78 DUP2 DUP6 PUSH1 0x20 DUP7 ADD PUSH2 0x1C36 JUMP JUMPDEST PUSH2 0x1C81 DUP2 PUSH2 0x1C44 JUMP JUMPDEST DUP5 ADD SWAP2 POP POP SWAP3 SWAP2 POP POP JUMP JUMPDEST PUSH0 PUSH1 0xC0 DUP3 ADD SWAP1 POP PUSH2 0x1C9F PUSH0 DUP4 ADD DUP10 PUSH2 0x1BF1 JUMP JUMPDEST PUSH2 0x1CAC PUSH1 0x20 DUP4 ADD DUP9 PUSH2 0x1943 JUMP JUMPDEST PUSH2 0x1CB9 PUSH1 0x40 DUP4 ADD DUP8 PUSH2 0x1C0D JUMP JUMPDEST PUSH2 0x1CC6 PUSH1 0x60 DUP4 ADD DUP7 PUSH2 0x1BC0 JUMP JUMPDEST PUSH2 0x1CD3 PUSH1 0x80 DUP4 ADD DUP6 PUSH2 0x1BC0 JUMP JUMPDEST DUP2 DUP2 SUB PUSH1 0xA0 DUP4 ADD MSTORE PUSH2 0x1CE5 DUP2 DUP5 PUSH2 0x1C54 JUMP JUMPDEST SWAP1 POP SWAP8 SWAP7 POP POP POP POP POP POP POP JUMP JUMPDEST PUSH0 PUSH1 0x20 DUP3 ADD SWAP1 POP PUSH2 0x1D05 PUSH0 DUP4 ADD DUP5 PUSH2 0x1BF1 JUMP JUMPDEST SWAP3 SWAP2 POP POP JUMP JUMPDEST PUSH0 DUP2 ISZERO ISZERO SWAP1 POP SWAP2 SWAP1 POP JUMP JUMPDEST PUSH2 0x1D1F DUP2 PUSH2 0x1D0B JUMP JUMPDEST DUP3 MSTORE POP POP JUMP JUMPDEST PUSH0 PUSH1 0x20 DUP3 ADD SWAP1 POP PUSH2 0x1D38 PUSH0 DUP4 ADD DUP5 PUSH2 0x1D16 JUMP JUMPDEST SWAP3 SWAP2 POP POP JUMP JUMPDEST PUSH0 PUSH20 0xFFFFFFFFFFFFFFFFFFFFFFFFFFFFFFFFFFFFFFFF DUP3 AND SWAP1 POP SWAP2 SWAP1 POP JUMP JUMPDEST PUSH0 PUSH2 0x1D67 DUP3 PUSH2 0x1D3E JUMP JUMPDEST SWAP1 POP SWAP2 SWAP1 POP JUMP JUMPDEST PUSH2 0x1D77 DUP2 PUSH2 0x1D5D JUMP JUMPDEST DUP3 MSTORE POP POP JUMP JUMPDEST PUSH0 PUSH1 0x20 DUP3 ADD SWAP1 POP PUSH2 0x1D90 PUSH0 DUP4 ADD DUP5 PUSH2 0x1D6E JUMP JUMPDEST SWAP3 SWAP2 POP POP JUMP JUMPDEST PUSH2 0x1D9F DUP2 PUSH2 0x1D5D JUMP JUMPDEST DUP2 EQ PUSH2 0x1DA9 JUMPI PUSH0 DUP1 REVERT JUMPDEST POP JUMP JUMPDEST PUSH0 DUP2 CALLDATALOAD SWAP1 POP PUSH2 0x1DBA DUP2 PUSH2 0x1D96 JUMP JUMPDEST SWAP3 SWAP2 POP POP JUMP JUMPDEST PUSH0 PUSH1 0x20 DUP3 DUP5 SUB SLT ISZERO PUSH2 0x1DD5 JUMPI PUSH2 0x1DD4 PUSH2 0x1AC1 JUMP JUMPDEST JUMPDEST PUSH0 PUSH2 0x1DE2 DUP5 DUP3 DUP6 ADD PUSH2 0x1DAC JUMP JUMPDEST SWAP2 POP POP SWAP3 SWAP2 POP POP JUMP JUMPDEST PUSH0 DUP2 SWAP1 POP SWAP2 SWAP1 POP JUMP JUMPDEST PUSH0 PUSH2 0x1E0E PUSH2 0x1E09 PUSH2 0x1E04 DUP5 PUSH2 0x1D3E JUMP JUMPDEST PUSH2 0x1DEB JUMP JUMPDEST PUSH2 0x1D3E JUMP JUMPDEST SWAP1 POP SWAP2 SWAP1 POP JUMP JUMPDEST PUSH0 PUSH2 0x1E1F DUP3 PUSH2 0x1DF4 JUMP JUMPDEST SWAP1 POP SWAP2 SWAP1 POP JUMP JUMPDEST PUSH0 PUSH2 0x1E30 DUP3 PUSH2 0x1E15 JUMP JUMPDEST SWAP1 POP SWAP2 SWAP1 POP JUMP JUMPDEST PUSH2 0x1E40 DUP2 PUSH2 0x1E26 JUMP JUMPDEST DUP3 MSTORE POP POP JUMP JUMPDEST PUSH0 PUSH1 0x20 DUP3 ADD SWAP1 POP PUSH2 0x1E59 PUSH0 DUP4 ADD DUP5 PUSH2 0x1E37 JUMP JUMPDEST SWAP3 SWAP2 POP POP JUMP JUMPDEST PUSH0 PUSH1 0x20 DUP3 ADD SWAP1 POP PUSH2 0x1E72 PUSH0 DUP4 ADD DUP5 PUSH2 0x1C0D JUMP JUMPDEST SWAP3 SWAP2 POP POP JUMP JUMPDEST PUSH0 PUSH1 0x20 DUP3 DUP5 SUB SLT ISZERO PUSH2 0x1E8D JUMPI PUSH2 0x1E8C PUSH2 0x1AC1 JUMP JUMPDEST JUMPDEST PUSH0 PUSH2 0x1E9A DUP5 DUP3 DUP6 ADD PUSH2 0x1ADF JUMP JUMPDEST SWAP2 POP POP SWAP3 SWAP2 POP POP JUMP JUMPDEST PUSH0 PUSH2 0x1EAD DUP3 PUSH2 0x1D3E JUMP JUMPDEST SWAP1 POP SWAP2 SWAP1 POP JUMP JUMPDEST PUSH2 0x1EBD DUP2 PUSH2 0x1EA3 JUMP JUMPDEST DUP2 EQ PUSH2 0x1EC7 JUMPI PUSH0 DUP1 REVERT JUMPDEST POP JUMP JUMPDEST PUSH0 DUP2 CALLDATALOAD SWAP1 POP PUSH2 0x1ED8 DUP2 PUSH2 0x1EB4 JUMP JUMPDEST SWAP3 SWAP2 POP POP JUMP JUMPDEST PUSH0 DUP1 PUSH1 0x40 DUP4 DUP6 SUB SLT ISZERO PUSH2 0x1EF4 JUMPI PUSH2 0x1EF3 PUSH2 0x1AC1 JUMP JUMPDEST JUMPDEST PUSH0 PUSH2 0x1F01 DUP6 DUP3 DUP7 ADD PUSH2 0x1ECA JUMP JUMPDEST SWAP3 POP POP PUSH1 0x20 PUSH2 0x1F12 DUP6 DUP3 DUP7 ADD PUSH2 0x1ADF JUMP JUMPDEST SWAP2 POP POP SWAP3 POP SWAP3 SWAP1 POP JUMP JUMPDEST PUSH0 PUSH1 0x40 DUP3 ADD SWAP1 POP PUSH2 0x1F2F PUSH0 DUP4 ADD DUP6 PUSH2 0x1D6E JUMP JUMPDEST PUSH2 0x1F3C PUSH1 0x20 DUP4 ADD DUP5 PUSH2 0x1D6E JUMP JUMPDEST SWAP4 SWAP3 POP POP POP JUMP JUMPDEST PUSH32 0x4E487B7100000000000000000000000000000000000000000000000000000000 PUSH0 MSTORE PUSH1 0x22 PUSH1 0x4 MSTORE PUSH1 0x24 PUSH0 REVERT JUMPDEST PUSH0 PUSH1 0x2 DUP3 DIV SWAP1 POP PUSH1 0x1 DUP3 AND DUP1 PUSH2 0x1F87 JUMPI PUSH1 0x7F DUP3 AND SWAP2 POP JUMPDEST PUSH1 0x20 DUP3 LT DUP2 SUB PUSH2 0x1F9A JUMPI PUSH2 0x1F99 PUSH2 0x1F43 JUMP JUMPDEST JUMPDEST POP SWAP2 SWAP1 POP JUMP JUMPDEST PUSH32 0x4D7573742062652070726F706F736564206F776E657200000000000000000000 PUSH0 DUP3 ADD MSTORE POP JUMP JUMPDEST PUSH0 PUSH2 0x1FD4 PUSH1 0x16 DUP4 PUSH2 0x1819 JUMP JUMPDEST SWAP2 POP PUSH2 0x1FDF DUP3 PUSH2 0x1FA0 JUMP JUMPDEST PUSH1 0x20 DUP3 ADD SWAP1 POP SWAP2 SWAP1 POP JUMP JUMPDEST PUSH0 PUSH1 0x20 DUP3 ADD SWAP1 POP DUP2 DUP2 SUB PUSH0 DUP4 ADD MSTORE PUSH2 0x2001 DUP2 PUSH2 0x1FC8 JUMP JUMPDEST SWAP1 POP SWAP2 SWAP1 POP JUMP JUMPDEST PUSH0 PUSH1 0x60 DUP3 ADD SWAP1 POP PUSH2 0x201B PUSH0 DUP4 ADD DUP7 PUSH2 0x1D6E JUMP JUMPDEST PUSH2 0x2028 PUSH1 0x20 DUP4 ADD DUP6 PUSH2 0x1D6E JUMP JUMPDEST PUSH2 0x2035 PUSH1 0x40 DUP4 ADD DUP5 PUSH2 0x1D6E JUMP JUMPDEST SWAP5 SWAP4 POP POP POP POP JUMP JUMPDEST PUSH32 0x52616E646F6D206E756D62657220616C72656164792067656E65726174656400 PUSH0 DUP3 ADD MSTORE POP JUMP JUMPDEST PUSH0 PUSH2 0x2071 PUSH1 0x1F DUP4 PUSH2 0x1819 JUMP JUMPDEST SWAP2 POP PUSH2 0x207C DUP3 PUSH2 0x203D JUMP JUMPDEST PUSH1 0x20 DUP3 ADD SWAP1 POP SWAP2 SWAP1 POP JUMP JUMPDEST PUSH0 PUSH1 0x20 DUP3 ADD SWAP1 POP DUP2 DUP2 SUB PUSH0 DUP4 ADD MSTORE PUSH2 0x209E DUP2 PUSH2 0x2065 JUMP JUMPDEST SWAP1 POP SWAP2 SWAP1 POP JUMP JUMPDEST PUSH32 0x4D61782072616E6765206D7573742062652067726561746572207468616E2030 PUSH0 DUP3 ADD MSTORE POP JUMP JUMPDEST PUSH0 PUSH2 0x20D9 PUSH1 0x20 DUP4 PUSH2 0x1819 JUMP JUMPDEST SWAP2 POP PUSH2 0x20E4 DUP3 PUSH2 0x20A5 JUMP JUMPDEST PUSH1 0x20 DUP3 ADD SWAP1 POP SWAP2 SWAP1 POP JUMP JUMPDEST PUSH0 PUSH1 0x20 DUP3 ADD SWAP1 POP DUP2 DUP2 SUB PUSH0 DUP4 ADD MSTORE PUSH2 0x2106 DUP2 PUSH2 0x20CD JUMP JUMPDEST SWAP1 POP SWAP2 SWAP1 POP JUMP JUMPDEST PUSH2 0x2116 DUP2 PUSH2 0x1BE8 JUMP JUMPDEST DUP3 MSTORE POP POP JUMP JUMPDEST PUSH2 0x2125 DUP2 PUSH2 0x193A JUMP JUMPDEST DUP3 MSTORE POP POP JUMP JUMPDEST PUSH2 0x2134 DUP2 PUSH2 0x1C00 JUMP JUMPDEST DUP3 MSTORE POP POP JUMP JUMPDEST PUSH2 0x2143 DUP2 PUSH2 0x1BB1 JUMP JUMPDEST DUP3 MSTORE POP POP JUMP JUMPDEST PUSH0 DUP3 DUP3 MSTORE PUSH1 0x20 DUP3 ADD SWAP1 POP SWAP3 SWAP2 POP POP JUMP JUMPDEST PUSH0 PUSH2 0x2163 DUP3 PUSH2 0x1C1C JUMP JUMPDEST PUSH2 0x216D DUP2 DUP6 PUSH2 0x2149 JUMP JUMPDEST SWAP4 POP PUSH2 0x217D DUP2 DUP6 PUSH1 0x20 DUP7 ADD PUSH2 0x1C36 JUMP JUMPDEST PUSH2 0x2186 DUP2 PUSH2 0x1C44 JUMP JUMPDEST DUP5 ADD SWAP2 POP POP SWAP3 SWAP2 POP POP JUMP JUMPDEST PUSH0 PUSH1 0xC0 DUP4 ADD PUSH0 DUP4 ADD MLOAD PUSH2 0x21A6 PUSH0 DUP7 ADD DUP3 PUSH2 0x210D JUMP JUMPDEST POP PUSH1 0x20 DUP4 ADD MLOAD PUSH2 0x21B9 PUSH1 0x20 DUP7 ADD DUP3 PUSH2 0x211C JUMP JUMPDEST POP PUSH1 0x40 DUP4 ADD MLOAD PUSH2 0x21CC PUSH1 0x40 DUP7 ADD DUP3 PUSH2 0x212B JUMP JUMPDEST POP PUSH1 0x60 DUP4 ADD MLOAD PUSH2 0x21DF PUSH1 0x60 DUP7 ADD DUP3 PUSH2 0x213A JUMP JUMPDEST POP PUSH1 0x80 DUP4 ADD MLOAD PUSH2 0x21F2 PUSH1 0x80 DUP7 ADD DUP3 PUSH2 0x213A JUMP JUMPDEST POP PUSH1 0xA0 DUP4 ADD MLOAD DUP5 DUP3 SUB PUSH1 0xA0 DUP7 ADD MSTORE PUSH2 0x220A DUP3 DUP3 PUSH2 0x2159 JUMP JUMPDEST SWAP2 POP POP DUP1 SWAP2 POP POP SWAP3 SWAP2 POP POP JUMP JUMPDEST PUSH0 PUSH1 0x20 DUP3 ADD SWAP1 POP DUP2 DUP2 SUB PUSH0 DUP4 ADD MSTORE PUSH2 0x222F DUP2 DUP5 PUSH2 0x2191 JUMP JUMPDEST SWAP1 POP SWAP3 SWAP2 POP POP JUMP JUMPDEST PUSH0 DUP2 MLOAD SWAP1 POP PUSH2 0x2245 DUP2 PUSH2 0x1AC9 JUMP JUMPDEST SWAP3 SWAP2 POP POP JUMP JUMPDEST PUSH0 PUSH1 0x20 DUP3 DUP5 SUB SLT ISZERO PUSH2 0x2260 JUMPI PUSH2 0x225F PUSH2 0x1AC1 JUMP JUMPDEST JUMPDEST PUSH0 PUSH2 0x226D DUP5 DUP3 DUP6 ADD PUSH2 0x2237 JUMP JUMPDEST SWAP2 POP POP SWAP3 SWAP2 POP POP JUMP JUMPDEST PUSH32 0x6163616F206E616F207065726D697469646120616E7465732064612064617461 PUSH0 DUP3 ADD MSTORE PUSH32 0x20646520646573626C6F717565696F0000000000000000000000000000000000 PUSH1 0x20 DUP3 ADD MSTORE POP JUMP JUMPDEST PUSH0 PUSH2 0x22D0 PUSH1 0x2F DUP4 PUSH2 0x1819 JUMP JUMPDEST SWAP2 POP PUSH2 0x22DB DUP3 PUSH2 0x2276 JUMP JUMPDEST PUSH1 0x40 DUP3 ADD SWAP1 POP SWAP2 SWAP1 POP JUMP JUMPDEST PUSH0 PUSH1 0x20 DUP3 ADD SWAP1 POP DUP2 DUP2 SUB PUSH0 DUP4 ADD MSTORE PUSH2 0x22FD DUP2 PUSH2 0x22C4 JUMP JUMPDEST SWAP1 POP SWAP2 SWAP1 POP JUMP JUMPDEST PUSH32 0x53616C646F20696E737566696369656E74650000000000000000000000000000 PUSH0 DUP3 ADD MSTORE POP JUMP JUMPDEST PUSH0 PUSH2 0x2338 PUSH1 0x12 DUP4 PUSH2 0x1819 JUMP JUMPDEST SWAP2 POP PUSH2 0x2343 DUP3 PUSH2 0x2304 JUMP JUMPDEST PUSH1 0x20 DUP3 ADD SWAP1 POP SWAP2 SWAP1 POP JUMP JUMPDEST PUSH0 PUSH1 0x20 DUP3 ADD SWAP1 POP DUP2 DUP2 SUB PUSH0 DUP4 ADD MSTORE PUSH2 0x2365 DUP2 PUSH2 0x232C JUMP JUMPDEST SWAP1 POP SWAP2 SWAP1 POP JUMP JUMPDEST PUSH32 0x46616C6861206E61207265746972616461000000000000000000000000000000 PUSH0 DUP3 ADD MSTORE POP JUMP JUMPDEST PUSH0 PUSH2 0x23A0 PUSH1 0x11 DUP4 PUSH2 0x1819 JUMP JUMPDEST SWAP2 POP PUSH2 0x23AB DUP3 PUSH2 0x236C JUMP JUMPDEST PUSH1 0x20 DUP3 ADD SWAP1 POP SWAP2 SWAP1 POP JUMP JUMPDEST PUSH0 PUSH1 0x20 DUP3 ADD SWAP1 POP DUP2 DUP2 SUB PUSH0 DUP4 ADD MSTORE PUSH2 0x23CD DUP2 PUSH2 0x2394 JUMP JUMPDEST SWAP1 POP SWAP2 SWAP1 POP JUMP JUMPDEST PUSH32 0x4574686572000000000000000000000000000000000000000000000000000000 PUSH0 DUP3 ADD MSTORE POP JUMP JUMPDEST PUSH0 PUSH2 0x2408 PUSH1 0x5 DUP4 PUSH2 0x1819 JUMP JUMPDEST SWAP2 POP PUSH2 0x2413 DUP3 PUSH2 0x23D4 JUMP JUMPDEST PUSH1 0x20 DUP3 ADD SWAP1 POP SWAP2 SWAP1 POP JUMP JUMPDEST PUSH0 PUSH1 0x40 DUP3 ADD SWAP1 POP PUSH2 0x2431 PUSH0 DUP4 ADD DUP5 PUSH2 0x1943 JUMP JUMPDEST DUP2 DUP2 SUB PUSH1 0x20 DUP4 ADD MSTORE PUSH2 0x2442 DUP2 PUSH2 0x23FC JUMP JUMPDEST SWAP1 POP SWAP3 SWAP2 POP POP JUMP JUMPDEST PUSH32 0x4E487B7100000000000000000000000000000000000000000000000000000000 PUSH0 MSTORE PUSH1 0x32 PUSH1 0x4 MSTORE PUSH1 0x24 PUSH0 REVERT JUMPDEST PUSH32 0x4E487B7100000000000000000000000000000000000000000000000000000000 PUSH0 MSTORE PUSH1 0x12 PUSH1 0x4 MSTORE PUSH1 0x24 PUSH0 REVERT JUMPDEST PUSH0 PUSH2 0x24AE DUP3 PUSH2 0x193A JUMP JUMPDEST SWAP2 POP PUSH2 0x24B9 DUP4 PUSH2 0x193A JUMP JUMPDEST SWAP3 POP DUP3 PUSH2 0x24C9 JUMPI PUSH2 0x24C8 PUSH2 0x2477 JUMP JUMPDEST JUMPDEST DUP3 DUP3 MOD SWAP1 POP SWAP3 SWAP2 POP POP JUMP JUMPDEST PUSH32 0x4F6E6C792063616C6C61626C65206279206F776E657200000000000000000000 PUSH0 DUP3 ADD MSTORE POP JUMP JUMPDEST PUSH0 PUSH2 0x2508 PUSH1 0x16 DUP4 PUSH2 0x1819 JUMP JUMPDEST SWAP2 POP PUSH2 0x2513 DUP3 PUSH2 0x24D4 JUMP JUMPDEST PUSH1 0x20 DUP3 ADD SWAP1 POP SWAP2 SWAP1 POP JUMP JUMPDEST PUSH0 PUSH1 0x20 DUP3 ADD SWAP1 POP DUP2 DUP2 SUB PUSH0 DUP4 ADD MSTORE PUSH2 0x2535 DUP2 PUSH2 0x24FC JUMP JUMPDEST SWAP1 POP SWAP2 SWAP1 POP JUMP JUMPDEST PUSH2 0x2545 DUP2 PUSH2 0x1D0B JUMP JUMPDEST DUP3 MSTORE POP POP JUMP JUMPDEST PUSH1 0x20 DUP3 ADD PUSH0 DUP3 ADD MLOAD PUSH2 0x255F PUSH0 DUP6 ADD DUP3 PUSH2 0x253C JUMP JUMPDEST POP POP POP POP JUMP JUMPDEST PUSH0 PUSH1 0x20 DUP3 ADD SWAP1 POP PUSH2 0x2578 PUSH0 DUP4 ADD DUP5 PUSH2 0x254B JUMP JUMPDEST SWAP3 SWAP2 POP POP JUMP JUMPDEST PUSH32 0x43616E6E6F74207472616E7366657220746F2073656C66000000000000000000 PUSH0 DUP3 ADD MSTORE POP JUMP JUMPDEST PUSH0 PUSH2 0x25B2 PUSH1 0x17 DUP4 PUSH2 0x1819 JUMP JUMPDEST SWAP2 POP PUSH2 0x25BD DUP3 PUSH2 0x257E JUMP JUMPDEST PUSH1 0x20 DUP3 ADD SWAP1 POP SWAP2 SWAP1 POP JUMP JUMPDEST PUSH0 PUSH1 0x20 DUP3 ADD SWAP1 POP DUP2 DUP2 SUB PUSH0 DUP4 ADD MSTORE PUSH2 0x25DF DUP2 PUSH2 0x25A6 JUMP JUMPDEST SWAP1 POP SWAP2 SWAP1 POP JUMP JUMPDEST PUSH32 0x5265656E7472616E637947756172643A207265656E7472616E742063616C6C00 PUSH0 DUP3 ADD MSTORE POP JUMP JUMPDEST PUSH0 PUSH2 0x261A PUSH1 0x1F DUP4 PUSH2 0x1819 JUMP JUMPDEST SWAP2 POP PUSH2 0x2625 DUP3 PUSH2 0x25E6 JUMP JUMPDEST PUSH1 0x20 DUP3 ADD SWAP1 POP SWAP2 SWAP1 POP JUMP JUMPDEST PUSH0 PUSH1 0x20 DUP3 ADD SWAP1 POP DUP2 DUP2 SUB PUSH0 DUP4 ADD MSTORE PUSH2 0x2647 DUP2 PUSH2 0x260E JUMP JUMPDEST SWAP1 POP SWAP2 SWAP1 POP JUMP INVALID LOG2 PUSH5 0x6970667358 0x22 SLT KECCAK256 0x4B MULMOD PUSH1 0x76 BLOBBASEFEE PUSH11 0x41C5D344A179CF87A50D5F PUSH23 0x6503A454DE291D99C68E499B5A5464736F6C634300081A STOP CALLER "
				},
				"gasEstimates": {
					"creation": {
						"codeDepositCost": "1972000",
						"executionCost": "infinite",
						"totalCost": "infinite"
					},
					"external": {
						"": "534",
						"acceptOwnership()": "54578",
						"callbackGasLimit()": "2534",
						"depositors(uint256)": "5011",
						"deposits(address)": "2890",
						"exactAmount()": "2515",
						"hasDeposited(address)": "2922",
						"keyHash()": "2493",
						"lastWithdrawalTime()": "2537",
						"maxRange()": "2536",
						"numWords()": "2584",
						"owner()": "2538",
						"randomGenerated()": "2555",
						"randomResult()": "2471",
						"rawFulfillRandomWords(uint256,uint256[])": "infinite",
						"requestConfirmations()": "2628",
						"requestRandomNumber(uint256)": "infinite",
						"s_vrfCoordinator()": "infinite",
						"setCoordinator(address)": "infinite",
						"subscriptionId()": "2449",
						"totalDeposited()": "2535",
						"totalLimit()": "2514",
						"transferOwnership(address)": "30689",
						"unlockDate()": "2515",
						"vrfRequest()": "infinite",
						"withdraw(address,uint256)": "infinite",
						"withdrawalCooldown()": "2470"
					},
					"internal": {
						"_registerDeposit(address,uint256)": "infinite",
						"fulfillRandomWords(uint256,uint256[] calldata)": "infinite"
					}
				},
				"methodIdentifiers": {
					"acceptOwnership()": "79ba5097",
					"callbackGasLimit()": "24f74697",
					"depositors(uint256)": "e4b2fb79",
					"deposits(address)": "fc7e286d",
					"exactAmount()": "261a9ac9",
					"hasDeposited(address)": "f2c16e6f",
					"keyHash()": "61728f39",
					"lastWithdrawalTime()": "34a014dc",
					"maxRange()": "89ce16cc",
					"numWords()": "7ccfd7fc",
					"owner()": "8da5cb5b",
					"randomGenerated()": "8246a16e",
					"randomResult()": "42619f66",
					"rawFulfillRandomWords(uint256,uint256[])": "1fe543e3",
					"requestConfirmations()": "b0fb162f",
					"requestRandomNumber(uint256)": "b1eb96c9",
					"s_vrfCoordinator()": "9eccacf6",
					"setCoordinator(address)": "8ea98117",
					"subscriptionId()": "09c1ba2e",
					"totalDeposited()": "ff50abdc",
					"totalLimit()": "a36298c7",
					"transferOwnership(address)": "f2fde38b",
					"unlockDate()": "69ac5721",
					"vrfRequest()": "3e23b145",
					"withdraw(address,uint256)": "f3fef3a3",
					"withdrawalCooldown()": "d6c89c60"
				}
			},
			"storageLayout": {
				"storage": [
					{
						"astId": 751,
						"contract": "raffle.sol:LimitReceiver",
						"label": "s_owner",
						"offset": 0,
						"slot": "0",
						"type": "t_address"
					},
					{
						"astId": 753,
						"contract": "raffle.sol:LimitReceiver",
						"label": "s_pendingOwner",
						"offset": 0,
						"slot": "1",
						"type": "t_address"
					},
					{
						"astId": 953,
						"contract": "raffle.sol:LimitReceiver",
						"label": "s_vrfCoordinator",
						"offset": 0,
						"slot": "2",
						"type": "t_contract(IVRFCoordinatorV2Plus)1102"
					},
					{
						"astId": 10,
						"contract": "raffle.sol:LimitReceiver",
						"label": "_status",
						"offset": 0,
						"slot": "3",
						"type": "t_uint256"
					},
					{
						"astId": 1265,
						"contract": "raffle.sol:LimitReceiver",
						"label": "exactAmount",
						"offset": 0,
						"slot": "4",
						"type": "t_uint256"
					},
					{
						"astId": 1267,
						"contract": "raffle.sol:LimitReceiver",
						"label": "totalLimit",
						"offset": 0,
						"slot": "5",
						"type": "t_uint256"
					},
					{
						"astId": 1269,
						"contract": "raffle.sol:LimitReceiver",
						"label": "totalDeposited",
						"offset": 0,
						"slot": "6",
						"type": "t_uint256"
					},
					{
						"astId": 1272,
						"contract": "raffle.sol:LimitReceiver",
						"label": "withdrawalCooldown",
						"offset": 0,
						"slot": "7",
						"type": "t_uint256"
					},
					{
						"astId": 1274,
						"contract": "raffle.sol:LimitReceiver",
						"label": "lastWithdrawalTime",
						"offset": 0,
						"slot": "8",
						"type": "t_uint256"
					},
					{
						"astId": 1276,
						"contract": "raffle.sol:LimitReceiver",
						"label": "unlockDate",
						"offset": 0,
						"slot": "9",
						"type": "t_uint256"
					},
					{
						"astId": 1278,
						"contract": "raffle.sol:LimitReceiver",
						"label": "randomGenerated",
						"offset": 0,
						"slot": "10",
						"type": "t_bool"
					},
					{
						"astId": 1281,
						"contract": "raffle.sol:LimitReceiver",
						"label": "vrfRequest",
						"offset": 0,
						"slot": "11",
						"type": "t_struct(RandomWordsRequest)1231_storage"
					},
					{
						"astId": 1283,
						"contract": "raffle.sol:LimitReceiver",
						"label": "subscriptionId",
						"offset": 0,
						"slot": "15",
						"type": "t_uint256"
					},
					{
						"astId": 1285,
						"contract": "raffle.sol:LimitReceiver",
						"label": "randomResult",
						"offset": 0,
						"slot": "16",
						"type": "t_uint256"
					},
					{
						"astId": 1287,
						"contract": "raffle.sol:LimitReceiver",
						"label": "maxRange",
						"offset": 0,
						"slot": "17",
						"type": "t_uint256"
					},
					{
						"astId": 1289,
						"contract": "raffle.sol:LimitReceiver",
						"label": "keyHash",
						"offset": 0,
						"slot": "18",
						"type": "t_bytes32"
					},
					{
						"astId": 1292,
						"contract": "raffle.sol:LimitReceiver",
						"label": "callbackGasLimit",
						"offset": 0,
						"slot": "19",
						"type": "t_uint32"
					},
					{
						"astId": 1295,
						"contract": "raffle.sol:LimitReceiver",
						"label": "requestConfirmations",
						"offset": 4,
						"slot": "19",
						"type": "t_uint16"
					},
					{
						"astId": 1298,
						"contract": "raffle.sol:LimitReceiver",
						"label": "numWords",
						"offset": 6,
						"slot": "19",
						"type": "t_uint32"
					},
					{
						"astId": 1301,
						"contract": "raffle.sol:LimitReceiver",
						"label": "COORDINATOR",
						"offset": 10,
						"slot": "19",
						"type": "t_contract(IVRFCoordinatorV2Plus)1102"
					},
					{
						"astId": 1305,
						"contract": "raffle.sol:LimitReceiver",
						"label": "deposits",
						"offset": 0,
						"slot": "20",
						"type": "t_mapping(t_address,t_uint256)"
					},
					{
						"astId": 1308,
						"contract": "raffle.sol:LimitReceiver",
						"label": "depositors",
						"offset": 0,
						"slot": "21",
						"type": "t_array(t_address)dyn_storage"
					},
					{
						"astId": 1312,
						"contract": "raffle.sol:LimitReceiver",
						"label": "hasDeposited",
						"offset": 0,
						"slot": "22",
						"type": "t_mapping(t_address,t_bool)"
					}
				],
				"types": {
					"t_address": {
						"encoding": "inplace",
						"label": "address",
						"numberOfBytes": "20"
					},
					"t_array(t_address)dyn_storage": {
						"base": "t_address",
						"encoding": "dynamic_array",
						"label": "address[]",
						"numberOfBytes": "32"
					},
					"t_bool": {
						"encoding": "inplace",
						"label": "bool",
						"numberOfBytes": "1"
					},
					"t_bytes32": {
						"encoding": "inplace",
						"label": "bytes32",
						"numberOfBytes": "32"
					},
					"t_bytes_storage": {
						"encoding": "bytes",
						"label": "bytes",
						"numberOfBytes": "32"
					},
					"t_contract(IVRFCoordinatorV2Plus)1102": {
						"encoding": "inplace",
						"label": "contract IVRFCoordinatorV2Plus",
						"numberOfBytes": "20"
					},
					"t_mapping(t_address,t_bool)": {
						"encoding": "mapping",
						"key": "t_address",
						"label": "mapping(address => bool)",
						"numberOfBytes": "32",
						"value": "t_bool"
					},
					"t_mapping(t_address,t_uint256)": {
						"encoding": "mapping",
						"key": "t_address",
						"label": "mapping(address => uint256)",
						"numberOfBytes": "32",
						"value": "t_uint256"
					},
					"t_struct(RandomWordsRequest)1231_storage": {
						"encoding": "inplace",
						"label": "struct VRFV2PlusClient.RandomWordsRequest",
						"members": [
							{
								"astId": 1220,
								"contract": "raffle.sol:LimitReceiver",
								"label": "keyHash",
								"offset": 0,
								"slot": "0",
								"type": "t_bytes32"
							},
							{
								"astId": 1222,
								"contract": "raffle.sol:LimitReceiver",
								"label": "subId",
								"offset": 0,
								"slot": "1",
								"type": "t_uint256"
							},
							{
								"astId": 1224,
								"contract": "raffle.sol:LimitReceiver",
								"label": "requestConfirmations",
								"offset": 0,
								"slot": "2",
								"type": "t_uint16"
							},
							{
								"astId": 1226,
								"contract": "raffle.sol:LimitReceiver",
								"label": "callbackGasLimit",
								"offset": 2,
								"slot": "2",
								"type": "t_uint32"
							},
							{
								"astId": 1228,
								"contract": "raffle.sol:LimitReceiver",
								"label": "numWords",
								"offset": 6,
								"slot": "2",
								"type": "t_uint32"
							},
							{
								"astId": 1230,
								"contract": "raffle.sol:LimitReceiver",
								"label": "extraArgs",
								"offset": 0,
								"slot": "3",
								"type": "t_bytes_storage"
							}
						],
						"numberOfBytes": "128"
					},
					"t_uint16": {
						"encoding": "inplace",
						"label": "uint16",
						"numberOfBytes": "2"
					},
					"t_uint256": {
						"encoding": "inplace",
						"label": "uint256",
						"numberOfBytes": "32"
					},
					"t_uint32": {
						"encoding": "inplace",
						"label": "uint32",
						"numberOfBytes": "4"
					}
				}
			},
			"userdoc": {
				"kind": "user",
				"methods": {
					"acceptOwnership()": {
						"notice": "Allows an ownership transfer to be completed by the recipient."
					},
					"owner()": {
						"notice": "Get the current owner"
					},
					"setCoordinator(address)": {
						"notice": "Sets the VRF Coordinator addressThis method should only be callable by the coordinator or contract owner"
					},
					"transferOwnership(address)": {
						"notice": "Allows an owner to begin transferring ownership to a new address."
					}
				},
				"version": 1
			}
		}
	}
}